{
    "contractName": "TeamworkFactory",
    "abi": [
        {
            "inputs": [
                {
                    "internalType": "string",
                    "name": "teamName",
                    "type": "string"
                },
                {
                    "internalType": "uint16",
                    "name": "teamMembers",
                    "type": "uint16"
                },
                {
                    "internalType": "uint16",
                    "name": "percentDivided",
                    "type": "uint16"
                }
            ],
            "name": "createTeam",
            "outputs": [],
            "stateMutability": "nonpayable",
            "type": "function"
        },
        {
            "inputs": [],
            "name": "getTeamworks",
            "outputs": [
                {
                    "internalType": "string[]",
                    "name": "",
                    "type": "string[]"
                }
            ],
            "stateMutability": "view",
            "type": "function"
        },
        {
            "inputs": [
                {
                    "internalType": "uint256",
                    "name": "",
                    "type": "uint256"
                }
            ],
            "name": "teams",
            "outputs": [
                {
                    "internalType": "string",
                    "name": "",
                    "type": "string"
                }
            ],
            "stateMutability": "view",
            "type": "function"
        }
    ],
    "bytecode": "608060405234801561001057600080fd5b506119b4806100206000396000f3fe60806040523480156200001157600080fd5b5060043610620000465760003560e01c80633ed2b77a146200004b5780639099b131146200007a578063f9c2c61b1462000093575b600080fd5b620000626200005c36600462000554565b620000ac565b604051620000719190620005c2565b60405180910390f35b6200008462000161565b604051620000719190620005d7565b620000aa620000a43660046200066b565b62000244565b005b60008181548110620000bd57600080fd5b906000526020600020016000915090508054620000da906200074b565b80601f016020809104026020016040519081016040528092919081815260200182805462000108906200074b565b8015620001595780601f106200012d5761010080835404028352916020019162000159565b820191906000526020600020905b8154815290600101906020018083116200013b57829003601f168201915b505050505081565b60606000805480602002602001604051908101604052809291908181526020016000905b828210156200023b578382906000526020600020018054620001a7906200074b565b80601f0160208091040260200160405190810160405280929190818152602001828054620001d5906200074b565b8015620002265780601f10620001fa5761010080835404028352916020019162000226565b820191906000526020600020905b8154815290600101906020018083116200020857829003601f168201915b50505050508152602001906001019062000185565b50505050905090565b60018261ffff161180156200026757506200026182606462000787565b61ffff16155b80156200027957508161ffff16606414155b6200028357600080fd5b600083833384604051620002979062000546565b620002a69493929190620007b7565b604051809103906000f080158015620002c3573d6000803e3d6000fd5b509050600084604051602001620002db9190620007f9565b6040516020818303038152906040529050600081620002fa8462000364565b6040516020016200030d92919062000820565b60408051601f19818403018152919052600080546001810182559080529091507f290decd9548b62a8d60345a988386fc84ba6bc95484008f6362f93160ef3e563016200035b8282620008a6565b50505050505050565b60606200037c6001600160a01b038316601462000382565b92915050565b606060006200039383600262000989565b620003a0906002620009ab565b67ffffffffffffffff811115620003bb57620003bb6200063d565b6040519080825280601f01601f191660200182016040528015620003e6576020820181803683370190505b509050600360fc1b81600081518110620004045762000404620009c1565b60200101906001600160f81b031916908160001a905350600f60fb1b81600181518110620004365762000436620009c1565b60200101906001600160f81b031916908160001a90535060006200045c84600262000989565b62000469906001620009ab565b90505b6001811115620004eb576f181899199a1a9b1b9c1cb0b131b232b360811b85600f1660108110620004a157620004a1620009c1565b1a60f81b828281518110620004ba57620004ba620009c1565b60200101906001600160f81b031916908160001a90535060049490941c93620004e381620009d7565b90506200046c565b5083156200053f5760405162461bcd60e51b815260206004820181905260248201527f537472696e67733a20686578206c656e67746820696e73756666696369656e74604482015260640160405180910390fd5b9392505050565b610f8d80620009f283390190565b6000602082840312156200056757600080fd5b5035919050565b60005b838110156200058b57818101518382015260200162000571565b50506000910152565b60008151808452620005ae8160208601602086016200056e565b601f01601f19169290920160200192915050565b6020815260006200053f602083018462000594565b6000602080830181845280855180835260408601915060408160051b870101925083870160005b828110156200063057603f198886030184526200061d85835162000594565b94509285019290850190600101620005fe565b5092979650505050505050565b634e487b7160e01b600052604160045260246000fd5b803561ffff811681146200066657600080fd5b919050565b6000806000606084860312156200068157600080fd5b833567ffffffffffffffff808211156200069a57600080fd5b818601915086601f830112620006af57600080fd5b813581811115620006c457620006c46200063d565b604051601f8201601f19908116603f01168101908382118183101715620006ef57620006ef6200063d565b816040528281528960208487010111156200070957600080fd5b826020860160208301376000602084830101528097505050505050620007326020850162000653565b9150620007426040850162000653565b90509250925092565b600181811c908216806200076057607f821691505b6020821081036200078157634e487b7160e01b600052602260045260246000fd5b50919050565b600061ffff80841680620007ab57634e487b7160e01b600052601260045260246000fd5b92169190910692915050565b608081526000620007cc608083018762000594565b61ffff95861660208401526001600160a01b03949094166040830152509216606090920191909152919050565b600082516200080d8184602087016200056e565b601d60f91b920191825250600101919050565b60008351620008348184602088016200056e565b8351908301906200084a8183602088016200056e565b01949350505050565b601f821115620008a157600081815260208120601f850160051c810160208610156200087c5750805b601f850160051c820191505b818110156200089d5782815560010162000888565b5050505b505050565b815167ffffffffffffffff811115620008c357620008c36200063d565b620008db81620008d484546200074b565b8462000853565b602080601f831160018114620009135760008415620008fa5750858301515b600019600386901b1c1916600185901b1785556200089d565b600085815260208120601f198616915b82811015620009445788860151825594840194600190910190840162000923565b5085821015620009635787850151600019600388901b60f8161c191681555b5050505050600190811b01905550565b634e487b7160e01b600052601160045260246000fd5b6000816000190483118215151615620009a657620009a662000973565b500290565b808201808211156200037c576200037c62000973565b634e487b7160e01b600052603260045260246000fd5b600081620009e957620009e962000973565b50600019019056fe6080604052600080556001805468ffffffffff0000ffff191666640000000000001790553480156200003057600080fd5b5060405162000f8d38038062000f8d8339810160408190526200005391620001ab565b600580546001600160a01b0319166001600160a01b0384161790556001805463ffff000019166201000061ffff861602179055600262000094858262000347565b50600580546001600160a01b039081166000908152600360205260408120805461ffff191660019081179091559254600480548086018255928190527f8a35acfbc15ff81a39ae7d344fd709f28e8600b4aa8c65c6b64bfe7fe36bd19b90920180546001600160a01b03191691909316179091558154640100000000900461ffff169190620001238362000413565b91906101000a81548161ffff021916908361ffff1602179055505080600160066101000a81548161ffff021916908361ffff1602179055505050505062000443565b634e487b7160e01b600052604160045260246000fd5b805161ffff811681146200018e57600080fd5b919050565b80516001600160a01b03811681146200018e57600080fd5b60008060008060808587031215620001c257600080fd5b84516001600160401b0380821115620001da57600080fd5b818701915087601f830112620001ef57600080fd5b81518181111562000204576200020462000165565b604051601f8201601f19908116603f011681019083821181831017156200022f576200022f62000165565b81604052828152602093508a848487010111156200024c57600080fd5b600091505b8282101562000270578482018401518183018501529083019062000251565b60008484830101528098505050506200028b8188016200017b565b945050506200029d6040860162000193565b9150620002ad606086016200017b565b905092959194509250565b600181811c90821680620002cd57607f821691505b602082108103620002ee57634e487b7160e01b600052602260045260246000fd5b50919050565b601f8211156200034257600081815260208120601f850160051c810160208610156200031d5750805b601f850160051c820191505b818110156200033e5782815560010162000329565b5050505b505050565b81516001600160401b0381111562000363576200036362000165565b6200037b81620003748454620002b8565b84620002f4565b602080601f831160018114620003b357600084156200039a5750858301515b600019600386901b1c1916600185901b1785556200033e565b600085815260208120601f198616915b82811015620003e457888601518255948401946001909101908401620003c3565b5085821015620004035787850151600019600388901b60f8161c191681555b5050505050600190811b01905550565b600061ffff8083168181036200043957634e487b7160e01b600052601160045260246000fd5b6001019392505050565b610b3a80620004536000396000f3fe6080604052600436106100915760003560e01c8063785ef29d11610059578063785ef29d1461013d5780639b3de49b1461015d578063bee40f881461017d578063ce46e04614610185578063efded147146101aa57600080fd5b806307f104151461009657806312065fe0146100d0578063266d02a1146100eb5780634051ddac146101025780634217df1214610128575b600080fd5b3480156100a257600080fd5b506001546100b890600160201b900461ffff1681565b60405161ffff90911681526020015b60405180910390f35b3480156100dc57600080fd5b506040514781526020016100c7565b3480156100f757600080fd5b506101006101ce565b005b34801561010e57600080fd5b506101176102a6565b6040516100c7959493929190610894565b34801561013457600080fd5b50610100610388565b34801561014957600080fd5b50610100610158366004610919565b61048a565b34801561016957600080fd5b50610100610178366004610949565b6105c1565b610100610637565b34801561019157600080fd5b5061019a6106f1565b60405190151581526020016100c7565b3480156101b657600080fd5b506101bf61071d565b6040516100c79392919061096b565b60015462010000810461ffff908116600160201b90920416146101f057600080fd5b3360009081526003602052604090205461ffff1661020d57600080fd5b6001543360009081526003602052604090205461ffff90811691161461023257600080fd5b60008054604051339282156108fc02929190818181858888f19350505050158015610261573d6000803e3d6000fd5b50336000908152600360205260409020546102819061ffff166001610a1a565b336000908152600360205260409020805461ffff191661ffff92909216919091179055565b60015460055460028054600093849384936060938593600160201b810461ffff9081169462010000830490911693600160401b90920460ff16926001600160a01b039091169082906102f790610a3c565b80601f016020809104026020016040519081016040528092919081815260200182805461032390610a3c565b80156103705780601f1061034557610100808354040283529160200191610370565b820191906000526020600020905b81548152906001019060200180831161035357829003601f168201915b50505050509150945094509450945094509091929394565b60015461ffff600160201b820481166201000090920416036103a957600080fd5b3360009081526003602052604090205461ffff16156103c757600080fd5b336000818152600360205260408120805461ffff19166001908117909155600480548083018255928190527f8a35acfbc15ff81a39ae7d344fd709f28e8600b4aa8c65c6b64bfe7fe36bd19b90920180546001600160a01b0319169093179092558154600160201b900461ffff16919061044083610a76565b82546101009290920a61ffff8181021990931691831602179091556001805460ff60401b1981166201000082048416600160201b90920490931614600160401b0291909117905550565b6005546001600160a01b031633146104a157600080fd5b6005546001600160a01b038083169116036104bb57600080fd5b60015462010000810461ffff908116600160201b90920416146104dd57600080fd5b6001600160a01b03811660009081526003602052604090205461ffff1661050357600080fd5b6001546001600160a01b03821660009081526003602052604090205461ffff90811691161461053157600080fd5b600080546040516001600160a01b0384169282156108fc02929190818181858888f19350505050158015610569573d6000803e3d6000fd5b506001600160a01b0381166000908152600360205260409020546105929061ffff166001610a1a565b6001600160a01b03919091166000908152600360205260409020805461ffff191661ffff909216919091179055565b6005546001600160a01b031633146105d857600080fd5b60015462010000810461ffff908116600160201b90920416146105fa57600080fd5b801515600160089054906101000a900460ff1615150361061957600080fd5b60018054911515600160401b0260ff60401b19909216919091179055565b600154600160401b900460ff1661064d57600080fd5b6000341161065a57600080fd5b47600054118061066a5750600054155b61067357600080fd5b3360009081526003602052604090205461ffff161561069157600080fd5b6001805461ffff169060006106a583610a76565b91906101000a81548161ffff021916908361ffff160217905550506064600160069054906101000a900461ffff1661ffff16346106e29190610a97565b6106ec9190610ab6565b600055565b600154600090600160401b900460ff16801561071857504760005411806107185750600054155b905090565b60015460609081906000908190600160201b900461ffff1667ffffffffffffffff81111561074d5761074d610ad8565b604051908082528060200260200182016040528015610776578160200160208202803683370190505b50905060005b60015461ffff600160201b90910481169082161015610817576003600060048361ffff16815481106107b0576107b0610aee565b60009182526020808320909101546001600160a01b03168352820192909252604001902054825161ffff9182169184919084169081106107f2576107f2610aee565b61ffff909216602092830291909101909101528061080f81610a76565b91505061077c565b50600481600160009054906101000a900461ffff168280548060200260200160405190810160405280929190818152602001828054801561088157602002820191906000526020600020905b81546001600160a01b03168152600190910190602001808311610863575b5050505050925093509350935050909192565b600061ffff8088168352602081881681850152861515604085015260a06060850152855191508160a085015260005b828110156108df5786810182015185820160c0015281016108c3565b5050600060c0828501015260c0601f19601f83011684010191505061090f60808301846001600160a01b03169052565b9695505050505050565b60006020828403121561092b57600080fd5b81356001600160a01b038116811461094257600080fd5b9392505050565b60006020828403121561095b57600080fd5b8135801515811461094257600080fd5b606080825284519082018190526000906020906080840190828801845b828110156109ad5781516001600160a01b031684529284019290840190600101610988565b5050508381038285015285518082528683019183019060005b818110156109e657835161ffff16835292840192918401916001016109c6565b505061ffff8616604086015292506109fc915050565b949350505050565b634e487b7160e01b600052601160045260246000fd5b61ffff818116838216019080821115610a3557610a35610a04565b5092915050565b600181811c90821680610a5057607f821691505b602082108103610a7057634e487b7160e01b600052602260045260246000fd5b50919050565b600061ffff808316818103610a8d57610a8d610a04565b6001019392505050565b6000816000190483118215151615610ab157610ab1610a04565b500290565b600082610ad357634e487b7160e01b600052601260045260246000fd5b500490565b634e487b7160e01b600052604160045260246000fd5b634e487b7160e01b600052603260045260246000fdfea264697066735822122060f5668606445aeb135416befd7ab85d52ec358932544a7036b7b7131e5f253764736f6c63430008100033a2646970667358221220a2357b49aa9910c8c49314c75c4a95accb726e78846a68fef2b5a37767090b4764736f6c63430008100033",
    "sourcePath": "/home/hubhopper/dapps/teamwork/ethereum/contracts/Teamwork.sol",
    "compiler": {
        "name": "solc",
        "version": "0.8.16+commit.07a7930e"
    },
    "functionHashes": {
        "createTeam(string,uint16,uint16)": "f9c2c61b",
        "getTeamworks()": "9099b131",
        "teams(uint256)": "3ed2b77a"
    },
    "gasEstimates": {
        "creation": {
            "codeDepositCost": "1316000",
            "executionCost": "1369",
            "totalCost": "1317369"
        },
        "external": {
            "createTeam(string,uint16,uint16)": "infinite",
            "getTeamworks()": "infinite",
            "teams(uint256)": "infinite"
        }
    }
}