{
    "contractName": "Teamwork",
    "abi": [
        {
            "inputs": [
                {
                    "internalType": "string",
                    "name": "name",
                    "type": "string"
                },
                {
                    "internalType": "uint16",
                    "name": "count",
                    "type": "uint16"
                },
                {
                    "internalType": "address",
                    "name": "creator",
                    "type": "address"
                },
                {
                    "internalType": "uint16",
                    "name": "percent",
                    "type": "uint16"
                }
            ],
            "stateMutability": "nonpayable",
            "type": "constructor"
        },
        {
            "inputs": [
                {
                    "internalType": "bool",
                    "name": "statusToSet",
                    "type": "bool"
                }
            ],
            "name": "changeStatus",
            "outputs": [],
            "stateMutability": "nonpayable",
            "type": "function"
        },
        {
            "inputs": [],
            "name": "getBalance",
            "outputs": [
                {
                    "internalType": "uint256",
                    "name": "",
                    "type": "uint256"
                }
            ],
            "stateMutability": "view",
            "type": "function"
        },
        {
            "inputs": [],
            "name": "getMyWage",
            "outputs": [],
            "stateMutability": "nonpayable",
            "type": "function"
        },
        {
            "inputs": [],
            "name": "getSummary",
            "outputs": [
                {
                    "internalType": "uint16",
                    "name": "",
                    "type": "uint16"
                },
                {
                    "internalType": "uint16",
                    "name": "",
                    "type": "uint16"
                },
                {
                    "internalType": "bool",
                    "name": "",
                    "type": "bool"
                },
                {
                    "internalType": "string",
                    "name": "",
                    "type": "string"
                },
                {
                    "internalType": "address",
                    "name": "",
                    "type": "address"
                }
            ],
            "stateMutability": "view",
            "type": "function"
        },
        {
            "inputs": [],
            "name": "getTeamMembers",
            "outputs": [
                {
                    "internalType": "address[]",
                    "name": "",
                    "type": "address[]"
                },
                {
                    "internalType": "uint16[]",
                    "name": "",
                    "type": "uint16[]"
                },
                {
                    "internalType": "uint16",
                    "name": "",
                    "type": "uint16"
                }
            ],
            "stateMutability": "view",
            "type": "function"
        },
        {
            "inputs": [],
            "name": "isPayable",
            "outputs": [
                {
                    "internalType": "bool",
                    "name": "",
                    "type": "bool"
                }
            ],
            "stateMutability": "view",
            "type": "function"
        },
        {
            "inputs": [],
            "name": "membersEntered",
            "outputs": [
                {
                    "internalType": "uint16",
                    "name": "",
                    "type": "uint16"
                }
            ],
            "stateMutability": "view",
            "type": "function"
        },
        {
            "inputs": [],
            "name": "payForServices",
            "outputs": [],
            "stateMutability": "payable",
            "type": "function"
        },
        {
            "inputs": [],
            "name": "registerAsMember",
            "outputs": [],
            "stateMutability": "nonpayable",
            "type": "function"
        },
        {
            "inputs": [
                {
                    "internalType": "address",
                    "name": "teamMember",
                    "type": "address"
                }
            ],
            "name": "sendWage",
            "outputs": [],
            "stateMutability": "nonpayable",
            "type": "function"
        }
    ],
    "bytecode": "6080604052600080556001805468ffffffffff0000ffff191666640000000000001790553480156200003057600080fd5b5060405162000f8d38038062000f8d8339810160408190526200005391620001ab565b600580546001600160a01b0319166001600160a01b0384161790556001805463ffff000019166201000061ffff861602179055600262000094858262000347565b50600580546001600160a01b039081166000908152600360205260408120805461ffff191660019081179091559254600480548086018255928190527f8a35acfbc15ff81a39ae7d344fd709f28e8600b4aa8c65c6b64bfe7fe36bd19b90920180546001600160a01b03191691909316179091558154640100000000900461ffff169190620001238362000413565b91906101000a81548161ffff021916908361ffff1602179055505080600160066101000a81548161ffff021916908361ffff1602179055505050505062000443565b634e487b7160e01b600052604160045260246000fd5b805161ffff811681146200018e57600080fd5b919050565b80516001600160a01b03811681146200018e57600080fd5b60008060008060808587031215620001c257600080fd5b84516001600160401b0380821115620001da57600080fd5b818701915087601f830112620001ef57600080fd5b81518181111562000204576200020462000165565b604051601f8201601f19908116603f011681019083821181831017156200022f576200022f62000165565b81604052828152602093508a848487010111156200024c57600080fd5b600091505b8282101562000270578482018401518183018501529083019062000251565b60008484830101528098505050506200028b8188016200017b565b945050506200029d6040860162000193565b9150620002ad606086016200017b565b905092959194509250565b600181811c90821680620002cd57607f821691505b602082108103620002ee57634e487b7160e01b600052602260045260246000fd5b50919050565b601f8211156200034257600081815260208120601f850160051c810160208610156200031d5750805b601f850160051c820191505b818110156200033e5782815560010162000329565b5050505b505050565b81516001600160401b0381111562000363576200036362000165565b6200037b81620003748454620002b8565b84620002f4565b602080601f831160018114620003b357600084156200039a5750858301515b600019600386901b1c1916600185901b1785556200033e565b600085815260208120601f198616915b82811015620003e457888601518255948401946001909101908401620003c3565b5085821015620004035787850151600019600388901b60f8161c191681555b5050505050600190811b01905550565b600061ffff8083168181036200043957634e487b7160e01b600052601160045260246000fd5b6001019392505050565b610b3a80620004536000396000f3fe6080604052600436106100915760003560e01c8063785ef29d11610059578063785ef29d1461013d5780639b3de49b1461015d578063bee40f881461017d578063ce46e04614610185578063efded147146101aa57600080fd5b806307f104151461009657806312065fe0146100d0578063266d02a1146100eb5780634051ddac146101025780634217df1214610128575b600080fd5b3480156100a257600080fd5b506001546100b890600160201b900461ffff1681565b60405161ffff90911681526020015b60405180910390f35b3480156100dc57600080fd5b506040514781526020016100c7565b3480156100f757600080fd5b506101006101ce565b005b34801561010e57600080fd5b506101176102a6565b6040516100c7959493929190610894565b34801561013457600080fd5b50610100610388565b34801561014957600080fd5b50610100610158366004610919565b61048a565b34801561016957600080fd5b50610100610178366004610949565b6105c1565b610100610637565b34801561019157600080fd5b5061019a6106f1565b60405190151581526020016100c7565b3480156101b657600080fd5b506101bf61071d565b6040516100c79392919061096b565b60015462010000810461ffff908116600160201b90920416146101f057600080fd5b3360009081526003602052604090205461ffff1661020d57600080fd5b6001543360009081526003602052604090205461ffff90811691161461023257600080fd5b60008054604051339282156108fc02929190818181858888f19350505050158015610261573d6000803e3d6000fd5b50336000908152600360205260409020546102819061ffff166001610a1a565b336000908152600360205260409020805461ffff191661ffff92909216919091179055565b60015460055460028054600093849384936060938593600160201b810461ffff9081169462010000830490911693600160401b90920460ff16926001600160a01b039091169082906102f790610a3c565b80601f016020809104026020016040519081016040528092919081815260200182805461032390610a3c565b80156103705780601f1061034557610100808354040283529160200191610370565b820191906000526020600020905b81548152906001019060200180831161035357829003601f168201915b50505050509150945094509450945094509091929394565b60015461ffff600160201b820481166201000090920416036103a957600080fd5b3360009081526003602052604090205461ffff16156103c757600080fd5b336000818152600360205260408120805461ffff19166001908117909155600480548083018255928190527f8a35acfbc15ff81a39ae7d344fd709f28e8600b4aa8c65c6b64bfe7fe36bd19b90920180546001600160a01b0319169093179092558154600160201b900461ffff16919061044083610a76565b82546101009290920a61ffff8181021990931691831602179091556001805460ff60401b1981166201000082048416600160201b90920490931614600160401b0291909117905550565b6005546001600160a01b031633146104a157600080fd5b6005546001600160a01b038083169116036104bb57600080fd5b60015462010000810461ffff908116600160201b90920416146104dd57600080fd5b6001600160a01b03811660009081526003602052604090205461ffff1661050357600080fd5b6001546001600160a01b03821660009081526003602052604090205461ffff90811691161461053157600080fd5b600080546040516001600160a01b0384169282156108fc02929190818181858888f19350505050158015610569573d6000803e3d6000fd5b506001600160a01b0381166000908152600360205260409020546105929061ffff166001610a1a565b6001600160a01b03919091166000908152600360205260409020805461ffff191661ffff909216919091179055565b6005546001600160a01b031633146105d857600080fd5b60015462010000810461ffff908116600160201b90920416146105fa57600080fd5b801515600160089054906101000a900460ff1615150361061957600080fd5b60018054911515600160401b0260ff60401b19909216919091179055565b600154600160401b900460ff1661064d57600080fd5b6000341161065a57600080fd5b47600054118061066a5750600054155b61067357600080fd5b3360009081526003602052604090205461ffff161561069157600080fd5b6001805461ffff169060006106a583610a76565b91906101000a81548161ffff021916908361ffff160217905550506064600160069054906101000a900461ffff1661ffff16346106e29190610a97565b6106ec9190610ab6565b600055565b600154600090600160401b900460ff16801561071857504760005411806107185750600054155b905090565b60015460609081906000908190600160201b900461ffff1667ffffffffffffffff81111561074d5761074d610ad8565b604051908082528060200260200182016040528015610776578160200160208202803683370190505b50905060005b60015461ffff600160201b90910481169082161015610817576003600060048361ffff16815481106107b0576107b0610aee565b60009182526020808320909101546001600160a01b03168352820192909252604001902054825161ffff9182169184919084169081106107f2576107f2610aee565b61ffff909216602092830291909101909101528061080f81610a76565b91505061077c565b50600481600160009054906101000a900461ffff168280548060200260200160405190810160405280929190818152602001828054801561088157602002820191906000526020600020905b81546001600160a01b03168152600190910190602001808311610863575b5050505050925093509350935050909192565b600061ffff8088168352602081881681850152861515604085015260a06060850152855191508160a085015260005b828110156108df5786810182015185820160c0015281016108c3565b5050600060c0828501015260c0601f19601f83011684010191505061090f60808301846001600160a01b03169052565b9695505050505050565b60006020828403121561092b57600080fd5b81356001600160a01b038116811461094257600080fd5b9392505050565b60006020828403121561095b57600080fd5b8135801515811461094257600080fd5b606080825284519082018190526000906020906080840190828801845b828110156109ad5781516001600160a01b031684529284019290840190600101610988565b5050508381038285015285518082528683019183019060005b818110156109e657835161ffff16835292840192918401916001016109c6565b505061ffff8616604086015292506109fc915050565b949350505050565b634e487b7160e01b600052601160045260246000fd5b61ffff818116838216019080821115610a3557610a35610a04565b5092915050565b600181811c90821680610a5057607f821691505b602082108103610a7057634e487b7160e01b600052602260045260246000fd5b50919050565b600061ffff808316818103610a8d57610a8d610a04565b6001019392505050565b6000816000190483118215151615610ab157610ab1610a04565b500290565b600082610ad357634e487b7160e01b600052601260045260246000fd5b500490565b634e487b7160e01b600052604160045260246000fd5b634e487b7160e01b600052603260045260246000fdfea264697066735822122060f5668606445aeb135416befd7ab85d52ec358932544a7036b7b7131e5f253764736f6c63430008100033",
    "sourcePath": "/home/hubhopper/dapps/teamwork/ethereum/contracts/Teamwork.sol",
    "compiler": {
        "name": "solc",
        "version": "0.8.16+commit.07a7930e"
    },
    "functionHashes": {
        "changeStatus(bool)": "9b3de49b",
        "getBalance()": "12065fe0",
        "getMyWage()": "266d02a1",
        "getSummary()": "4051ddac",
        "getTeamMembers()": "efded147",
        "isPayable()": "ce46e046",
        "membersEntered()": "07f10415",
        "payForServices()": "bee40f88",
        "registerAsMember()": "4217df12",
        "sendWage(address)": "785ef29d"
    },
    "gasEstimates": {
        "creation": {
            "codeDepositCost": "574800",
            "executionCost": "infinite",
            "totalCost": "infinite"
        },
        "external": {
            "changeStatus(bool)": "31069",
            "getBalance()": "202",
            "getMyWage()": "infinite",
            "getSummary()": "infinite",
            "getTeamMembers()": "infinite",
            "isPayable()": "6670",
            "membersEntered()": "2320",
            "payForServices()": "59692",
            "registerAsMember()": "128215",
            "sendWage(address)": "infinite"
        }
    }
}