{"abi":[{"inputs":[{"internalType":"string","name":"name","type":"string"},{"internalType":"uint16","name":"count","type":"uint16"},{"internalType":"address","name":"creator","type":"address"},{"internalType":"uint16","name":"percent","type":"uint16"}],"stateMutability":"nonpayable","type":"constructor"},{"inputs":[{"internalType":"bool","name":"statusToSet","type":"bool"}],"name":"changeStatus","outputs":[],"stateMutability":"nonpayable","type":"function"},{"inputs":[],"name":"getBalance","outputs":[{"internalType":"uint256","name":"","type":"uint256"}],"stateMutability":"view","type":"function"},{"inputs":[],"name":"getMyWage","outputs":[],"stateMutability":"nonpayable","type":"function"},{"inputs":[],"name":"getSummary","outputs":[{"internalType":"uint16","name":"","type":"uint16"},{"internalType":"uint16","name":"","type":"uint16"},{"internalType":"bool","name":"","type":"bool"},{"internalType":"string","name":"","type":"string"},{"internalType":"address","name":"","type":"address"}],"stateMutability":"view","type":"function"},{"inputs":[],"name":"getTeamMembers","outputs":[{"internalType":"address[]","name":"","type":"address[]"},{"internalType":"uint16[]","name":"","type":"uint16[]"},{"internalType":"uint16","name":"","type":"uint16"},{"internalType":"address","name":"","type":"address"}],"stateMutability":"view","type":"function"},{"inputs":[],"name":"isPayable","outputs":[{"internalType":"bool","name":"","type":"bool"}],"stateMutability":"view","type":"function"},{"inputs":[],"name":"membersEntered","outputs":[{"internalType":"uint16","name":"","type":"uint16"}],"stateMutability":"view","type":"function"},{"inputs":[],"name":"payForServices","outputs":[],"stateMutability":"payable","type":"function"},{"inputs":[],"name":"registerAsMember","outputs":[],"stateMutability":"nonpayable","type":"function"},{"inputs":[{"internalType":"address","name":"teamMember","type":"address"}],"name":"sendWage","outputs":[],"stateMutability":"nonpayable","type":"function"}],"devdoc":{"kind":"dev","methods":{},"version":1},"evm":{"assembly":"    /* \"Teamwork.sol\":1023:5987  contract Teamwork {... */\n  mstore(0x40, 0x80)\n    /* \"Teamwork.sol\":1259:1260  0 */\n  0x00\n    /* \"Teamwork.sol\":1230:1260  uint256 private currentPay = 0 */\n  dup1\n  sstore\n    /* \"Teamwork.sol\":1297:1298  0 */\n  0x00\n    /* \"Teamwork.sol\":1266:1298  uint16 private paymentNumber = 0 */\n  0x01\n  exp(0x0100, 0x00)\n  dup2\n  sload\n  dup2\n  0xffff\n  mul\n  not\n  and\n  swap1\n  dup4\n  0xffff\n  and\n  mul\n  or\n  swap1\n  sstore\n  pop\n    /* \"Teamwork.sol\":1396:1397  0 */\n  0x00\n    /* \"Teamwork.sol\":1365:1397  uint16 public membersEntered = 0 */\n  0x01\n  exp(0x0100, 0x04)\n  dup2\n  sload\n  dup2\n  0xffff\n  mul\n  not\n  and\n  swap1\n  dup4\n  0xffff\n  and\n  mul\n  or\n  swap1\n  sstore\n  pop\n    /* \"Teamwork.sol\":1449:1452  100 */\n  0x64\n    /* \"Teamwork.sol\":1417:1452  uint16 private percentDivided = 100 */\n  0x01\n  exp(0x0100, 0x06)\n  dup2\n  sload\n  dup2\n  0xffff\n  mul\n  not\n  and\n  swap1\n  dup4\n  0xffff\n  and\n  mul\n  or\n  swap1\n  sstore\n  pop\n    /* \"Teamwork.sol\":1550:1555  false */\n  0x00\n    /* \"Teamwork.sol\":1524:1555  bool private teamStatus = false */\n  0x01\n  exp(0x0100, 0x08)\n  dup2\n  sload\n  dup2\n  0xff\n  mul\n  not\n  and\n  swap1\n  dup4\n  iszero\n  iszero\n  mul\n  or\n  swap1\n  sstore\n  pop\n    /* \"Teamwork.sol\":1747:2132  constructor(... */\n  callvalue\n  dup1\n  iszero\n  tag_1\n  jumpi\n  0x00\n  dup1\n  revert\ntag_1:\n  pop\n  mload(0x40)\n  sub(codesize, bytecodeSize)\n  dup1\n  bytecodeSize\n  dup4\n  codecopy\n  dup2\n  dup2\n  add\n  0x40\n  mstore\n  dup2\n  add\n  swap1\n  tag_2\n  swap2\n  swap1\n  tag_3\n  jump\t// in\ntag_2:\n    /* \"Teamwork.sol\":1884:1891  creator */\n  dup2\n    /* \"Teamwork.sol\":1874:1881  manager */\n  0x05\n  0x00\n    /* \"Teamwork.sol\":1874:1891  manager = creator */\n  0x0100\n  exp\n  dup2\n  sload\n  dup2\n  0xffffffffffffffffffffffffffffffffffffffff\n  mul\n  not\n  and\n  swap1\n  dup4\n  0xffffffffffffffffffffffffffffffffffffffff\n  and\n  mul\n  or\n  swap1\n  sstore\n  pop\n    /* \"Teamwork.sol\":1916:1921  count */\n  dup3\n    /* \"Teamwork.sol\":1901:1913  totalMembers */\n  0x01\n  0x02\n    /* \"Teamwork.sol\":1901:1921  totalMembers = count */\n  0x0100\n  exp\n  dup2\n  sload\n  dup2\n  0xffff\n  mul\n  not\n  and\n  swap1\n  dup4\n  0xffff\n  and\n  mul\n  or\n  swap1\n  sstore\n  pop\n    /* \"Teamwork.sol\":1942:1946  name */\n  dup4\n    /* \"Teamwork.sol\":1931:1939  teamName */\n  0x02\n    /* \"Teamwork.sol\":1931:1946  teamName = name */\n  swap1\n  dup1\n  mload\n  swap1\n  0x20\n  add\n  swap1\n  tag_6\n  swap3\n  swap2\n  swap1\n  tag_7\n  jump\t// in\ntag_6:\n  pop\n    /* \"Teamwork.sol\":2033:2034  1 */\n  0x01\n    /* \"Teamwork.sol\":2010:2021  teamMembers */\n  0x03\n    /* \"Teamwork.sol\":2010:2030  teamMembers[manager] */\n  0x00\n    /* \"Teamwork.sol\":2022:2029  manager */\n  0x05\n  0x00\n  swap1\n  sload\n  swap1\n  0x0100\n  exp\n  swap1\n  div\n  0xffffffffffffffffffffffffffffffffffffffff\n  and\n    /* \"Teamwork.sol\":2010:2030  teamMembers[manager] */\n  0xffffffffffffffffffffffffffffffffffffffff\n  and\n  0xffffffffffffffffffffffffffffffffffffffff\n  and\n  dup2\n  mstore\n  0x20\n  add\n  swap1\n  dup2\n  mstore\n  0x20\n  add\n  0x00\n  keccak256\n  0x00\n    /* \"Teamwork.sol\":2010:2034  teamMembers[manager] = 1 */\n  0x0100\n  exp\n  dup2\n  sload\n  dup2\n  0xffff\n  mul\n  not\n  and\n  swap1\n  dup4\n  0xffff\n  and\n  mul\n  or\n  swap1\n  sstore\n  pop\n    /* \"Teamwork.sol\":2044:2051  members */\n  0x04\n    /* \"Teamwork.sol\":2057:2064  manager */\n  0x05\n  0x00\n  swap1\n  sload\n  swap1\n  0x0100\n  exp\n  swap1\n  div\n  0xffffffffffffffffffffffffffffffffffffffff\n  and\n    /* \"Teamwork.sol\":2044:2065  members.push(manager) */\n  swap1\n  dup1\n  0x01\n  dup2\n  sload\n  add\n  dup1\n  dup3\n  sstore\n  dup1\n  swap2\n  pop\n  pop\n  0x01\n  swap1\n  sub\n  swap1\n  0x00\n  mstore\n  keccak256(0x00, 0x20)\n  add\n  0x00\n  swap1\n  swap2\n  swap1\n  swap2\n  swap1\n  swap2\n  0x0100\n  exp\n  dup2\n  sload\n  dup2\n  0xffffffffffffffffffffffffffffffffffffffff\n  mul\n  not\n  and\n  swap1\n  dup4\n  0xffffffffffffffffffffffffffffffffffffffff\n  and\n  mul\n  or\n  swap1\n  sstore\n  pop\n    /* \"Teamwork.sol\":2075:2089  membersEntered */\n  0x01\n  0x04\n    /* \"Teamwork.sol\":2075:2091  membersEntered++ */\n  dup2\n  dup2\n  swap1\n  sload\n  swap1\n  0x0100\n  exp\n  swap1\n  div\n  0xffff\n  and\n  dup1\n  swap3\n  swap2\n  swap1\n  tag_9\n  swap1\n  tag_10\n  jump\t// in\ntag_9:\n  swap2\n  swap1\n  0x0100\n  exp\n  dup2\n  sload\n  dup2\n  0xffff\n  mul\n  not\n  and\n  swap1\n  dup4\n  0xffff\n  and\n  mul\n  or\n  swap1\n  sstore\n  pop\n  pop\n    /* \"Teamwork.sol\":2118:2125  percent */\n  dup1\n    /* \"Teamwork.sol\":2101:2115  percentDivided */\n  0x01\n  0x06\n    /* \"Teamwork.sol\":2101:2125  percentDivided = percent */\n  0x0100\n  exp\n  dup2\n  sload\n  dup2\n  0xffff\n  mul\n  not\n  and\n  swap1\n  dup4\n  0xffff\n  and\n  mul\n  or\n  swap1\n  sstore\n  pop\n    /* \"Teamwork.sol\":1747:2132  constructor(... */\n  pop\n  pop\n  pop\n  pop\n    /* \"Teamwork.sol\":1023:5987  contract Teamwork {... */\n  jump(tag_11)\ntag_7:\n  dup3\n  dup1\n  sload\n  tag_12\n  swap1\n  tag_13\n  jump\t// in\ntag_12:\n  swap1\n  0x00\n  mstore\n  keccak256(0x00, 0x20)\n  swap1\n  0x1f\n  add\n  0x20\n  swap1\n  div\n  dup2\n  add\n  swap3\n  dup3\n  tag_15\n  jumpi\n  0x00\n  dup6\n  sstore\n  jump(tag_14)\ntag_15:\n  dup3\n  0x1f\n  lt\n  tag_16\n  jumpi\n  dup1\n  mload\n  not(0xff)\n  and\n  dup4\n  dup1\n  add\n  or\n  dup6\n  sstore\n  jump(tag_14)\ntag_16:\n  dup3\n  dup1\n  add\n  0x01\n  add\n  dup6\n  sstore\n  dup3\n  iszero\n  tag_14\n  jumpi\n  swap2\n  dup3\n  add\ntag_17:\n  dup3\n  dup2\n  gt\n  iszero\n  tag_18\n  jumpi\n  dup3\n  mload\n  dup3\n  sstore\n  swap2\n  0x20\n  add\n  swap2\n  swap1\n  0x01\n  add\n  swap1\n  jump(tag_17)\ntag_18:\ntag_14:\n  pop\n  swap1\n  pop\n  tag_19\n  swap2\n  swap1\n  tag_20\n  jump\t// in\ntag_19:\n  pop\n  swap1\n  jump\t// out\ntag_20:\ntag_21:\n  dup1\n  dup3\n  gt\n  iszero\n  tag_22\n  jumpi\n  0x00\n  dup2\n  0x00\n  swap1\n  sstore\n  pop\n  0x01\n  add\n  jump(tag_21)\ntag_22:\n  pop\n  swap1\n  jump\t// out\n    /* \"#utility.yul\":7:82   */\ntag_23:\n    /* \"#utility.yul\":40:46   */\n  0x00\n    /* \"#utility.yul\":73:75   */\n  0x40\n    /* \"#utility.yul\":67:76   */\n  mload\n    /* \"#utility.yul\":57:76   */\n  swap1\n  pop\n    /* \"#utility.yul\":7:82   */\n  swap1\n  jump\t// out\n    /* \"#utility.yul\":88:205   */\ntag_24:\n    /* \"#utility.yul\":197:198   */\n  0x00\n    /* \"#utility.yul\":194:195   */\n  dup1\n    /* \"#utility.yul\":187:199   */\n  revert\n    /* \"#utility.yul\":211:328   */\ntag_25:\n    /* \"#utility.yul\":320:321   */\n  0x00\n    /* \"#utility.yul\":317:318   */\n  dup1\n    /* \"#utility.yul\":310:322   */\n  revert\n    /* \"#utility.yul\":334:451   */\ntag_26:\n    /* \"#utility.yul\":443:444   */\n  0x00\n    /* \"#utility.yul\":440:441   */\n  dup1\n    /* \"#utility.yul\":433:445   */\n  revert\n    /* \"#utility.yul\":457:574   */\ntag_27:\n    /* \"#utility.yul\":566:567   */\n  0x00\n    /* \"#utility.yul\":563:564   */\n  dup1\n    /* \"#utility.yul\":556:568   */\n  revert\n    /* \"#utility.yul\":580:682   */\ntag_28:\n    /* \"#utility.yul\":621:627   */\n  0x00\n    /* \"#utility.yul\":672:674   */\n  0x1f\n    /* \"#utility.yul\":668:675   */\n  not\n    /* \"#utility.yul\":663:665   */\n  0x1f\n    /* \"#utility.yul\":656:661   */\n  dup4\n    /* \"#utility.yul\":652:666   */\n  add\n    /* \"#utility.yul\":648:676   */\n  and\n    /* \"#utility.yul\":638:676   */\n  swap1\n  pop\n    /* \"#utility.yul\":580:682   */\n  swap2\n  swap1\n  pop\n  jump\t// out\n    /* \"#utility.yul\":688:868   */\ntag_29:\n    /* \"#utility.yul\":736:813   */\n  0x4e487b7100000000000000000000000000000000000000000000000000000000\n    /* \"#utility.yul\":733:734   */\n  0x00\n    /* \"#utility.yul\":726:814   */\n  mstore\n    /* \"#utility.yul\":833:837   */\n  0x41\n    /* \"#utility.yul\":830:831   */\n  0x04\n    /* \"#utility.yul\":823:838   */\n  mstore\n    /* \"#utility.yul\":857:861   */\n  0x24\n    /* \"#utility.yul\":854:855   */\n  0x00\n    /* \"#utility.yul\":847:862   */\n  revert\n    /* \"#utility.yul\":874:1155   */\ntag_30:\n    /* \"#utility.yul\":957:984   */\n  tag_54\n    /* \"#utility.yul\":979:983   */\n  dup3\n    /* \"#utility.yul\":957:984   */\n  tag_28\n  jump\t// in\ntag_54:\n    /* \"#utility.yul\":949:955   */\n  dup2\n    /* \"#utility.yul\":945:985   */\n  add\n    /* \"#utility.yul\":1087:1093   */\n  dup2\n    /* \"#utility.yul\":1075:1085   */\n  dup2\n    /* \"#utility.yul\":1072:1094   */\n  lt\n    /* \"#utility.yul\":1051:1069   */\n  0xffffffffffffffff\n    /* \"#utility.yul\":1039:1049   */\n  dup3\n    /* \"#utility.yul\":1036:1070   */\n  gt\n    /* \"#utility.yul\":1033:1095   */\n  or\n    /* \"#utility.yul\":1030:1118   */\n  iszero\n  tag_55\n  jumpi\n    /* \"#utility.yul\":1098:1116   */\n  tag_56\n  tag_29\n  jump\t// in\ntag_56:\n    /* \"#utility.yul\":1030:1118   */\ntag_55:\n    /* \"#utility.yul\":1138:1148   */\n  dup1\n    /* \"#utility.yul\":1134:1136   */\n  0x40\n    /* \"#utility.yul\":1127:1149   */\n  mstore\n    /* \"#utility.yul\":917:1155   */\n  pop\n    /* \"#utility.yul\":874:1155   */\n  pop\n  pop\n  jump\t// out\n    /* \"#utility.yul\":1161:1290   */\ntag_31:\n    /* \"#utility.yul\":1195:1201   */\n  0x00\n    /* \"#utility.yul\":1222:1242   */\n  tag_58\n  tag_23\n  jump\t// in\ntag_58:\n    /* \"#utility.yul\":1212:1242   */\n  swap1\n  pop\n    /* \"#utility.yul\":1251:1284   */\n  tag_59\n    /* \"#utility.yul\":1279:1283   */\n  dup3\n    /* \"#utility.yul\":1271:1277   */\n  dup3\n    /* \"#utility.yul\":1251:1284   */\n  tag_30\n  jump\t// in\ntag_59:\n    /* \"#utility.yul\":1161:1290   */\n  swap2\n  swap1\n  pop\n  jump\t// out\n    /* \"#utility.yul\":1296:1604   */\ntag_32:\n    /* \"#utility.yul\":1358:1362   */\n  0x00\n    /* \"#utility.yul\":1448:1466   */\n  0xffffffffffffffff\n    /* \"#utility.yul\":1440:1446   */\n  dup3\n    /* \"#utility.yul\":1437:1467   */\n  gt\n    /* \"#utility.yul\":1434:1490   */\n  iszero\n  tag_61\n  jumpi\n    /* \"#utility.yul\":1470:1488   */\n  tag_62\n  tag_29\n  jump\t// in\ntag_62:\n    /* \"#utility.yul\":1434:1490   */\ntag_61:\n    /* \"#utility.yul\":1508:1537   */\n  tag_63\n    /* \"#utility.yul\":1530:1536   */\n  dup3\n    /* \"#utility.yul\":1508:1537   */\n  tag_28\n  jump\t// in\ntag_63:\n    /* \"#utility.yul\":1500:1537   */\n  swap1\n  pop\n    /* \"#utility.yul\":1592:1596   */\n  0x20\n    /* \"#utility.yul\":1586:1590   */\n  dup2\n    /* \"#utility.yul\":1582:1597   */\n  add\n    /* \"#utility.yul\":1574:1597   */\n  swap1\n  pop\n    /* \"#utility.yul\":1296:1604   */\n  swap2\n  swap1\n  pop\n  jump\t// out\n    /* \"#utility.yul\":1610:1917   */\ntag_33:\n    /* \"#utility.yul\":1678:1679   */\n  0x00\n    /* \"#utility.yul\":1688:1801   */\ntag_65:\n    /* \"#utility.yul\":1702:1708   */\n  dup4\n    /* \"#utility.yul\":1699:1700   */\n  dup2\n    /* \"#utility.yul\":1696:1709   */\n  lt\n    /* \"#utility.yul\":1688:1801   */\n  iszero\n  tag_67\n  jumpi\n    /* \"#utility.yul\":1787:1788   */\n  dup1\n    /* \"#utility.yul\":1782:1785   */\n  dup3\n    /* \"#utility.yul\":1778:1789   */\n  add\n    /* \"#utility.yul\":1772:1790   */\n  mload\n    /* \"#utility.yul\":1768:1769   */\n  dup2\n    /* \"#utility.yul\":1763:1766   */\n  dup5\n    /* \"#utility.yul\":1759:1770   */\n  add\n    /* \"#utility.yul\":1752:1791   */\n  mstore\n    /* \"#utility.yul\":1724:1726   */\n  0x20\n    /* \"#utility.yul\":1721:1722   */\n  dup2\n    /* \"#utility.yul\":1717:1727   */\n  add\n    /* \"#utility.yul\":1712:1727   */\n  swap1\n  pop\n    /* \"#utility.yul\":1688:1801   */\n  jump(tag_65)\ntag_67:\n    /* \"#utility.yul\":1819:1825   */\n  dup4\n    /* \"#utility.yul\":1816:1817   */\n  dup2\n    /* \"#utility.yul\":1813:1826   */\n  gt\n    /* \"#utility.yul\":1810:1911   */\n  iszero\n  tag_68\n  jumpi\n    /* \"#utility.yul\":1899:1900   */\n  0x00\n    /* \"#utility.yul\":1890:1896   */\n  dup5\n    /* \"#utility.yul\":1885:1888   */\n  dup5\n    /* \"#utility.yul\":1881:1897   */\n  add\n    /* \"#utility.yul\":1874:1901   */\n  mstore\n    /* \"#utility.yul\":1810:1911   */\ntag_68:\n    /* \"#utility.yul\":1659:1917   */\n  pop\n    /* \"#utility.yul\":1610:1917   */\n  pop\n  pop\n  pop\n  jump\t// out\n    /* \"#utility.yul\":1923:2344   */\ntag_34:\n    /* \"#utility.yul\":2012:2017   */\n  0x00\n    /* \"#utility.yul\":2037:2103   */\n  tag_70\n    /* \"#utility.yul\":2053:2102   */\n  tag_71\n    /* \"#utility.yul\":2095:2101   */\n  dup5\n    /* \"#utility.yul\":2053:2102   */\n  tag_32\n  jump\t// in\ntag_71:\n    /* \"#utility.yul\":2037:2103   */\n  tag_31\n  jump\t// in\ntag_70:\n    /* \"#utility.yul\":2028:2103   */\n  swap1\n  pop\n    /* \"#utility.yul\":2126:2132   */\n  dup3\n    /* \"#utility.yul\":2119:2124   */\n  dup2\n    /* \"#utility.yul\":2112:2133   */\n  mstore\n    /* \"#utility.yul\":2164:2168   */\n  0x20\n    /* \"#utility.yul\":2157:2162   */\n  dup2\n    /* \"#utility.yul\":2153:2169   */\n  add\n    /* \"#utility.yul\":2202:2205   */\n  dup5\n    /* \"#utility.yul\":2193:2199   */\n  dup5\n    /* \"#utility.yul\":2188:2191   */\n  dup5\n    /* \"#utility.yul\":2184:2200   */\n  add\n    /* \"#utility.yul\":2181:2206   */\n  gt\n    /* \"#utility.yul\":2178:2290   */\n  iszero\n  tag_72\n  jumpi\n    /* \"#utility.yul\":2209:2288   */\n  tag_73\n  tag_27\n  jump\t// in\ntag_73:\n    /* \"#utility.yul\":2178:2290   */\ntag_72:\n    /* \"#utility.yul\":2299:2338   */\n  tag_74\n    /* \"#utility.yul\":2331:2337   */\n  dup5\n    /* \"#utility.yul\":2326:2329   */\n  dup3\n    /* \"#utility.yul\":2321:2324   */\n  dup6\n    /* \"#utility.yul\":2299:2338   */\n  tag_33\n  jump\t// in\ntag_74:\n    /* \"#utility.yul\":2018:2344   */\n  pop\n    /* \"#utility.yul\":1923:2344   */\n  swap4\n  swap3\n  pop\n  pop\n  pop\n  jump\t// out\n    /* \"#utility.yul\":2364:2719   */\ntag_35:\n    /* \"#utility.yul\":2431:2436   */\n  0x00\n    /* \"#utility.yul\":2480:2483   */\n  dup3\n    /* \"#utility.yul\":2473:2477   */\n  0x1f\n    /* \"#utility.yul\":2465:2471   */\n  dup4\n    /* \"#utility.yul\":2461:2478   */\n  add\n    /* \"#utility.yul\":2457:2484   */\n  slt\n    /* \"#utility.yul\":2447:2569   */\n  tag_76\n  jumpi\n    /* \"#utility.yul\":2488:2567   */\n  tag_77\n  tag_26\n  jump\t// in\ntag_77:\n    /* \"#utility.yul\":2447:2569   */\ntag_76:\n    /* \"#utility.yul\":2598:2604   */\n  dup2\n    /* \"#utility.yul\":2592:2605   */\n  mload\n    /* \"#utility.yul\":2623:2713   */\n  tag_78\n    /* \"#utility.yul\":2709:2712   */\n  dup5\n    /* \"#utility.yul\":2701:2707   */\n  dup3\n    /* \"#utility.yul\":2694:2698   */\n  0x20\n    /* \"#utility.yul\":2686:2692   */\n  dup7\n    /* \"#utility.yul\":2682:2699   */\n  add\n    /* \"#utility.yul\":2623:2713   */\n  tag_34\n  jump\t// in\ntag_78:\n    /* \"#utility.yul\":2614:2713   */\n  swap2\n  pop\n    /* \"#utility.yul\":2437:2719   */\n  pop\n    /* \"#utility.yul\":2364:2719   */\n  swap3\n  swap2\n  pop\n  pop\n  jump\t// out\n    /* \"#utility.yul\":2725:2814   */\ntag_36:\n    /* \"#utility.yul\":2761:2768   */\n  0x00\n    /* \"#utility.yul\":2801:2807   */\n  0xffff\n    /* \"#utility.yul\":2794:2799   */\n  dup3\n    /* \"#utility.yul\":2790:2808   */\n  and\n    /* \"#utility.yul\":2779:2808   */\n  swap1\n  pop\n    /* \"#utility.yul\":2725:2814   */\n  swap2\n  swap1\n  pop\n  jump\t// out\n    /* \"#utility.yul\":2820:2940   */\ntag_37:\n    /* \"#utility.yul\":2892:2915   */\n  tag_81\n    /* \"#utility.yul\":2909:2914   */\n  dup2\n    /* \"#utility.yul\":2892:2915   */\n  tag_36\n  jump\t// in\ntag_81:\n    /* \"#utility.yul\":2885:2890   */\n  dup2\n    /* \"#utility.yul\":2882:2916   */\n  eq\n    /* \"#utility.yul\":2872:2934   */\n  tag_82\n  jumpi\n    /* \"#utility.yul\":2930:2931   */\n  0x00\n    /* \"#utility.yul\":2927:2928   */\n  dup1\n    /* \"#utility.yul\":2920:2932   */\n  revert\n    /* \"#utility.yul\":2872:2934   */\ntag_82:\n    /* \"#utility.yul\":2820:2940   */\n  pop\n  jump\t// out\n    /* \"#utility.yul\":2946:3087   */\ntag_38:\n    /* \"#utility.yul\":3002:3007   */\n  0x00\n    /* \"#utility.yul\":3033:3039   */\n  dup2\n    /* \"#utility.yul\":3027:3040   */\n  mload\n    /* \"#utility.yul\":3018:3040   */\n  swap1\n  pop\n    /* \"#utility.yul\":3049:3081   */\n  tag_84\n    /* \"#utility.yul\":3075:3080   */\n  dup2\n    /* \"#utility.yul\":3049:3081   */\n  tag_37\n  jump\t// in\ntag_84:\n    /* \"#utility.yul\":2946:3087   */\n  swap3\n  swap2\n  pop\n  pop\n  jump\t// out\n    /* \"#utility.yul\":3093:3219   */\ntag_39:\n    /* \"#utility.yul\":3130:3137   */\n  0x00\n    /* \"#utility.yul\":3170:3212   */\n  0xffffffffffffffffffffffffffffffffffffffff\n    /* \"#utility.yul\":3163:3168   */\n  dup3\n    /* \"#utility.yul\":3159:3213   */\n  and\n    /* \"#utility.yul\":3148:3213   */\n  swap1\n  pop\n    /* \"#utility.yul\":3093:3219   */\n  swap2\n  swap1\n  pop\n  jump\t// out\n    /* \"#utility.yul\":3225:3321   */\ntag_40:\n    /* \"#utility.yul\":3262:3269   */\n  0x00\n    /* \"#utility.yul\":3291:3315   */\n  tag_87\n    /* \"#utility.yul\":3309:3314   */\n  dup3\n    /* \"#utility.yul\":3291:3315   */\n  tag_39\n  jump\t// in\ntag_87:\n    /* \"#utility.yul\":3280:3315   */\n  swap1\n  pop\n    /* \"#utility.yul\":3225:3321   */\n  swap2\n  swap1\n  pop\n  jump\t// out\n    /* \"#utility.yul\":3327:3449   */\ntag_41:\n    /* \"#utility.yul\":3400:3424   */\n  tag_89\n    /* \"#utility.yul\":3418:3423   */\n  dup2\n    /* \"#utility.yul\":3400:3424   */\n  tag_40\n  jump\t// in\ntag_89:\n    /* \"#utility.yul\":3393:3398   */\n  dup2\n    /* \"#utility.yul\":3390:3425   */\n  eq\n    /* \"#utility.yul\":3380:3443   */\n  tag_90\n  jumpi\n    /* \"#utility.yul\":3439:3440   */\n  0x00\n    /* \"#utility.yul\":3436:3437   */\n  dup1\n    /* \"#utility.yul\":3429:3441   */\n  revert\n    /* \"#utility.yul\":3380:3443   */\ntag_90:\n    /* \"#utility.yul\":3327:3449   */\n  pop\n  jump\t// out\n    /* \"#utility.yul\":3455:3598   */\ntag_42:\n    /* \"#utility.yul\":3512:3517   */\n  0x00\n    /* \"#utility.yul\":3543:3549   */\n  dup2\n    /* \"#utility.yul\":3537:3550   */\n  mload\n    /* \"#utility.yul\":3528:3550   */\n  swap1\n  pop\n    /* \"#utility.yul\":3559:3592   */\n  tag_92\n    /* \"#utility.yul\":3586:3591   */\n  dup2\n    /* \"#utility.yul\":3559:3592   */\n  tag_41\n  jump\t// in\ntag_92:\n    /* \"#utility.yul\":3455:3598   */\n  swap3\n  swap2\n  pop\n  pop\n  jump\t// out\n    /* \"#utility.yul\":3604:4593   */\ntag_3:\n    /* \"#utility.yul\":3709:3715   */\n  0x00\n    /* \"#utility.yul\":3717:3723   */\n  dup1\n    /* \"#utility.yul\":3725:3731   */\n  0x00\n    /* \"#utility.yul\":3733:3739   */\n  dup1\n    /* \"#utility.yul\":3782:3785   */\n  0x80\n    /* \"#utility.yul\":3770:3779   */\n  dup6\n    /* \"#utility.yul\":3761:3768   */\n  dup8\n    /* \"#utility.yul\":3757:3780   */\n  sub\n    /* \"#utility.yul\":3753:3786   */\n  slt\n    /* \"#utility.yul\":3750:3870   */\n  iszero\n  tag_94\n  jumpi\n    /* \"#utility.yul\":3789:3868   */\n  tag_95\n  tag_24\n  jump\t// in\ntag_95:\n    /* \"#utility.yul\":3750:3870   */\ntag_94:\n    /* \"#utility.yul\":3930:3931   */\n  0x00\n    /* \"#utility.yul\":3919:3928   */\n  dup6\n    /* \"#utility.yul\":3915:3932   */\n  add\n    /* \"#utility.yul\":3909:3933   */\n  mload\n    /* \"#utility.yul\":3960:3978   */\n  0xffffffffffffffff\n    /* \"#utility.yul\":3952:3958   */\n  dup2\n    /* \"#utility.yul\":3949:3979   */\n  gt\n    /* \"#utility.yul\":3946:4063   */\n  iszero\n  tag_96\n  jumpi\n    /* \"#utility.yul\":3982:4061   */\n  tag_97\n  tag_25\n  jump\t// in\ntag_97:\n    /* \"#utility.yul\":3946:4063   */\ntag_96:\n    /* \"#utility.yul\":4087:4161   */\n  tag_98\n    /* \"#utility.yul\":4153:4160   */\n  dup8\n    /* \"#utility.yul\":4144:4150   */\n  dup3\n    /* \"#utility.yul\":4133:4142   */\n  dup9\n    /* \"#utility.yul\":4129:4151   */\n  add\n    /* \"#utility.yul\":4087:4161   */\n  tag_35\n  jump\t// in\ntag_98:\n    /* \"#utility.yul\":4077:4161   */\n  swap5\n  pop\n    /* \"#utility.yul\":3880:4171   */\n  pop\n    /* \"#utility.yul\":4210:4212   */\n  0x20\n    /* \"#utility.yul\":4236:4299   */\n  tag_99\n    /* \"#utility.yul\":4291:4298   */\n  dup8\n    /* \"#utility.yul\":4282:4288   */\n  dup3\n    /* \"#utility.yul\":4271:4280   */\n  dup9\n    /* \"#utility.yul\":4267:4289   */\n  add\n    /* \"#utility.yul\":4236:4299   */\n  tag_38\n  jump\t// in\ntag_99:\n    /* \"#utility.yul\":4226:4299   */\n  swap4\n  pop\n    /* \"#utility.yul\":4181:4309   */\n  pop\n    /* \"#utility.yul\":4348:4350   */\n  0x40\n    /* \"#utility.yul\":4374:4438   */\n  tag_100\n    /* \"#utility.yul\":4430:4437   */\n  dup8\n    /* \"#utility.yul\":4421:4427   */\n  dup3\n    /* \"#utility.yul\":4410:4419   */\n  dup9\n    /* \"#utility.yul\":4406:4428   */\n  add\n    /* \"#utility.yul\":4374:4438   */\n  tag_42\n  jump\t// in\ntag_100:\n    /* \"#utility.yul\":4364:4438   */\n  swap3\n  pop\n    /* \"#utility.yul\":4319:4448   */\n  pop\n    /* \"#utility.yul\":4487:4489   */\n  0x60\n    /* \"#utility.yul\":4513:4576   */\n  tag_101\n    /* \"#utility.yul\":4568:4575   */\n  dup8\n    /* \"#utility.yul\":4559:4565   */\n  dup3\n    /* \"#utility.yul\":4548:4557   */\n  dup9\n    /* \"#utility.yul\":4544:4566   */\n  add\n    /* \"#utility.yul\":4513:4576   */\n  tag_38\n  jump\t// in\ntag_101:\n    /* \"#utility.yul\":4503:4576   */\n  swap2\n  pop\n    /* \"#utility.yul\":4458:4586   */\n  pop\n    /* \"#utility.yul\":3604:4593   */\n  swap3\n  swap6\n  swap2\n  swap5\n  pop\n  swap3\n  pop\n  jump\t// out\n    /* \"#utility.yul\":4599:4779   */\ntag_43:\n    /* \"#utility.yul\":4647:4724   */\n  0x4e487b7100000000000000000000000000000000000000000000000000000000\n    /* \"#utility.yul\":4644:4645   */\n  0x00\n    /* \"#utility.yul\":4637:4725   */\n  mstore\n    /* \"#utility.yul\":4744:4748   */\n  0x11\n    /* \"#utility.yul\":4741:4742   */\n  0x04\n    /* \"#utility.yul\":4734:4749   */\n  mstore\n    /* \"#utility.yul\":4768:4772   */\n  0x24\n    /* \"#utility.yul\":4765:4766   */\n  0x00\n    /* \"#utility.yul\":4758:4773   */\n  revert\n    /* \"#utility.yul\":4785:4956   */\ntag_10:\n    /* \"#utility.yul\":4823:4826   */\n  0x00\n    /* \"#utility.yul\":4846:4869   */\n  tag_104\n    /* \"#utility.yul\":4863:4868   */\n  dup3\n    /* \"#utility.yul\":4846:4869   */\n  tag_36\n  jump\t// in\ntag_104:\n    /* \"#utility.yul\":4837:4869   */\n  swap2\n  pop\n    /* \"#utility.yul\":4891:4897   */\n  0xffff\n    /* \"#utility.yul\":4884:4889   */\n  dup3\n    /* \"#utility.yul\":4881:4898   */\n  eq\n    /* \"#utility.yul\":4878:4921   */\n  iszero\n  tag_105\n  jumpi\n    /* \"#utility.yul\":4901:4919   */\n  tag_106\n  tag_43\n  jump\t// in\ntag_106:\n    /* \"#utility.yul\":4878:4921   */\ntag_105:\n    /* \"#utility.yul\":4948:4949   */\n  0x01\n    /* \"#utility.yul\":4941:4946   */\n  dup3\n    /* \"#utility.yul\":4937:4950   */\n  add\n    /* \"#utility.yul\":4930:4950   */\n  swap1\n  pop\n    /* \"#utility.yul\":4785:4956   */\n  swap2\n  swap1\n  pop\n  jump\t// out\n    /* \"#utility.yul\":4962:5142   */\ntag_44:\n    /* \"#utility.yul\":5010:5087   */\n  0x4e487b7100000000000000000000000000000000000000000000000000000000\n    /* \"#utility.yul\":5007:5008   */\n  0x00\n    /* \"#utility.yul\":5000:5088   */\n  mstore\n    /* \"#utility.yul\":5107:5111   */\n  0x22\n    /* \"#utility.yul\":5104:5105   */\n  0x04\n    /* \"#utility.yul\":5097:5112   */\n  mstore\n    /* \"#utility.yul\":5131:5135   */\n  0x24\n    /* \"#utility.yul\":5128:5129   */\n  0x00\n    /* \"#utility.yul\":5121:5136   */\n  revert\n    /* \"#utility.yul\":5148:5468   */\ntag_13:\n    /* \"#utility.yul\":5192:5198   */\n  0x00\n    /* \"#utility.yul\":5229:5230   */\n  0x02\n    /* \"#utility.yul\":5223:5227   */\n  dup3\n    /* \"#utility.yul\":5219:5231   */\n  div\n    /* \"#utility.yul\":5209:5231   */\n  swap1\n  pop\n    /* \"#utility.yul\":5276:5277   */\n  0x01\n    /* \"#utility.yul\":5270:5274   */\n  dup3\n    /* \"#utility.yul\":5266:5278   */\n  and\n    /* \"#utility.yul\":5297:5315   */\n  dup1\n    /* \"#utility.yul\":5287:5368   */\n  tag_109\n  jumpi\n    /* \"#utility.yul\":5353:5357   */\n  0x7f\n    /* \"#utility.yul\":5345:5351   */\n  dup3\n    /* \"#utility.yul\":5341:5358   */\n  and\n    /* \"#utility.yul\":5331:5358   */\n  swap2\n  pop\n    /* \"#utility.yul\":5287:5368   */\ntag_109:\n    /* \"#utility.yul\":5415:5417   */\n  0x20\n    /* \"#utility.yul\":5407:5413   */\n  dup3\n    /* \"#utility.yul\":5404:5418   */\n  lt\n    /* \"#utility.yul\":5384:5402   */\n  dup2\n    /* \"#utility.yul\":5381:5419   */\n  eq\n    /* \"#utility.yul\":5378:5462   */\n  iszero\n  tag_110\n  jumpi\n    /* \"#utility.yul\":5434:5452   */\n  tag_111\n  tag_44\n  jump\t// in\ntag_111:\n    /* \"#utility.yul\":5378:5462   */\ntag_110:\n    /* \"#utility.yul\":5199:5468   */\n  pop\n    /* \"#utility.yul\":5148:5468   */\n  swap2\n  swap1\n  pop\n  jump\t// out\n    /* \"Teamwork.sol\":1023:5987  contract Teamwork {... */\ntag_11:\n  dataSize(sub_0)\n  dup1\n  dataOffset(sub_0)\n  0x00\n  codecopy\n  0x00\n  return\nstop\n\nsub_0: assembly {\n        /* \"Teamwork.sol\":1023:5987  contract Teamwork {... */\n      mstore(0x40, 0x80)\n      jumpi(tag_1, lt(calldatasize, 0x04))\n      shr(0xe0, calldataload(0x00))\n      dup1\n      0x785ef29d\n      gt\n      tag_12\n      jumpi\n      dup1\n      0x785ef29d\n      eq\n      tag_7\n      jumpi\n      dup1\n      0x9b3de49b\n      eq\n      tag_8\n      jumpi\n      dup1\n      0xbee40f88\n      eq\n      tag_9\n      jumpi\n      dup1\n      0xce46e046\n      eq\n      tag_10\n      jumpi\n      dup1\n      0xefded147\n      eq\n      tag_11\n      jumpi\n      jump(tag_1)\n    tag_12:\n      dup1\n      0x07f10415\n      eq\n      tag_2\n      jumpi\n      dup1\n      0x12065fe0\n      eq\n      tag_3\n      jumpi\n      dup1\n      0x266d02a1\n      eq\n      tag_4\n      jumpi\n      dup1\n      0x4051ddac\n      eq\n      tag_5\n      jumpi\n      dup1\n      0x4217df12\n      eq\n      tag_6\n      jumpi\n    tag_1:\n      0x00\n      dup1\n      revert\n        /* \"Teamwork.sol\":1365:1397  uint16 public membersEntered = 0 */\n    tag_2:\n      callvalue\n      dup1\n      iszero\n      tag_13\n      jumpi\n      0x00\n      dup1\n      revert\n    tag_13:\n      pop\n      tag_14\n      tag_15\n      jump\t// in\n    tag_14:\n      mload(0x40)\n      tag_16\n      swap2\n      swap1\n      tag_17\n      jump\t// in\n    tag_16:\n      mload(0x40)\n      dup1\n      swap2\n      sub\n      swap1\n      return\n        /* \"Teamwork.sol\":4783:4880  function getBalance() public view returns (uint256) {... */\n    tag_3:\n      callvalue\n      dup1\n      iszero\n      tag_18\n      jumpi\n      0x00\n      dup1\n      revert\n    tag_18:\n      pop\n      tag_19\n      tag_20\n      jump\t// in\n    tag_19:\n      mload(0x40)\n      tag_21\n      swap2\n      swap1\n      tag_22\n      jump\t// in\n    tag_21:\n      mload(0x40)\n      dup1\n      swap2\n      sub\n      swap1\n      return\n        /* \"Teamwork.sol\":3665:4108  function getMyWage() public {... */\n    tag_4:\n      callvalue\n      dup1\n      iszero\n      tag_23\n      jumpi\n      0x00\n      dup1\n      revert\n    tag_23:\n      pop\n      tag_24\n      tag_25\n      jump\t// in\n    tag_24:\n      stop\n        /* \"Teamwork.sol\":5207:5479  function getSummary()... */\n    tag_5:\n      callvalue\n      dup1\n      iszero\n      tag_26\n      jumpi\n      0x00\n      dup1\n      revert\n    tag_26:\n      pop\n      tag_27\n      tag_28\n      jump\t// in\n    tag_27:\n      mload(0x40)\n      tag_29\n      swap6\n      swap5\n      swap4\n      swap3\n      swap2\n      swap1\n      tag_30\n      jump\t// in\n    tag_29:\n      mload(0x40)\n      dup1\n      swap2\n      sub\n      swap1\n      return\n        /* \"Teamwork.sol\":2493:2958  function registerAsMember() public {... */\n    tag_6:\n      callvalue\n      dup1\n      iszero\n      tag_31\n      jumpi\n      0x00\n      dup1\n      revert\n    tag_31:\n      pop\n      tag_32\n      tag_33\n      jump\t// in\n    tag_32:\n      stop\n        /* \"Teamwork.sol\":4159:4696  function sendWage(address teamMember) public restricted {... */\n    tag_7:\n      callvalue\n      dup1\n      iszero\n      tag_34\n      jumpi\n      0x00\n      dup1\n      revert\n    tag_34:\n      pop\n      tag_35\n      0x04\n      dup1\n      calldatasize\n      sub\n      dup2\n      add\n      swap1\n      tag_36\n      swap2\n      swap1\n      tag_37\n      jump\t// in\n    tag_36:\n      tag_38\n      jump\t// in\n    tag_35:\n      stop\n        /* \"Teamwork.sol\":4922:5161  function changeStatus(bool statusToSet) public restricted {... */\n    tag_8:\n      callvalue\n      dup1\n      iszero\n      tag_39\n      jumpi\n      0x00\n      dup1\n      revert\n    tag_39:\n      pop\n      tag_40\n      0x04\n      dup1\n      calldatasize\n      sub\n      dup2\n      add\n      swap1\n      tag_41\n      swap2\n      swap1\n      tag_42\n      jump\t// in\n    tag_41:\n      tag_43\n      jump\t// in\n    tag_40:\n      stop\n        /* \"Teamwork.sol\":2974:3512  function payForServices() public payable {... */\n    tag_9:\n      tag_44\n      tag_45\n      jump\t// in\n    tag_44:\n      stop\n        /* \"Teamwork.sol\":3518:3650  function isPayable() public view returns (bool) {... */\n    tag_10:\n      callvalue\n      dup1\n      iszero\n      tag_46\n      jumpi\n      0x00\n      dup1\n      revert\n    tag_46:\n      pop\n      tag_47\n      tag_48\n      jump\t// in\n    tag_47:\n      mload(0x40)\n      tag_49\n      swap2\n      swap1\n      tag_50\n      jump\t// in\n    tag_49:\n      mload(0x40)\n      dup1\n      swap2\n      sub\n      swap1\n      return\n        /* \"Teamwork.sol\":5541:5985  function getTeamMembers()... */\n    tag_11:\n      callvalue\n      dup1\n      iszero\n      tag_51\n      jumpi\n      0x00\n      dup1\n      revert\n    tag_51:\n      pop\n      tag_52\n      tag_53\n      jump\t// in\n    tag_52:\n      mload(0x40)\n      tag_54\n      swap5\n      swap4\n      swap3\n      swap2\n      swap1\n      tag_55\n      jump\t// in\n    tag_54:\n      mload(0x40)\n      dup1\n      swap2\n      sub\n      swap1\n      return\n        /* \"Teamwork.sol\":1365:1397  uint16 public membersEntered = 0 */\n    tag_15:\n      0x01\n      0x04\n      swap1\n      sload\n      swap1\n      0x0100\n      exp\n      swap1\n      div\n      0xffff\n      and\n      dup2\n      jump\t// out\n        /* \"Teamwork.sol\":4783:4880  function getBalance() public view returns (uint256) {... */\n    tag_20:\n        /* \"Teamwork.sol\":4826:4833  uint256 */\n      0x00\n        /* \"Teamwork.sol\":4852:4873  address(this).balance */\n      selfbalance\n        /* \"Teamwork.sol\":4845:4873  return address(this).balance */\n      swap1\n      pop\n        /* \"Teamwork.sol\":4783:4880  function getBalance() public view returns (uint256) {... */\n      swap1\n      jump\t// out\n        /* \"Teamwork.sol\":3665:4108  function getMyWage() public {... */\n    tag_25:\n        /* \"Teamwork.sol\":3771:3785  membersEntered */\n      0x01\n      0x04\n      swap1\n      sload\n      swap1\n      0x0100\n      exp\n      swap1\n      div\n      0xffff\n      and\n        /* \"Teamwork.sol\":3755:3785  totalMembers == membersEntered */\n      0xffff\n      and\n        /* \"Teamwork.sol\":3755:3767  totalMembers */\n      0x01\n      0x02\n      swap1\n      sload\n      swap1\n      0x0100\n      exp\n      swap1\n      div\n      0xffff\n      and\n        /* \"Teamwork.sol\":3755:3785  totalMembers == membersEntered */\n      0xffff\n      and\n      eq\n        /* \"Teamwork.sol\":3747:3786  require(totalMembers == membersEntered) */\n      tag_58\n      jumpi\n      0x00\n      dup1\n      revert\n    tag_58:\n        /* \"Teamwork.sol\":3916:3917  0 */\n      0x00\n        /* \"Teamwork.sol\":3890:3901  teamMembers */\n      0x03\n        /* \"Teamwork.sol\":3890:3913  teamMembers[msg.sender] */\n      0x00\n        /* \"Teamwork.sol\":3902:3912  msg.sender */\n      caller\n        /* \"Teamwork.sol\":3890:3913  teamMembers[msg.sender] */\n      0xffffffffffffffffffffffffffffffffffffffff\n      and\n      0xffffffffffffffffffffffffffffffffffffffff\n      and\n      dup2\n      mstore\n      0x20\n      add\n      swap1\n      dup2\n      mstore\n      0x20\n      add\n      0x00\n      keccak256\n      0x00\n      swap1\n      sload\n      swap1\n      0x0100\n      exp\n      swap1\n      div\n      0xffff\n      and\n        /* \"Teamwork.sol\":3890:3917  teamMembers[msg.sender] > 0 */\n      0xffff\n      and\n      gt\n        /* \"Teamwork.sol\":3890:3961  teamMembers[msg.sender] > 0 && teamMembers[msg.sender] == paymentNumber */\n      dup1\n      iszero\n      tag_59\n      jumpi\n      pop\n        /* \"Teamwork.sol\":3948:3961  paymentNumber */\n      0x01\n      0x00\n      swap1\n      sload\n      swap1\n      0x0100\n      exp\n      swap1\n      div\n      0xffff\n      and\n        /* \"Teamwork.sol\":3921:3961  teamMembers[msg.sender] == paymentNumber */\n      0xffff\n      and\n        /* \"Teamwork.sol\":3921:3932  teamMembers */\n      0x03\n        /* \"Teamwork.sol\":3921:3944  teamMembers[msg.sender] */\n      0x00\n        /* \"Teamwork.sol\":3933:3943  msg.sender */\n      caller\n        /* \"Teamwork.sol\":3921:3944  teamMembers[msg.sender] */\n      0xffffffffffffffffffffffffffffffffffffffff\n      and\n      0xffffffffffffffffffffffffffffffffffffffff\n      and\n      dup2\n      mstore\n      0x20\n      add\n      swap1\n      dup2\n      mstore\n      0x20\n      add\n      0x00\n      keccak256\n      0x00\n      swap1\n      sload\n      swap1\n      0x0100\n      exp\n      swap1\n      div\n      0xffff\n      and\n        /* \"Teamwork.sol\":3921:3961  teamMembers[msg.sender] == paymentNumber */\n      0xffff\n      and\n      eq\n        /* \"Teamwork.sol\":3890:3961  teamMembers[msg.sender] > 0 && teamMembers[msg.sender] == paymentNumber */\n    tag_59:\n        /* \"Teamwork.sol\":3882:3962  require(teamMembers[msg.sender] > 0 && teamMembers[msg.sender] == paymentNumber) */\n      tag_60\n      jumpi\n      0x00\n      dup1\n      revert\n    tag_60:\n        /* \"Teamwork.sol\":4006:4016  msg.sender */\n      caller\n        /* \"Teamwork.sol\":3998:4026  payable(msg.sender).transfer */\n      0xffffffffffffffffffffffffffffffffffffffff\n      and\n        /* \"Teamwork.sol\":3998:4038  payable(msg.sender).transfer(currentPay) */\n      0x08fc\n        /* \"Teamwork.sol\":4027:4037  currentPay */\n      sload(0x00)\n        /* \"Teamwork.sol\":3998:4038  payable(msg.sender).transfer(currentPay) */\n      swap1\n      dup2\n      iszero\n      mul\n      swap1\n      mload(0x40)\n      0x00\n      mload(0x40)\n      dup1\n      dup4\n      sub\n      dup2\n      dup6\n      dup9\n      dup9\n      call\n      swap4\n      pop\n      pop\n      pop\n      pop\n      iszero\n      dup1\n      iszero\n      tag_62\n      jumpi\n      returndatasize\n      0x00\n      dup1\n      returndatacopy\n      revert(0x00, returndatasize)\n    tag_62:\n      pop\n        /* \"Teamwork.sol\":4100:4101  1 */\n      0x01\n        /* \"Teamwork.sol\":4074:4085  teamMembers */\n      0x03\n        /* \"Teamwork.sol\":4074:4097  teamMembers[msg.sender] */\n      0x00\n        /* \"Teamwork.sol\":4086:4096  msg.sender */\n      caller\n        /* \"Teamwork.sol\":4074:4097  teamMembers[msg.sender] */\n      0xffffffffffffffffffffffffffffffffffffffff\n      and\n      0xffffffffffffffffffffffffffffffffffffffff\n      and\n      dup2\n      mstore\n      0x20\n      add\n      swap1\n      dup2\n      mstore\n      0x20\n      add\n      0x00\n      keccak256\n      0x00\n      swap1\n      sload\n      swap1\n      0x0100\n      exp\n      swap1\n      div\n      0xffff\n      and\n        /* \"Teamwork.sol\":4074:4101  teamMembers[msg.sender] + 1 */\n      tag_63\n      swap2\n      swap1\n      tag_64\n      jump\t// in\n    tag_63:\n        /* \"Teamwork.sol\":4048:4059  teamMembers */\n      0x03\n        /* \"Teamwork.sol\":4048:4071  teamMembers[msg.sender] */\n      0x00\n        /* \"Teamwork.sol\":4060:4070  msg.sender */\n      caller\n        /* \"Teamwork.sol\":4048:4071  teamMembers[msg.sender] */\n      0xffffffffffffffffffffffffffffffffffffffff\n      and\n      0xffffffffffffffffffffffffffffffffffffffff\n      and\n      dup2\n      mstore\n      0x20\n      add\n      swap1\n      dup2\n      mstore\n      0x20\n      add\n      0x00\n      keccak256\n      0x00\n        /* \"Teamwork.sol\":4048:4101  teamMembers[msg.sender] = teamMembers[msg.sender] + 1 */\n      0x0100\n      exp\n      dup2\n      sload\n      dup2\n      0xffff\n      mul\n      not\n      and\n      swap1\n      dup4\n      0xffff\n      and\n      mul\n      or\n      swap1\n      sstore\n      pop\n        /* \"Teamwork.sol\":3665:4108  function getMyWage() public {... */\n      jump\t// out\n        /* \"Teamwork.sol\":5207:5479  function getSummary()... */\n    tag_28:\n        /* \"Teamwork.sol\":5287:5293  uint16 */\n      0x00\n        /* \"Teamwork.sol\":5307:5313  uint16 */\n      dup1\n        /* \"Teamwork.sol\":5327:5331  bool */\n      0x00\n        /* \"Teamwork.sol\":5345:5358  string memory */\n      0x60\n        /* \"Teamwork.sol\":5372:5379  address */\n      0x00\n        /* \"Teamwork.sol\":5412:5426  membersEntered */\n      0x01\n      0x04\n      swap1\n      sload\n      swap1\n      0x0100\n      exp\n      swap1\n      div\n      0xffff\n      and\n        /* \"Teamwork.sol\":5428:5440  totalMembers */\n      0x01\n      0x02\n      swap1\n      sload\n      swap1\n      0x0100\n      exp\n      swap1\n      div\n      0xffff\n      and\n        /* \"Teamwork.sol\":5442:5452  teamStatus */\n      0x01\n      0x08\n      swap1\n      sload\n      swap1\n      0x0100\n      exp\n      swap1\n      div\n      0xff\n      and\n        /* \"Teamwork.sol\":5454:5462  teamName */\n      0x02\n        /* \"Teamwork.sol\":5464:5471  manager */\n      0x05\n      0x00\n      swap1\n      sload\n      swap1\n      0x0100\n      exp\n      swap1\n      div\n      0xffffffffffffffffffffffffffffffffffffffff\n      and\n        /* \"Teamwork.sol\":5404:5472  return (membersEntered, totalMembers, teamStatus, teamName, manager) */\n      dup2\n      dup1\n      sload\n      tag_66\n      swap1\n      tag_67\n      jump\t// in\n    tag_66:\n      dup1\n      0x1f\n      add\n      0x20\n      dup1\n      swap2\n      div\n      mul\n      0x20\n      add\n      mload(0x40)\n      swap1\n      dup2\n      add\n      0x40\n      mstore\n      dup1\n      swap3\n      swap2\n      swap1\n      dup2\n      dup2\n      mstore\n      0x20\n      add\n      dup3\n      dup1\n      sload\n      tag_68\n      swap1\n      tag_67\n      jump\t// in\n    tag_68:\n      dup1\n      iszero\n      tag_69\n      jumpi\n      dup1\n      0x1f\n      lt\n      tag_70\n      jumpi\n      0x0100\n      dup1\n      dup4\n      sload\n      div\n      mul\n      dup4\n      mstore\n      swap2\n      0x20\n      add\n      swap2\n      jump(tag_69)\n    tag_70:\n      dup3\n      add\n      swap2\n      swap1\n      0x00\n      mstore\n      keccak256(0x00, 0x20)\n      swap1\n    tag_71:\n      dup2\n      sload\n      dup2\n      mstore\n      swap1\n      0x01\n      add\n      swap1\n      0x20\n      add\n      dup1\n      dup4\n      gt\n      tag_71\n      jumpi\n      dup3\n      swap1\n      sub\n      0x1f\n      and\n      dup3\n      add\n      swap2\n    tag_69:\n      pop\n      pop\n      pop\n      pop\n      pop\n      swap2\n      pop\n      swap5\n      pop\n      swap5\n      pop\n      swap5\n      pop\n      swap5\n      pop\n      swap5\n      pop\n        /* \"Teamwork.sol\":5207:5479  function getSummary()... */\n      swap1\n      swap2\n      swap3\n      swap4\n      swap5\n      jump\t// out\n        /* \"Teamwork.sol\":2493:2958  function registerAsMember() public {... */\n    tag_33:\n        /* \"Teamwork.sol\":2698:2712  membersEntered */\n      0x01\n      0x04\n      swap1\n      sload\n      swap1\n      0x0100\n      exp\n      swap1\n      div\n      0xffff\n      and\n        /* \"Teamwork.sol\":2682:2712  totalMembers != membersEntered */\n      0xffff\n      and\n        /* \"Teamwork.sol\":2682:2694  totalMembers */\n      0x01\n      0x02\n      swap1\n      sload\n      swap1\n      0x0100\n      exp\n      swap1\n      div\n      0xffff\n      and\n        /* \"Teamwork.sol\":2682:2712  totalMembers != membersEntered */\n      0xffff\n      and\n      eq\n      iszero\n        /* \"Teamwork.sol\":2682:2744  totalMembers != membersEntered && teamMembers[msg.sender] == 0 */\n      dup1\n      iszero\n      tag_73\n      jumpi\n      pop\n        /* \"Teamwork.sol\":2743:2744  0 */\n      0x00\n        /* \"Teamwork.sol\":2716:2727  teamMembers */\n      0x03\n        /* \"Teamwork.sol\":2716:2739  teamMembers[msg.sender] */\n      0x00\n        /* \"Teamwork.sol\":2728:2738  msg.sender */\n      caller\n        /* \"Teamwork.sol\":2716:2739  teamMembers[msg.sender] */\n      0xffffffffffffffffffffffffffffffffffffffff\n      and\n      0xffffffffffffffffffffffffffffffffffffffff\n      and\n      dup2\n      mstore\n      0x20\n      add\n      swap1\n      dup2\n      mstore\n      0x20\n      add\n      0x00\n      keccak256\n      0x00\n      swap1\n      sload\n      swap1\n      0x0100\n      exp\n      swap1\n      div\n      0xffff\n      and\n        /* \"Teamwork.sol\":2716:2744  teamMembers[msg.sender] == 0 */\n      0xffff\n      and\n      eq\n        /* \"Teamwork.sol\":2682:2744  totalMembers != membersEntered && teamMembers[msg.sender] == 0 */\n    tag_73:\n        /* \"Teamwork.sol\":2674:2745  require(totalMembers != membersEntered && teamMembers[msg.sender] == 0) */\n      tag_74\n      jumpi\n      0x00\n      dup1\n      revert\n    tag_74:\n        /* \"Teamwork.sol\":2835:2836  1 */\n      0x01\n        /* \"Teamwork.sol\":2809:2820  teamMembers */\n      0x03\n        /* \"Teamwork.sol\":2809:2832  teamMembers[msg.sender] */\n      0x00\n        /* \"Teamwork.sol\":2821:2831  msg.sender */\n      caller\n        /* \"Teamwork.sol\":2809:2832  teamMembers[msg.sender] */\n      0xffffffffffffffffffffffffffffffffffffffff\n      and\n      0xffffffffffffffffffffffffffffffffffffffff\n      and\n      dup2\n      mstore\n      0x20\n      add\n      swap1\n      dup2\n      mstore\n      0x20\n      add\n      0x00\n      keccak256\n      0x00\n        /* \"Teamwork.sol\":2809:2836  teamMembers[msg.sender] = 1 */\n      0x0100\n      exp\n      dup2\n      sload\n      dup2\n      0xffff\n      mul\n      not\n      and\n      swap1\n      dup4\n      0xffff\n      and\n      mul\n      or\n      swap1\n      sstore\n      pop\n        /* \"Teamwork.sol\":2846:2853  members */\n      0x04\n        /* \"Teamwork.sol\":2859:2869  msg.sender */\n      caller\n        /* \"Teamwork.sol\":2846:2870  members.push(msg.sender) */\n      swap1\n      dup1\n      0x01\n      dup2\n      sload\n      add\n      dup1\n      dup3\n      sstore\n      dup1\n      swap2\n      pop\n      pop\n      0x01\n      swap1\n      sub\n      swap1\n      0x00\n      mstore\n      keccak256(0x00, 0x20)\n      add\n      0x00\n      swap1\n      swap2\n      swap1\n      swap2\n      swap1\n      swap2\n      0x0100\n      exp\n      dup2\n      sload\n      dup2\n      0xffffffffffffffffffffffffffffffffffffffff\n      mul\n      not\n      and\n      swap1\n      dup4\n      0xffffffffffffffffffffffffffffffffffffffff\n      and\n      mul\n      or\n      swap1\n      sstore\n      pop\n        /* \"Teamwork.sol\":2880:2894  membersEntered */\n      0x01\n      0x04\n        /* \"Teamwork.sol\":2880:2896  membersEntered++ */\n      dup2\n      dup2\n      swap1\n      sload\n      swap1\n      0x0100\n      exp\n      swap1\n      div\n      0xffff\n      and\n      dup1\n      swap3\n      swap2\n      swap1\n      tag_76\n      swap1\n      tag_77\n      jump\t// in\n    tag_76:\n      swap2\n      swap1\n      0x0100\n      exp\n      dup2\n      sload\n      dup2\n      0xffff\n      mul\n      not\n      and\n      swap1\n      dup4\n      0xffff\n      and\n      mul\n      or\n      swap1\n      sstore\n      pop\n      pop\n        /* \"Teamwork.sol\":2938:2950  totalMembers */\n      0x01\n      0x02\n      swap1\n      sload\n      swap1\n      0x0100\n      exp\n      swap1\n      div\n      0xffff\n      and\n        /* \"Teamwork.sol\":2920:2950  membersEntered == totalMembers */\n      0xffff\n      and\n        /* \"Teamwork.sol\":2920:2934  membersEntered */\n      0x01\n      0x04\n      swap1\n      sload\n      swap1\n      0x0100\n      exp\n      swap1\n      div\n      0xffff\n      and\n        /* \"Teamwork.sol\":2920:2950  membersEntered == totalMembers */\n      0xffff\n      and\n      eq\n        /* \"Teamwork.sol\":2906:2916  teamStatus */\n      0x01\n      0x08\n        /* \"Teamwork.sol\":2906:2951  teamStatus = (membersEntered == totalMembers) */\n      0x0100\n      exp\n      dup2\n      sload\n      dup2\n      0xff\n      mul\n      not\n      and\n      swap1\n      dup4\n      iszero\n      iszero\n      mul\n      or\n      swap1\n      sstore\n      pop\n        /* \"Teamwork.sol\":2493:2958  function registerAsMember() public {... */\n      jump\t// out\n        /* \"Teamwork.sol\":4159:4696  function sendWage(address teamMember) public restricted {... */\n    tag_38:\n        /* \"Teamwork.sol\":2353:2360  manager */\n      0x05\n      0x00\n      swap1\n      sload\n      swap1\n      0x0100\n      exp\n      swap1\n      div\n      0xffffffffffffffffffffffffffffffffffffffff\n      and\n        /* \"Teamwork.sol\":2339:2360  msg.sender == manager */\n      0xffffffffffffffffffffffffffffffffffffffff\n      and\n        /* \"Teamwork.sol\":2339:2349  msg.sender */\n      caller\n        /* \"Teamwork.sol\":2339:2360  msg.sender == manager */\n      0xffffffffffffffffffffffffffffffffffffffff\n      and\n      eq\n        /* \"Teamwork.sol\":2331:2361  require(msg.sender == manager) */\n      tag_79\n      jumpi\n      0x00\n      dup1\n      revert\n    tag_79:\n        /* \"Teamwork.sol\":4297:4307  teamMember */\n      dup1\n        /* \"Teamwork.sol\":4286:4307  manager != teamMember */\n      0xffffffffffffffffffffffffffffffffffffffff\n      and\n        /* \"Teamwork.sol\":4286:4293  manager */\n      0x05\n      0x00\n      swap1\n      sload\n      swap1\n      0x0100\n      exp\n      swap1\n      div\n      0xffffffffffffffffffffffffffffffffffffffff\n      and\n        /* \"Teamwork.sol\":4286:4307  manager != teamMember */\n      0xffffffffffffffffffffffffffffffffffffffff\n      and\n      eq\n      iszero\n        /* \"Teamwork.sol\":4286:4338  manager != teamMember && teamMembers[teamMember] > 0 */\n      dup1\n      iszero\n      tag_81\n      jumpi\n      pop\n        /* \"Teamwork.sol\":4337:4338  0 */\n      0x00\n        /* \"Teamwork.sol\":4311:4322  teamMembers */\n      0x03\n        /* \"Teamwork.sol\":4311:4334  teamMembers[teamMember] */\n      0x00\n        /* \"Teamwork.sol\":4323:4333  teamMember */\n      dup4\n        /* \"Teamwork.sol\":4311:4334  teamMembers[teamMember] */\n      0xffffffffffffffffffffffffffffffffffffffff\n      and\n      0xffffffffffffffffffffffffffffffffffffffff\n      and\n      dup2\n      mstore\n      0x20\n      add\n      swap1\n      dup2\n      mstore\n      0x20\n      add\n      0x00\n      keccak256\n      0x00\n      swap1\n      sload\n      swap1\n      0x0100\n      exp\n      swap1\n      div\n      0xffff\n      and\n        /* \"Teamwork.sol\":4311:4338  teamMembers[teamMember] > 0 */\n      0xffff\n      and\n      gt\n        /* \"Teamwork.sol\":4286:4338  manager != teamMember && teamMembers[teamMember] > 0 */\n    tag_81:\n        /* \"Teamwork.sol\":4278:4339  require(manager != teamMember && teamMembers[teamMember] > 0) */\n      tag_82\n      jumpi\n      0x00\n      dup1\n      revert\n    tag_82:\n        /* \"Teamwork.sol\":4417:4431  membersEntered */\n      0x01\n      0x04\n      swap1\n      sload\n      swap1\n      0x0100\n      exp\n      swap1\n      div\n      0xffff\n      and\n        /* \"Teamwork.sol\":4401:4431  totalMembers == membersEntered */\n      0xffff\n      and\n        /* \"Teamwork.sol\":4401:4413  totalMembers */\n      0x01\n      0x02\n      swap1\n      sload\n      swap1\n      0x0100\n      exp\n      swap1\n      div\n      0xffff\n      and\n        /* \"Teamwork.sol\":4401:4431  totalMembers == membersEntered */\n      0xffff\n      and\n      eq\n        /* \"Teamwork.sol\":4393:4432  require(totalMembers == membersEntered) */\n      tag_83\n      jumpi\n      0x00\n      dup1\n      revert\n    tag_83:\n        /* \"Teamwork.sol\":4536:4549  paymentNumber */\n      0x01\n      0x00\n      swap1\n      sload\n      swap1\n      0x0100\n      exp\n      swap1\n      div\n      0xffff\n      and\n        /* \"Teamwork.sol\":4509:4549  teamMembers[teamMember] == paymentNumber */\n      0xffff\n      and\n        /* \"Teamwork.sol\":4509:4520  teamMembers */\n      0x03\n        /* \"Teamwork.sol\":4509:4532  teamMembers[teamMember] */\n      0x00\n        /* \"Teamwork.sol\":4521:4531  teamMember */\n      dup4\n        /* \"Teamwork.sol\":4509:4532  teamMembers[teamMember] */\n      0xffffffffffffffffffffffffffffffffffffffff\n      and\n      0xffffffffffffffffffffffffffffffffffffffff\n      and\n      dup2\n      mstore\n      0x20\n      add\n      swap1\n      dup2\n      mstore\n      0x20\n      add\n      0x00\n      keccak256\n      0x00\n      swap1\n      sload\n      swap1\n      0x0100\n      exp\n      swap1\n      div\n      0xffff\n      and\n        /* \"Teamwork.sol\":4509:4549  teamMembers[teamMember] == paymentNumber */\n      0xffff\n      and\n      eq\n        /* \"Teamwork.sol\":4501:4550  require(teamMembers[teamMember] == paymentNumber) */\n      tag_84\n      jumpi\n      0x00\n      dup1\n      revert\n    tag_84:\n        /* \"Teamwork.sol\":4594:4604  teamMember */\n      dup1\n        /* \"Teamwork.sol\":4586:4614  payable(teamMember).transfer */\n      0xffffffffffffffffffffffffffffffffffffffff\n      and\n        /* \"Teamwork.sol\":4586:4626  payable(teamMember).transfer(currentPay) */\n      0x08fc\n        /* \"Teamwork.sol\":4615:4625  currentPay */\n      sload(0x00)\n        /* \"Teamwork.sol\":4586:4626  payable(teamMember).transfer(currentPay) */\n      swap1\n      dup2\n      iszero\n      mul\n      swap1\n      mload(0x40)\n      0x00\n      mload(0x40)\n      dup1\n      dup4\n      sub\n      dup2\n      dup6\n      dup9\n      dup9\n      call\n      swap4\n      pop\n      pop\n      pop\n      pop\n      iszero\n      dup1\n      iszero\n      tag_86\n      jumpi\n      returndatasize\n      0x00\n      dup1\n      returndatacopy\n      revert(0x00, returndatasize)\n    tag_86:\n      pop\n        /* \"Teamwork.sol\":4688:4689  1 */\n      0x01\n        /* \"Teamwork.sol\":4662:4673  teamMembers */\n      0x03\n        /* \"Teamwork.sol\":4662:4685  teamMembers[teamMember] */\n      0x00\n        /* \"Teamwork.sol\":4674:4684  teamMember */\n      dup4\n        /* \"Teamwork.sol\":4662:4685  teamMembers[teamMember] */\n      0xffffffffffffffffffffffffffffffffffffffff\n      and\n      0xffffffffffffffffffffffffffffffffffffffff\n      and\n      dup2\n      mstore\n      0x20\n      add\n      swap1\n      dup2\n      mstore\n      0x20\n      add\n      0x00\n      keccak256\n      0x00\n      swap1\n      sload\n      swap1\n      0x0100\n      exp\n      swap1\n      div\n      0xffff\n      and\n        /* \"Teamwork.sol\":4662:4689  teamMembers[teamMember] + 1 */\n      tag_87\n      swap2\n      swap1\n      tag_64\n      jump\t// in\n    tag_87:\n        /* \"Teamwork.sol\":4636:4647  teamMembers */\n      0x03\n        /* \"Teamwork.sol\":4636:4659  teamMembers[teamMember] */\n      0x00\n        /* \"Teamwork.sol\":4648:4658  teamMember */\n      dup4\n        /* \"Teamwork.sol\":4636:4659  teamMembers[teamMember] */\n      0xffffffffffffffffffffffffffffffffffffffff\n      and\n      0xffffffffffffffffffffffffffffffffffffffff\n      and\n      dup2\n      mstore\n      0x20\n      add\n      swap1\n      dup2\n      mstore\n      0x20\n      add\n      0x00\n      keccak256\n      0x00\n        /* \"Teamwork.sol\":4636:4689  teamMembers[teamMember] = teamMembers[teamMember] + 1 */\n      0x0100\n      exp\n      dup2\n      sload\n      dup2\n      0xffff\n      mul\n      not\n      and\n      swap1\n      dup4\n      0xffff\n      and\n      mul\n      or\n      swap1\n      sstore\n      pop\n        /* \"Teamwork.sol\":4159:4696  function sendWage(address teamMember) public restricted {... */\n      pop\n      jump\t// out\n        /* \"Teamwork.sol\":4922:5161  function changeStatus(bool statusToSet) public restricted {... */\n    tag_43:\n        /* \"Teamwork.sol\":2353:2360  manager */\n      0x05\n      0x00\n      swap1\n      sload\n      swap1\n      0x0100\n      exp\n      swap1\n      div\n      0xffffffffffffffffffffffffffffffffffffffff\n      and\n        /* \"Teamwork.sol\":2339:2360  msg.sender == manager */\n      0xffffffffffffffffffffffffffffffffffffffff\n      and\n        /* \"Teamwork.sol\":2339:2349  msg.sender */\n      caller\n        /* \"Teamwork.sol\":2339:2360  msg.sender == manager */\n      0xffffffffffffffffffffffffffffffffffffffff\n      and\n      eq\n        /* \"Teamwork.sol\":2331:2361  require(msg.sender == manager) */\n      tag_89\n      jumpi\n      0x00\n      dup1\n      revert\n    tag_89:\n        /* \"Teamwork.sol\":5076:5090  membersEntered */\n      0x01\n      0x04\n      swap1\n      sload\n      swap1\n      0x0100\n      exp\n      swap1\n      div\n      0xffff\n      and\n        /* \"Teamwork.sol\":5060:5090  totalMembers == membersEntered */\n      0xffff\n      and\n        /* \"Teamwork.sol\":5060:5072  totalMembers */\n      0x01\n      0x02\n      swap1\n      sload\n      swap1\n      0x0100\n      exp\n      swap1\n      div\n      0xffff\n      and\n        /* \"Teamwork.sol\":5060:5090  totalMembers == membersEntered */\n      0xffff\n      and\n      eq\n        /* \"Teamwork.sol\":5060:5119  totalMembers == membersEntered && teamStatus != statusToSet */\n      dup1\n      iszero\n      tag_91\n      jumpi\n      pop\n        /* \"Teamwork.sol\":5108:5119  statusToSet */\n      dup1\n        /* \"Teamwork.sol\":5094:5119  teamStatus != statusToSet */\n      iszero\n      iszero\n        /* \"Teamwork.sol\":5094:5104  teamStatus */\n      0x01\n      0x08\n      swap1\n      sload\n      swap1\n      0x0100\n      exp\n      swap1\n      div\n      0xff\n      and\n        /* \"Teamwork.sol\":5094:5119  teamStatus != statusToSet */\n      iszero\n      iszero\n      eq\n      iszero\n        /* \"Teamwork.sol\":5060:5119  totalMembers == membersEntered && teamStatus != statusToSet */\n    tag_91:\n        /* \"Teamwork.sol\":5052:5120  require(totalMembers == membersEntered && teamStatus != statusToSet) */\n      tag_92\n      jumpi\n      0x00\n      dup1\n      revert\n    tag_92:\n        /* \"Teamwork.sol\":5143:5154  statusToSet */\n      dup1\n        /* \"Teamwork.sol\":5130:5140  teamStatus */\n      0x01\n      0x08\n        /* \"Teamwork.sol\":5130:5154  teamStatus = statusToSet */\n      0x0100\n      exp\n      dup2\n      sload\n      dup2\n      0xff\n      mul\n      not\n      and\n      swap1\n      dup4\n      iszero\n      iszero\n      mul\n      or\n      swap1\n      sstore\n      pop\n        /* \"Teamwork.sol\":4922:5161  function changeStatus(bool statusToSet) public restricted {... */\n      pop\n      jump\t// out\n        /* \"Teamwork.sol\":2974:3512  function payForServices() public payable {... */\n    tag_45:\n        /* \"Teamwork.sol\":3090:3100  teamStatus */\n      0x01\n      0x08\n      swap1\n      sload\n      swap1\n      0x0100\n      exp\n      swap1\n      div\n      0xff\n      and\n        /* \"Teamwork.sol\":3090:3132  teamStatus && teamMembers[msg.sender] == 0 */\n      dup1\n      iszero\n      tag_94\n      jumpi\n      pop\n        /* \"Teamwork.sol\":3131:3132  0 */\n      0x00\n        /* \"Teamwork.sol\":3104:3115  teamMembers */\n      0x03\n        /* \"Teamwork.sol\":3104:3127  teamMembers[msg.sender] */\n      0x00\n        /* \"Teamwork.sol\":3116:3126  msg.sender */\n      caller\n        /* \"Teamwork.sol\":3104:3127  teamMembers[msg.sender] */\n      0xffffffffffffffffffffffffffffffffffffffff\n      and\n      0xffffffffffffffffffffffffffffffffffffffff\n      and\n      dup2\n      mstore\n      0x20\n      add\n      swap1\n      dup2\n      mstore\n      0x20\n      add\n      0x00\n      keccak256\n      0x00\n      swap1\n      sload\n      swap1\n      0x0100\n      exp\n      swap1\n      div\n      0xffff\n      and\n        /* \"Teamwork.sol\":3104:3132  teamMembers[msg.sender] == 0 */\n      0xffff\n      and\n      eq\n        /* \"Teamwork.sol\":3090:3132  teamStatus && teamMembers[msg.sender] == 0 */\n    tag_94:\n        /* \"Teamwork.sol\":3082:3133  require(teamStatus && teamMembers[msg.sender] == 0) */\n      tag_95\n      jumpi\n      0x00\n      dup1\n      revert\n    tag_95:\n        /* \"Teamwork.sol\":3391:3403  getBalance() */\n      tag_96\n        /* \"Teamwork.sol\":3391:3401  getBalance */\n      tag_20\n        /* \"Teamwork.sol\":3391:3403  getBalance() */\n      jump\t// in\n    tag_96:\n        /* \"Teamwork.sol\":3378:3388  currentPay */\n      sload(0x00)\n        /* \"Teamwork.sol\":3378:3403  currentPay > getBalance() */\n      gt\n        /* \"Teamwork.sol\":3378:3422  currentPay > getBalance() || currentPay == 0 */\n      dup1\n      tag_97\n      jumpi\n      pop\n        /* \"Teamwork.sol\":3421:3422  0 */\n      0x00\n        /* \"Teamwork.sol\":3407:3417  currentPay */\n      dup1\n      sload\n        /* \"Teamwork.sol\":3407:3422  currentPay == 0 */\n      eq\n        /* \"Teamwork.sol\":3378:3422  currentPay > getBalance() || currentPay == 0 */\n    tag_97:\n        /* \"Teamwork.sol\":3370:3423  require(currentPay > getBalance() || currentPay == 0) */\n      tag_98\n      jumpi\n      0x00\n      dup1\n      revert\n    tag_98:\n        /* \"Teamwork.sol\":3433:3446  paymentNumber */\n      0x01\n      0x00\n        /* \"Teamwork.sol\":3433:3448  paymentNumber++ */\n      dup2\n      dup2\n      swap1\n      sload\n      swap1\n      0x0100\n      exp\n      swap1\n      div\n      0xffff\n      and\n      dup1\n      swap3\n      swap2\n      swap1\n      tag_99\n      swap1\n      tag_77\n      jump\t// in\n    tag_99:\n      swap2\n      swap1\n      0x0100\n      exp\n      dup2\n      sload\n      dup2\n      0xffff\n      mul\n      not\n      and\n      swap1\n      dup4\n      0xffff\n      and\n      mul\n      or\n      swap1\n      sstore\n      pop\n      pop\n        /* \"Teamwork.sol\":3502:3505  100 */\n      0x64\n        /* \"Teamwork.sol\":3484:3498  percentDivided */\n      0x01\n      0x06\n      swap1\n      sload\n      swap1\n      0x0100\n      exp\n      swap1\n      div\n      0xffff\n      and\n        /* \"Teamwork.sol\":3472:3498  msg.value * percentDivided */\n      0xffff\n      and\n        /* \"Teamwork.sol\":3472:3481  msg.value */\n      callvalue\n        /* \"Teamwork.sol\":3472:3498  msg.value * percentDivided */\n      tag_100\n      swap2\n      swap1\n      tag_101\n      jump\t// in\n    tag_100:\n        /* \"Teamwork.sol\":3471:3505  (msg.value * percentDivided) / 100 */\n      tag_102\n      swap2\n      swap1\n      tag_103\n      jump\t// in\n    tag_102:\n        /* \"Teamwork.sol\":3458:3468  currentPay */\n      0x00\n        /* \"Teamwork.sol\":3458:3505  currentPay = (msg.value * percentDivided) / 100 */\n      dup2\n      swap1\n      sstore\n      pop\n        /* \"Teamwork.sol\":2974:3512  function payForServices() public payable {... */\n      jump\t// out\n        /* \"Teamwork.sol\":3518:3650  function isPayable() public view returns (bool) {... */\n    tag_48:\n        /* \"Teamwork.sol\":3560:3564  bool */\n      0x00\n        /* \"Teamwork.sol\":3583:3593  teamStatus */\n      0x01\n      0x08\n      swap1\n      sload\n      swap1\n      0x0100\n      exp\n      swap1\n      div\n      0xff\n      and\n        /* \"Teamwork.sol\":3583:3643  teamStatus && (currentPay > getBalance() || currentPay == 0) */\n      dup1\n      iszero\n      tag_105\n      jumpi\n      pop\n        /* \"Teamwork.sol\":3611:3623  getBalance() */\n      tag_106\n        /* \"Teamwork.sol\":3611:3621  getBalance */\n      tag_20\n        /* \"Teamwork.sol\":3611:3623  getBalance() */\n      jump\t// in\n    tag_106:\n        /* \"Teamwork.sol\":3598:3608  currentPay */\n      sload(0x00)\n        /* \"Teamwork.sol\":3598:3623  currentPay > getBalance() */\n      gt\n        /* \"Teamwork.sol\":3598:3642  currentPay > getBalance() || currentPay == 0 */\n      dup1\n      tag_107\n      jumpi\n      pop\n        /* \"Teamwork.sol\":3641:3642  0 */\n      0x00\n        /* \"Teamwork.sol\":3627:3637  currentPay */\n      dup1\n      sload\n        /* \"Teamwork.sol\":3627:3642  currentPay == 0 */\n      eq\n        /* \"Teamwork.sol\":3598:3642  currentPay > getBalance() || currentPay == 0 */\n    tag_107:\n        /* \"Teamwork.sol\":3583:3643  teamStatus && (currentPay > getBalance() || currentPay == 0) */\n    tag_105:\n        /* \"Teamwork.sol\":3576:3643  return teamStatus && (currentPay > getBalance() || currentPay == 0) */\n      swap1\n      pop\n        /* \"Teamwork.sol\":3518:3650  function isPayable() public view returns (bool) {... */\n      swap1\n      jump\t// out\n        /* \"Teamwork.sol\":5541:5985  function getTeamMembers()... */\n    tag_53:\n        /* \"Teamwork.sol\":5625:5641  address[] memory */\n      0x60\n        /* \"Teamwork.sol\":5655:5670  uint16[] memory */\n      dup1\n        /* \"Teamwork.sol\":5684:5690  uint16 */\n      0x00\n        /* \"Teamwork.sol\":5704:5711  address */\n      dup1\n        /* \"Teamwork.sol\":5736:5764  uint16[] memory transactions */\n      0x00\n        /* \"Teamwork.sol\":5780:5794  membersEntered */\n      0x01\n      0x04\n      swap1\n      sload\n      swap1\n      0x0100\n      exp\n      swap1\n      div\n      0xffff\n      and\n        /* \"Teamwork.sol\":5767:5795  new uint16[](membersEntered) */\n      0xffff\n      and\n      0xffffffffffffffff\n      dup2\n      gt\n      iszero\n      tag_109\n      jumpi\n      tag_110\n      tag_111\n      jump\t// in\n    tag_110:\n    tag_109:\n      mload(0x40)\n      swap1\n      dup1\n      dup3\n      mstore\n      dup1\n      0x20\n      mul\n      0x20\n      add\n      dup3\n      add\n      0x40\n      mstore\n      dup1\n      iszero\n      tag_112\n      jumpi\n      dup2\n      0x20\n      add\n      0x20\n      dup3\n      mul\n      dup1\n      calldatasize\n      dup4\n      calldatacopy\n      dup1\n      dup3\n      add\n      swap2\n      pop\n      pop\n      swap1\n      pop\n    tag_112:\n      pop\n        /* \"Teamwork.sol\":5736:5795  uint16[] memory transactions = new uint16[](membersEntered) */\n      swap1\n      pop\n        /* \"Teamwork.sol\":5810:5818  uint16 i */\n      0x00\n        /* \"Teamwork.sol\":5805:5915  for (uint16 i = 0; i < membersEntered; i++) {... */\n    tag_113:\n        /* \"Teamwork.sol\":5828:5842  membersEntered */\n      0x01\n      0x04\n      swap1\n      sload\n      swap1\n      0x0100\n      exp\n      swap1\n      div\n      0xffff\n      and\n        /* \"Teamwork.sol\":5824:5842  i < membersEntered */\n      0xffff\n      and\n        /* \"Teamwork.sol\":5824:5825  i */\n      dup2\n        /* \"Teamwork.sol\":5824:5842  i < membersEntered */\n      0xffff\n      and\n      lt\n        /* \"Teamwork.sol\":5805:5915  for (uint16 i = 0; i < membersEntered; i++) {... */\n      iszero\n      tag_114\n      jumpi\n        /* \"Teamwork.sol\":5881:5892  teamMembers */\n      0x03\n        /* \"Teamwork.sol\":5881:5904  teamMembers[members[i]] */\n      0x00\n        /* \"Teamwork.sol\":5893:5900  members */\n      0x04\n        /* \"Teamwork.sol\":5901:5902  i */\n      dup4\n        /* \"Teamwork.sol\":5893:5903  members[i] */\n      0xffff\n      and\n      dup2\n      sload\n      dup2\n      lt\n      tag_116\n      jumpi\n      tag_117\n      tag_118\n      jump\t// in\n    tag_117:\n    tag_116:\n      swap1\n      0x00\n      mstore\n      keccak256(0x00, 0x20)\n      add\n      0x00\n      swap1\n      sload\n      swap1\n      0x0100\n      exp\n      swap1\n      div\n      0xffffffffffffffffffffffffffffffffffffffff\n      and\n        /* \"Teamwork.sol\":5881:5904  teamMembers[members[i]] */\n      0xffffffffffffffffffffffffffffffffffffffff\n      and\n      0xffffffffffffffffffffffffffffffffffffffff\n      and\n      dup2\n      mstore\n      0x20\n      add\n      swap1\n      dup2\n      mstore\n      0x20\n      add\n      0x00\n      keccak256\n      0x00\n      swap1\n      sload\n      swap1\n      0x0100\n      exp\n      swap1\n      div\n      0xffff\n      and\n        /* \"Teamwork.sol\":5863:5875  transactions */\n      dup3\n        /* \"Teamwork.sol\":5876:5877  i */\n      dup3\n        /* \"Teamwork.sol\":5863:5878  transactions[i] */\n      0xffff\n      and\n      dup2\n      mload\n      dup2\n      lt\n      tag_120\n      jumpi\n      tag_121\n      tag_118\n      jump\t// in\n    tag_121:\n    tag_120:\n      0x20\n      mul\n      0x20\n      add\n      add\n        /* \"Teamwork.sol\":5863:5904  transactions[i] = teamMembers[members[i]] */\n      swap1\n      0xffff\n      and\n      swap1\n      dup2\n      0xffff\n      and\n      dup2\n      mstore\n      pop\n      pop\n        /* \"Teamwork.sol\":5844:5847  i++ */\n      dup1\n      dup1\n      tag_122\n      swap1\n      tag_77\n      jump\t// in\n    tag_122:\n      swap2\n      pop\n      pop\n        /* \"Teamwork.sol\":5805:5915  for (uint16 i = 0; i < membersEntered; i++) {... */\n      jump(tag_113)\n    tag_114:\n      pop\n        /* \"Teamwork.sol\":5932:5939  members */\n      0x04\n        /* \"Teamwork.sol\":5941:5953  transactions */\n      dup2\n        /* \"Teamwork.sol\":5955:5968  paymentNumber */\n      0x01\n      0x00\n      swap1\n      sload\n      swap1\n      0x0100\n      exp\n      swap1\n      div\n      0xffff\n      and\n        /* \"Teamwork.sol\":5970:5977  manager */\n      0x05\n      0x00\n      swap1\n      sload\n      swap1\n      0x0100\n      exp\n      swap1\n      div\n      0xffffffffffffffffffffffffffffffffffffffff\n      and\n        /* \"Teamwork.sol\":5924:5978  return (members, transactions, paymentNumber, manager) */\n      dup4\n      dup1\n      sload\n      dup1\n      0x20\n      mul\n      0x20\n      add\n      mload(0x40)\n      swap1\n      dup2\n      add\n      0x40\n      mstore\n      dup1\n      swap3\n      swap2\n      swap1\n      dup2\n      dup2\n      mstore\n      0x20\n      add\n      dup3\n      dup1\n      sload\n      dup1\n      iszero\n      tag_123\n      jumpi\n      0x20\n      mul\n      dup3\n      add\n      swap2\n      swap1\n      0x00\n      mstore\n      keccak256(0x00, 0x20)\n      swap1\n    tag_124:\n      dup2\n      0x00\n      swap1\n      sload\n      swap1\n      0x0100\n      exp\n      swap1\n      div\n      0xffffffffffffffffffffffffffffffffffffffff\n      and\n      0xffffffffffffffffffffffffffffffffffffffff\n      and\n      dup2\n      mstore\n      0x20\n      add\n      swap1\n      0x01\n      add\n      swap1\n      dup1\n      dup4\n      gt\n      tag_124\n      jumpi\n    tag_123:\n      pop\n      pop\n      pop\n      pop\n      pop\n      swap4\n      pop\n      swap5\n      pop\n      swap5\n      pop\n      swap5\n      pop\n      swap5\n      pop\n      pop\n        /* \"Teamwork.sol\":5541:5985  function getTeamMembers()... */\n      swap1\n      swap2\n      swap3\n      swap4\n      jump\t// out\n        /* \"#utility.yul\":7:96   */\n    tag_125:\n        /* \"#utility.yul\":43:50   */\n      0x00\n        /* \"#utility.yul\":83:89   */\n      0xffff\n        /* \"#utility.yul\":76:81   */\n      dup3\n        /* \"#utility.yul\":72:90   */\n      and\n        /* \"#utility.yul\":61:90   */\n      swap1\n      pop\n        /* \"#utility.yul\":7:96   */\n      swap2\n      swap1\n      pop\n      jump\t// out\n        /* \"#utility.yul\":102:217   */\n    tag_126:\n        /* \"#utility.yul\":187:210   */\n      tag_166\n        /* \"#utility.yul\":204:209   */\n      dup2\n        /* \"#utility.yul\":187:210   */\n      tag_125\n      jump\t// in\n    tag_166:\n        /* \"#utility.yul\":182:185   */\n      dup3\n        /* \"#utility.yul\":175:211   */\n      mstore\n        /* \"#utility.yul\":102:217   */\n      pop\n      pop\n      jump\t// out\n        /* \"#utility.yul\":223:441   */\n    tag_17:\n        /* \"#utility.yul\":314:318   */\n      0x00\n        /* \"#utility.yul\":352:354   */\n      0x20\n        /* \"#utility.yul\":341:350   */\n      dup3\n        /* \"#utility.yul\":337:355   */\n      add\n        /* \"#utility.yul\":329:355   */\n      swap1\n      pop\n        /* \"#utility.yul\":365:434   */\n      tag_168\n        /* \"#utility.yul\":431:432   */\n      0x00\n        /* \"#utility.yul\":420:429   */\n      dup4\n        /* \"#utility.yul\":416:433   */\n      add\n        /* \"#utility.yul\":407:413   */\n      dup5\n        /* \"#utility.yul\":365:434   */\n      tag_126\n      jump\t// in\n    tag_168:\n        /* \"#utility.yul\":223:441   */\n      swap3\n      swap2\n      pop\n      pop\n      jump\t// out\n        /* \"#utility.yul\":447:524   */\n    tag_127:\n        /* \"#utility.yul\":484:491   */\n      0x00\n        /* \"#utility.yul\":513:518   */\n      dup2\n        /* \"#utility.yul\":502:518   */\n      swap1\n      pop\n        /* \"#utility.yul\":447:524   */\n      swap2\n      swap1\n      pop\n      jump\t// out\n        /* \"#utility.yul\":530:648   */\n    tag_128:\n        /* \"#utility.yul\":617:641   */\n      tag_171\n        /* \"#utility.yul\":635:640   */\n      dup2\n        /* \"#utility.yul\":617:641   */\n      tag_127\n      jump\t// in\n    tag_171:\n        /* \"#utility.yul\":612:615   */\n      dup3\n        /* \"#utility.yul\":605:642   */\n      mstore\n        /* \"#utility.yul\":530:648   */\n      pop\n      pop\n      jump\t// out\n        /* \"#utility.yul\":654:876   */\n    tag_22:\n        /* \"#utility.yul\":747:751   */\n      0x00\n        /* \"#utility.yul\":785:787   */\n      0x20\n        /* \"#utility.yul\":774:783   */\n      dup3\n        /* \"#utility.yul\":770:788   */\n      add\n        /* \"#utility.yul\":762:788   */\n      swap1\n      pop\n        /* \"#utility.yul\":798:869   */\n      tag_173\n        /* \"#utility.yul\":866:867   */\n      0x00\n        /* \"#utility.yul\":855:864   */\n      dup4\n        /* \"#utility.yul\":851:868   */\n      add\n        /* \"#utility.yul\":842:848   */\n      dup5\n        /* \"#utility.yul\":798:869   */\n      tag_128\n      jump\t// in\n    tag_173:\n        /* \"#utility.yul\":654:876   */\n      swap3\n      swap2\n      pop\n      pop\n      jump\t// out\n        /* \"#utility.yul\":882:972   */\n    tag_129:\n        /* \"#utility.yul\":916:923   */\n      0x00\n        /* \"#utility.yul\":959:964   */\n      dup2\n        /* \"#utility.yul\":952:965   */\n      iszero\n        /* \"#utility.yul\":945:966   */\n      iszero\n        /* \"#utility.yul\":934:966   */\n      swap1\n      pop\n        /* \"#utility.yul\":882:972   */\n      swap2\n      swap1\n      pop\n      jump\t// out\n        /* \"#utility.yul\":978:1087   */\n    tag_130:\n        /* \"#utility.yul\":1059:1080   */\n      tag_176\n        /* \"#utility.yul\":1074:1079   */\n      dup2\n        /* \"#utility.yul\":1059:1080   */\n      tag_129\n      jump\t// in\n    tag_176:\n        /* \"#utility.yul\":1054:1057   */\n      dup3\n        /* \"#utility.yul\":1047:1081   */\n      mstore\n        /* \"#utility.yul\":978:1087   */\n      pop\n      pop\n      jump\t// out\n        /* \"#utility.yul\":1093:1192   */\n    tag_131:\n        /* \"#utility.yul\":1145:1151   */\n      0x00\n        /* \"#utility.yul\":1179:1184   */\n      dup2\n        /* \"#utility.yul\":1173:1185   */\n      mload\n        /* \"#utility.yul\":1163:1185   */\n      swap1\n      pop\n        /* \"#utility.yul\":1093:1192   */\n      swap2\n      swap1\n      pop\n      jump\t// out\n        /* \"#utility.yul\":1198:1367   */\n    tag_132:\n        /* \"#utility.yul\":1282:1293   */\n      0x00\n        /* \"#utility.yul\":1316:1322   */\n      dup3\n        /* \"#utility.yul\":1311:1314   */\n      dup3\n        /* \"#utility.yul\":1304:1323   */\n      mstore\n        /* \"#utility.yul\":1356:1360   */\n      0x20\n        /* \"#utility.yul\":1351:1354   */\n      dup3\n        /* \"#utility.yul\":1347:1361   */\n      add\n        /* \"#utility.yul\":1332:1361   */\n      swap1\n      pop\n        /* \"#utility.yul\":1198:1367   */\n      swap3\n      swap2\n      pop\n      pop\n      jump\t// out\n        /* \"#utility.yul\":1373:1680   */\n    tag_133:\n        /* \"#utility.yul\":1441:1442   */\n      0x00\n        /* \"#utility.yul\":1451:1564   */\n    tag_180:\n        /* \"#utility.yul\":1465:1471   */\n      dup4\n        /* \"#utility.yul\":1462:1463   */\n      dup2\n        /* \"#utility.yul\":1459:1472   */\n      lt\n        /* \"#utility.yul\":1451:1564   */\n      iszero\n      tag_182\n      jumpi\n        /* \"#utility.yul\":1550:1551   */\n      dup1\n        /* \"#utility.yul\":1545:1548   */\n      dup3\n        /* \"#utility.yul\":1541:1552   */\n      add\n        /* \"#utility.yul\":1535:1553   */\n      mload\n        /* \"#utility.yul\":1531:1532   */\n      dup2\n        /* \"#utility.yul\":1526:1529   */\n      dup5\n        /* \"#utility.yul\":1522:1533   */\n      add\n        /* \"#utility.yul\":1515:1554   */\n      mstore\n        /* \"#utility.yul\":1487:1489   */\n      0x20\n        /* \"#utility.yul\":1484:1485   */\n      dup2\n        /* \"#utility.yul\":1480:1490   */\n      add\n        /* \"#utility.yul\":1475:1490   */\n      swap1\n      pop\n        /* \"#utility.yul\":1451:1564   */\n      jump(tag_180)\n    tag_182:\n        /* \"#utility.yul\":1582:1588   */\n      dup4\n        /* \"#utility.yul\":1579:1580   */\n      dup2\n        /* \"#utility.yul\":1576:1589   */\n      gt\n        /* \"#utility.yul\":1573:1674   */\n      iszero\n      tag_183\n      jumpi\n        /* \"#utility.yul\":1662:1663   */\n      0x00\n        /* \"#utility.yul\":1653:1659   */\n      dup5\n        /* \"#utility.yul\":1648:1651   */\n      dup5\n        /* \"#utility.yul\":1644:1660   */\n      add\n        /* \"#utility.yul\":1637:1664   */\n      mstore\n        /* \"#utility.yul\":1573:1674   */\n    tag_183:\n        /* \"#utility.yul\":1422:1680   */\n      pop\n        /* \"#utility.yul\":1373:1680   */\n      pop\n      pop\n      pop\n      jump\t// out\n        /* \"#utility.yul\":1686:1788   */\n    tag_134:\n        /* \"#utility.yul\":1727:1733   */\n      0x00\n        /* \"#utility.yul\":1778:1780   */\n      0x1f\n        /* \"#utility.yul\":1774:1781   */\n      not\n        /* \"#utility.yul\":1769:1771   */\n      0x1f\n        /* \"#utility.yul\":1762:1767   */\n      dup4\n        /* \"#utility.yul\":1758:1772   */\n      add\n        /* \"#utility.yul\":1754:1782   */\n      and\n        /* \"#utility.yul\":1744:1782   */\n      swap1\n      pop\n        /* \"#utility.yul\":1686:1788   */\n      swap2\n      swap1\n      pop\n      jump\t// out\n        /* \"#utility.yul\":1794:2158   */\n    tag_135:\n        /* \"#utility.yul\":1882:1885   */\n      0x00\n        /* \"#utility.yul\":1910:1949   */\n      tag_186\n        /* \"#utility.yul\":1943:1948   */\n      dup3\n        /* \"#utility.yul\":1910:1949   */\n      tag_131\n      jump\t// in\n    tag_186:\n        /* \"#utility.yul\":1965:2036   */\n      tag_187\n        /* \"#utility.yul\":2029:2035   */\n      dup2\n        /* \"#utility.yul\":2024:2027   */\n      dup6\n        /* \"#utility.yul\":1965:2036   */\n      tag_132\n      jump\t// in\n    tag_187:\n        /* \"#utility.yul\":1958:2036   */\n      swap4\n      pop\n        /* \"#utility.yul\":2045:2097   */\n      tag_188\n        /* \"#utility.yul\":2090:2096   */\n      dup2\n        /* \"#utility.yul\":2085:2088   */\n      dup6\n        /* \"#utility.yul\":2078:2082   */\n      0x20\n        /* \"#utility.yul\":2071:2076   */\n      dup7\n        /* \"#utility.yul\":2067:2083   */\n      add\n        /* \"#utility.yul\":2045:2097   */\n      tag_133\n      jump\t// in\n    tag_188:\n        /* \"#utility.yul\":2122:2151   */\n      tag_189\n        /* \"#utility.yul\":2144:2150   */\n      dup2\n        /* \"#utility.yul\":2122:2151   */\n      tag_134\n      jump\t// in\n    tag_189:\n        /* \"#utility.yul\":2117:2120   */\n      dup5\n        /* \"#utility.yul\":2113:2152   */\n      add\n        /* \"#utility.yul\":2106:2152   */\n      swap2\n      pop\n        /* \"#utility.yul\":1886:2158   */\n      pop\n        /* \"#utility.yul\":1794:2158   */\n      swap3\n      swap2\n      pop\n      pop\n      jump\t// out\n        /* \"#utility.yul\":2164:2290   */\n    tag_136:\n        /* \"#utility.yul\":2201:2208   */\n      0x00\n        /* \"#utility.yul\":2241:2283   */\n      0xffffffffffffffffffffffffffffffffffffffff\n        /* \"#utility.yul\":2234:2239   */\n      dup3\n        /* \"#utility.yul\":2230:2284   */\n      and\n        /* \"#utility.yul\":2219:2284   */\n      swap1\n      pop\n        /* \"#utility.yul\":2164:2290   */\n      swap2\n      swap1\n      pop\n      jump\t// out\n        /* \"#utility.yul\":2296:2392   */\n    tag_137:\n        /* \"#utility.yul\":2333:2340   */\n      0x00\n        /* \"#utility.yul\":2362:2386   */\n      tag_192\n        /* \"#utility.yul\":2380:2385   */\n      dup3\n        /* \"#utility.yul\":2362:2386   */\n      tag_136\n      jump\t// in\n    tag_192:\n        /* \"#utility.yul\":2351:2386   */\n      swap1\n      pop\n        /* \"#utility.yul\":2296:2392   */\n      swap2\n      swap1\n      pop\n      jump\t// out\n        /* \"#utility.yul\":2398:2516   */\n    tag_138:\n        /* \"#utility.yul\":2485:2509   */\n      tag_194\n        /* \"#utility.yul\":2503:2508   */\n      dup2\n        /* \"#utility.yul\":2485:2509   */\n      tag_137\n      jump\t// in\n    tag_194:\n        /* \"#utility.yul\":2480:2483   */\n      dup3\n        /* \"#utility.yul\":2473:2510   */\n      mstore\n        /* \"#utility.yul\":2398:2516   */\n      pop\n      pop\n      jump\t// out\n        /* \"#utility.yul\":2522:3257   */\n    tag_30:\n        /* \"#utility.yul\":2737:2741   */\n      0x00\n        /* \"#utility.yul\":2775:2778   */\n      0xa0\n        /* \"#utility.yul\":2764:2773   */\n      dup3\n        /* \"#utility.yul\":2760:2779   */\n      add\n        /* \"#utility.yul\":2752:2779   */\n      swap1\n      pop\n        /* \"#utility.yul\":2789:2858   */\n      tag_196\n        /* \"#utility.yul\":2855:2856   */\n      0x00\n        /* \"#utility.yul\":2844:2853   */\n      dup4\n        /* \"#utility.yul\":2840:2857   */\n      add\n        /* \"#utility.yul\":2831:2837   */\n      dup9\n        /* \"#utility.yul\":2789:2858   */\n      tag_126\n      jump\t// in\n    tag_196:\n        /* \"#utility.yul\":2868:2938   */\n      tag_197\n        /* \"#utility.yul\":2934:2936   */\n      0x20\n        /* \"#utility.yul\":2923:2932   */\n      dup4\n        /* \"#utility.yul\":2919:2937   */\n      add\n        /* \"#utility.yul\":2910:2916   */\n      dup8\n        /* \"#utility.yul\":2868:2938   */\n      tag_126\n      jump\t// in\n    tag_197:\n        /* \"#utility.yul\":2948:3014   */\n      tag_198\n        /* \"#utility.yul\":3010:3012   */\n      0x40\n        /* \"#utility.yul\":2999:3008   */\n      dup4\n        /* \"#utility.yul\":2995:3013   */\n      add\n        /* \"#utility.yul\":2986:2992   */\n      dup7\n        /* \"#utility.yul\":2948:3014   */\n      tag_130\n      jump\t// in\n    tag_198:\n        /* \"#utility.yul\":3061:3070   */\n      dup2\n        /* \"#utility.yul\":3055:3059   */\n      dup2\n        /* \"#utility.yul\":3051:3071   */\n      sub\n        /* \"#utility.yul\":3046:3048   */\n      0x60\n        /* \"#utility.yul\":3035:3044   */\n      dup4\n        /* \"#utility.yul\":3031:3049   */\n      add\n        /* \"#utility.yul\":3024:3072   */\n      mstore\n        /* \"#utility.yul\":3089:3167   */\n      tag_199\n        /* \"#utility.yul\":3162:3166   */\n      dup2\n        /* \"#utility.yul\":3153:3159   */\n      dup6\n        /* \"#utility.yul\":3089:3167   */\n      tag_135\n      jump\t// in\n    tag_199:\n        /* \"#utility.yul\":3081:3167   */\n      swap1\n      pop\n        /* \"#utility.yul\":3177:3250   */\n      tag_200\n        /* \"#utility.yul\":3245:3248   */\n      0x80\n        /* \"#utility.yul\":3234:3243   */\n      dup4\n        /* \"#utility.yul\":3230:3249   */\n      add\n        /* \"#utility.yul\":3221:3227   */\n      dup5\n        /* \"#utility.yul\":3177:3250   */\n      tag_138\n      jump\t// in\n    tag_200:\n        /* \"#utility.yul\":2522:3257   */\n      swap7\n      swap6\n      pop\n      pop\n      pop\n      pop\n      pop\n      pop\n      jump\t// out\n        /* \"#utility.yul\":3344:3461   */\n    tag_140:\n        /* \"#utility.yul\":3453:3454   */\n      0x00\n        /* \"#utility.yul\":3450:3451   */\n      dup1\n        /* \"#utility.yul\":3443:3455   */\n      revert\n        /* \"#utility.yul\":3590:3712   */\n    tag_142:\n        /* \"#utility.yul\":3663:3687   */\n      tag_205\n        /* \"#utility.yul\":3681:3686   */\n      dup2\n        /* \"#utility.yul\":3663:3687   */\n      tag_137\n      jump\t// in\n    tag_205:\n        /* \"#utility.yul\":3656:3661   */\n      dup2\n        /* \"#utility.yul\":3653:3688   */\n      eq\n        /* \"#utility.yul\":3643:3706   */\n      tag_206\n      jumpi\n        /* \"#utility.yul\":3702:3703   */\n      0x00\n        /* \"#utility.yul\":3699:3700   */\n      dup1\n        /* \"#utility.yul\":3692:3704   */\n      revert\n        /* \"#utility.yul\":3643:3706   */\n    tag_206:\n        /* \"#utility.yul\":3590:3712   */\n      pop\n      jump\t// out\n        /* \"#utility.yul\":3718:3857   */\n    tag_143:\n        /* \"#utility.yul\":3764:3769   */\n      0x00\n        /* \"#utility.yul\":3802:3808   */\n      dup2\n        /* \"#utility.yul\":3789:3809   */\n      calldataload\n        /* \"#utility.yul\":3780:3809   */\n      swap1\n      pop\n        /* \"#utility.yul\":3818:3851   */\n      tag_208\n        /* \"#utility.yul\":3845:3850   */\n      dup2\n        /* \"#utility.yul\":3818:3851   */\n      tag_142\n      jump\t// in\n    tag_208:\n        /* \"#utility.yul\":3718:3857   */\n      swap3\n      swap2\n      pop\n      pop\n      jump\t// out\n        /* \"#utility.yul\":3863:4192   */\n    tag_37:\n        /* \"#utility.yul\":3922:3928   */\n      0x00\n        /* \"#utility.yul\":3971:3973   */\n      0x20\n        /* \"#utility.yul\":3959:3968   */\n      dup3\n        /* \"#utility.yul\":3950:3957   */\n      dup5\n        /* \"#utility.yul\":3946:3969   */\n      sub\n        /* \"#utility.yul\":3942:3974   */\n      slt\n        /* \"#utility.yul\":3939:4058   */\n      iszero\n      tag_210\n      jumpi\n        /* \"#utility.yul\":3977:4056   */\n      tag_211\n      tag_140\n      jump\t// in\n    tag_211:\n        /* \"#utility.yul\":3939:4058   */\n    tag_210:\n        /* \"#utility.yul\":4097:4098   */\n      0x00\n        /* \"#utility.yul\":4122:4175   */\n      tag_212\n        /* \"#utility.yul\":4167:4174   */\n      dup5\n        /* \"#utility.yul\":4158:4164   */\n      dup3\n        /* \"#utility.yul\":4147:4156   */\n      dup6\n        /* \"#utility.yul\":4143:4165   */\n      add\n        /* \"#utility.yul\":4122:4175   */\n      tag_143\n      jump\t// in\n    tag_212:\n        /* \"#utility.yul\":4112:4175   */\n      swap2\n      pop\n        /* \"#utility.yul\":4068:4185   */\n      pop\n        /* \"#utility.yul\":3863:4192   */\n      swap3\n      swap2\n      pop\n      pop\n      jump\t// out\n        /* \"#utility.yul\":4198:4314   */\n    tag_144:\n        /* \"#utility.yul\":4268:4289   */\n      tag_214\n        /* \"#utility.yul\":4283:4288   */\n      dup2\n        /* \"#utility.yul\":4268:4289   */\n      tag_129\n      jump\t// in\n    tag_214:\n        /* \"#utility.yul\":4261:4266   */\n      dup2\n        /* \"#utility.yul\":4258:4290   */\n      eq\n        /* \"#utility.yul\":4248:4308   */\n      tag_215\n      jumpi\n        /* \"#utility.yul\":4304:4305   */\n      0x00\n        /* \"#utility.yul\":4301:4302   */\n      dup1\n        /* \"#utility.yul\":4294:4306   */\n      revert\n        /* \"#utility.yul\":4248:4308   */\n    tag_215:\n        /* \"#utility.yul\":4198:4314   */\n      pop\n      jump\t// out\n        /* \"#utility.yul\":4320:4453   */\n    tag_145:\n        /* \"#utility.yul\":4363:4368   */\n      0x00\n        /* \"#utility.yul\":4401:4407   */\n      dup2\n        /* \"#utility.yul\":4388:4408   */\n      calldataload\n        /* \"#utility.yul\":4379:4408   */\n      swap1\n      pop\n        /* \"#utility.yul\":4417:4447   */\n      tag_217\n        /* \"#utility.yul\":4441:4446   */\n      dup2\n        /* \"#utility.yul\":4417:4447   */\n      tag_144\n      jump\t// in\n    tag_217:\n        /* \"#utility.yul\":4320:4453   */\n      swap3\n      swap2\n      pop\n      pop\n      jump\t// out\n        /* \"#utility.yul\":4459:4782   */\n    tag_42:\n        /* \"#utility.yul\":4515:4521   */\n      0x00\n        /* \"#utility.yul\":4564:4566   */\n      0x20\n        /* \"#utility.yul\":4552:4561   */\n      dup3\n        /* \"#utility.yul\":4543:4550   */\n      dup5\n        /* \"#utility.yul\":4539:4562   */\n      sub\n        /* \"#utility.yul\":4535:4567   */\n      slt\n        /* \"#utility.yul\":4532:4651   */\n      iszero\n      tag_219\n      jumpi\n        /* \"#utility.yul\":4570:4649   */\n      tag_220\n      tag_140\n      jump\t// in\n    tag_220:\n        /* \"#utility.yul\":4532:4651   */\n    tag_219:\n        /* \"#utility.yul\":4690:4691   */\n      0x00\n        /* \"#utility.yul\":4715:4765   */\n      tag_221\n        /* \"#utility.yul\":4757:4764   */\n      dup5\n        /* \"#utility.yul\":4748:4754   */\n      dup3\n        /* \"#utility.yul\":4737:4746   */\n      dup6\n        /* \"#utility.yul\":4733:4755   */\n      add\n        /* \"#utility.yul\":4715:4765   */\n      tag_145\n      jump\t// in\n    tag_221:\n        /* \"#utility.yul\":4705:4765   */\n      swap2\n      pop\n        /* \"#utility.yul\":4661:4775   */\n      pop\n        /* \"#utility.yul\":4459:4782   */\n      swap3\n      swap2\n      pop\n      pop\n      jump\t// out\n        /* \"#utility.yul\":4788:4998   */\n    tag_50:\n        /* \"#utility.yul\":4875:4879   */\n      0x00\n        /* \"#utility.yul\":4913:4915   */\n      0x20\n        /* \"#utility.yul\":4902:4911   */\n      dup3\n        /* \"#utility.yul\":4898:4916   */\n      add\n        /* \"#utility.yul\":4890:4916   */\n      swap1\n      pop\n        /* \"#utility.yul\":4926:4991   */\n      tag_223\n        /* \"#utility.yul\":4988:4989   */\n      0x00\n        /* \"#utility.yul\":4977:4986   */\n      dup4\n        /* \"#utility.yul\":4973:4990   */\n      add\n        /* \"#utility.yul\":4964:4970   */\n      dup5\n        /* \"#utility.yul\":4926:4991   */\n      tag_130\n      jump\t// in\n    tag_223:\n        /* \"#utility.yul\":4788:4998   */\n      swap3\n      swap2\n      pop\n      pop\n      jump\t// out\n        /* \"#utility.yul\":5004:5118   */\n    tag_146:\n        /* \"#utility.yul\":5071:5077   */\n      0x00\n        /* \"#utility.yul\":5105:5110   */\n      dup2\n        /* \"#utility.yul\":5099:5111   */\n      mload\n        /* \"#utility.yul\":5089:5111   */\n      swap1\n      pop\n        /* \"#utility.yul\":5004:5118   */\n      swap2\n      swap1\n      pop\n      jump\t// out\n        /* \"#utility.yul\":5124:5308   */\n    tag_147:\n        /* \"#utility.yul\":5223:5234   */\n      0x00\n        /* \"#utility.yul\":5257:5263   */\n      dup3\n        /* \"#utility.yul\":5252:5255   */\n      dup3\n        /* \"#utility.yul\":5245:5264   */\n      mstore\n        /* \"#utility.yul\":5297:5301   */\n      0x20\n        /* \"#utility.yul\":5292:5295   */\n      dup3\n        /* \"#utility.yul\":5288:5302   */\n      add\n        /* \"#utility.yul\":5273:5302   */\n      swap1\n      pop\n        /* \"#utility.yul\":5124:5308   */\n      swap3\n      swap2\n      pop\n      pop\n      jump\t// out\n        /* \"#utility.yul\":5314:5446   */\n    tag_148:\n        /* \"#utility.yul\":5381:5385   */\n      0x00\n        /* \"#utility.yul\":5404:5407   */\n      dup2\n        /* \"#utility.yul\":5396:5407   */\n      swap1\n      pop\n        /* \"#utility.yul\":5434:5438   */\n      0x20\n        /* \"#utility.yul\":5429:5432   */\n      dup3\n        /* \"#utility.yul\":5425:5439   */\n      add\n        /* \"#utility.yul\":5417:5439   */\n      swap1\n      pop\n        /* \"#utility.yul\":5314:5446   */\n      swap2\n      swap1\n      pop\n      jump\t// out\n        /* \"#utility.yul\":5452:5560   */\n    tag_149:\n        /* \"#utility.yul\":5529:5553   */\n      tag_228\n        /* \"#utility.yul\":5547:5552   */\n      dup2\n        /* \"#utility.yul\":5529:5553   */\n      tag_137\n      jump\t// in\n    tag_228:\n        /* \"#utility.yul\":5524:5527   */\n      dup3\n        /* \"#utility.yul\":5517:5554   */\n      mstore\n        /* \"#utility.yul\":5452:5560   */\n      pop\n      pop\n      jump\t// out\n        /* \"#utility.yul\":5566:5745   */\n    tag_150:\n        /* \"#utility.yul\":5635:5645   */\n      0x00\n        /* \"#utility.yul\":5656:5702   */\n      tag_230\n        /* \"#utility.yul\":5698:5701   */\n      dup4\n        /* \"#utility.yul\":5690:5696   */\n      dup4\n        /* \"#utility.yul\":5656:5702   */\n      tag_149\n      jump\t// in\n    tag_230:\n        /* \"#utility.yul\":5734:5738   */\n      0x20\n        /* \"#utility.yul\":5729:5732   */\n      dup4\n        /* \"#utility.yul\":5725:5739   */\n      add\n        /* \"#utility.yul\":5711:5739   */\n      swap1\n      pop\n        /* \"#utility.yul\":5566:5745   */\n      swap3\n      swap2\n      pop\n      pop\n      jump\t// out\n        /* \"#utility.yul\":5751:5864   */\n    tag_151:\n        /* \"#utility.yul\":5821:5825   */\n      0x00\n        /* \"#utility.yul\":5853:5857   */\n      0x20\n        /* \"#utility.yul\":5848:5851   */\n      dup3\n        /* \"#utility.yul\":5844:5858   */\n      add\n        /* \"#utility.yul\":5836:5858   */\n      swap1\n      pop\n        /* \"#utility.yul\":5751:5864   */\n      swap2\n      swap1\n      pop\n      jump\t// out\n        /* \"#utility.yul\":5900:6632   */\n    tag_152:\n        /* \"#utility.yul\":6019:6022   */\n      0x00\n        /* \"#utility.yul\":6048:6102   */\n      tag_233\n        /* \"#utility.yul\":6096:6101   */\n      dup3\n        /* \"#utility.yul\":6048:6102   */\n      tag_146\n      jump\t// in\n    tag_233:\n        /* \"#utility.yul\":6118:6204   */\n      tag_234\n        /* \"#utility.yul\":6197:6203   */\n      dup2\n        /* \"#utility.yul\":6192:6195   */\n      dup6\n        /* \"#utility.yul\":6118:6204   */\n      tag_147\n      jump\t// in\n    tag_234:\n        /* \"#utility.yul\":6111:6204   */\n      swap4\n      pop\n        /* \"#utility.yul\":6228:6284   */\n      tag_235\n        /* \"#utility.yul\":6278:6283   */\n      dup4\n        /* \"#utility.yul\":6228:6284   */\n      tag_148\n      jump\t// in\n    tag_235:\n        /* \"#utility.yul\":6307:6314   */\n      dup1\n        /* \"#utility.yul\":6338:6339   */\n      0x00\n        /* \"#utility.yul\":6323:6607   */\n    tag_236:\n        /* \"#utility.yul\":6348:6354   */\n      dup4\n        /* \"#utility.yul\":6345:6346   */\n      dup2\n        /* \"#utility.yul\":6342:6355   */\n      lt\n        /* \"#utility.yul\":6323:6607   */\n      iszero\n      tag_238\n      jumpi\n        /* \"#utility.yul\":6424:6430   */\n      dup2\n        /* \"#utility.yul\":6418:6431   */\n      mload\n        /* \"#utility.yul\":6451:6514   */\n      tag_239\n        /* \"#utility.yul\":6510:6513   */\n      dup9\n        /* \"#utility.yul\":6495:6508   */\n      dup3\n        /* \"#utility.yul\":6451:6514   */\n      tag_150\n      jump\t// in\n    tag_239:\n        /* \"#utility.yul\":6444:6514   */\n      swap8\n      pop\n        /* \"#utility.yul\":6537:6597   */\n      tag_240\n        /* \"#utility.yul\":6590:6596   */\n      dup4\n        /* \"#utility.yul\":6537:6597   */\n      tag_151\n      jump\t// in\n    tag_240:\n        /* \"#utility.yul\":6527:6597   */\n      swap3\n      pop\n        /* \"#utility.yul\":6383:6607   */\n      pop\n        /* \"#utility.yul\":6370:6371   */\n      0x01\n        /* \"#utility.yul\":6367:6368   */\n      dup2\n        /* \"#utility.yul\":6363:6372   */\n      add\n        /* \"#utility.yul\":6358:6372   */\n      swap1\n      pop\n        /* \"#utility.yul\":6323:6607   */\n      jump(tag_236)\n    tag_238:\n        /* \"#utility.yul\":6327:6341   */\n      pop\n        /* \"#utility.yul\":6623:6626   */\n      dup6\n        /* \"#utility.yul\":6616:6626   */\n      swap4\n      pop\n        /* \"#utility.yul\":6024:6632   */\n      pop\n      pop\n      pop\n        /* \"#utility.yul\":5900:6632   */\n      swap3\n      swap2\n      pop\n      pop\n      jump\t// out\n        /* \"#utility.yul\":6638:6751   */\n    tag_153:\n        /* \"#utility.yul\":6704:6710   */\n      0x00\n        /* \"#utility.yul\":6738:6743   */\n      dup2\n        /* \"#utility.yul\":6732:6744   */\n      mload\n        /* \"#utility.yul\":6722:6744   */\n      swap1\n      pop\n        /* \"#utility.yul\":6638:6751   */\n      swap2\n      swap1\n      pop\n      jump\t// out\n        /* \"#utility.yul\":6757:6940   */\n    tag_154:\n        /* \"#utility.yul\":6855:6866   */\n      0x00\n        /* \"#utility.yul\":6889:6895   */\n      dup3\n        /* \"#utility.yul\":6884:6887   */\n      dup3\n        /* \"#utility.yul\":6877:6896   */\n      mstore\n        /* \"#utility.yul\":6929:6933   */\n      0x20\n        /* \"#utility.yul\":6924:6927   */\n      dup3\n        /* \"#utility.yul\":6920:6934   */\n      add\n        /* \"#utility.yul\":6905:6934   */\n      swap1\n      pop\n        /* \"#utility.yul\":6757:6940   */\n      swap3\n      swap2\n      pop\n      pop\n      jump\t// out\n        /* \"#utility.yul\":6946:7077   */\n    tag_155:\n        /* \"#utility.yul\":7012:7016   */\n      0x00\n        /* \"#utility.yul\":7035:7038   */\n      dup2\n        /* \"#utility.yul\":7027:7038   */\n      swap1\n      pop\n        /* \"#utility.yul\":7065:7069   */\n      0x20\n        /* \"#utility.yul\":7060:7063   */\n      dup3\n        /* \"#utility.yul\":7056:7070   */\n      add\n        /* \"#utility.yul\":7048:7070   */\n      swap1\n      pop\n        /* \"#utility.yul\":6946:7077   */\n      swap2\n      swap1\n      pop\n      jump\t// out\n        /* \"#utility.yul\":7083:7188   */\n    tag_156:\n        /* \"#utility.yul\":7158:7181   */\n      tag_245\n        /* \"#utility.yul\":7175:7180   */\n      dup2\n        /* \"#utility.yul\":7158:7181   */\n      tag_125\n      jump\t// in\n    tag_245:\n        /* \"#utility.yul\":7153:7156   */\n      dup3\n        /* \"#utility.yul\":7146:7182   */\n      mstore\n        /* \"#utility.yul\":7083:7188   */\n      pop\n      pop\n      jump\t// out\n        /* \"#utility.yul\":7194:7369   */\n    tag_157:\n        /* \"#utility.yul\":7261:7271   */\n      0x00\n        /* \"#utility.yul\":7282:7326   */\n      tag_247\n        /* \"#utility.yul\":7322:7325   */\n      dup4\n        /* \"#utility.yul\":7314:7320   */\n      dup4\n        /* \"#utility.yul\":7282:7326   */\n      tag_156\n      jump\t// in\n    tag_247:\n        /* \"#utility.yul\":7358:7362   */\n      0x20\n        /* \"#utility.yul\":7353:7356   */\n      dup4\n        /* \"#utility.yul\":7349:7363   */\n      add\n        /* \"#utility.yul\":7335:7363   */\n      swap1\n      pop\n        /* \"#utility.yul\":7194:7369   */\n      swap3\n      swap2\n      pop\n      pop\n      jump\t// out\n        /* \"#utility.yul\":7375:7487   */\n    tag_158:\n        /* \"#utility.yul\":7444:7448   */\n      0x00\n        /* \"#utility.yul\":7476:7480   */\n      0x20\n        /* \"#utility.yul\":7471:7474   */\n      dup3\n        /* \"#utility.yul\":7467:7481   */\n      add\n        /* \"#utility.yul\":7459:7481   */\n      swap1\n      pop\n        /* \"#utility.yul\":7375:7487   */\n      swap2\n      swap1\n      pop\n      jump\t// out\n        /* \"#utility.yul\":7521:8245   */\n    tag_159:\n        /* \"#utility.yul\":7638:7641   */\n      0x00\n        /* \"#utility.yul\":7667:7720   */\n      tag_250\n        /* \"#utility.yul\":7714:7719   */\n      dup3\n        /* \"#utility.yul\":7667:7720   */\n      tag_153\n      jump\t// in\n    tag_250:\n        /* \"#utility.yul\":7736:7821   */\n      tag_251\n        /* \"#utility.yul\":7814:7820   */\n      dup2\n        /* \"#utility.yul\":7809:7812   */\n      dup6\n        /* \"#utility.yul\":7736:7821   */\n      tag_154\n      jump\t// in\n    tag_251:\n        /* \"#utility.yul\":7729:7821   */\n      swap4\n      pop\n        /* \"#utility.yul\":7845:7900   */\n      tag_252\n        /* \"#utility.yul\":7894:7899   */\n      dup4\n        /* \"#utility.yul\":7845:7900   */\n      tag_155\n      jump\t// in\n    tag_252:\n        /* \"#utility.yul\":7923:7930   */\n      dup1\n        /* \"#utility.yul\":7954:7955   */\n      0x00\n        /* \"#utility.yul\":7939:8220   */\n    tag_253:\n        /* \"#utility.yul\":7964:7970   */\n      dup4\n        /* \"#utility.yul\":7961:7962   */\n      dup2\n        /* \"#utility.yul\":7958:7971   */\n      lt\n        /* \"#utility.yul\":7939:8220   */\n      iszero\n      tag_255\n      jumpi\n        /* \"#utility.yul\":8040:8046   */\n      dup2\n        /* \"#utility.yul\":8034:8047   */\n      mload\n        /* \"#utility.yul\":8067:8128   */\n      tag_256\n        /* \"#utility.yul\":8124:8127   */\n      dup9\n        /* \"#utility.yul\":8109:8122   */\n      dup3\n        /* \"#utility.yul\":8067:8128   */\n      tag_157\n      jump\t// in\n    tag_256:\n        /* \"#utility.yul\":8060:8128   */\n      swap8\n      pop\n        /* \"#utility.yul\":8151:8210   */\n      tag_257\n        /* \"#utility.yul\":8203:8209   */\n      dup4\n        /* \"#utility.yul\":8151:8210   */\n      tag_158\n      jump\t// in\n    tag_257:\n        /* \"#utility.yul\":8141:8210   */\n      swap3\n      pop\n        /* \"#utility.yul\":7999:8220   */\n      pop\n        /* \"#utility.yul\":7986:7987   */\n      0x01\n        /* \"#utility.yul\":7983:7984   */\n      dup2\n        /* \"#utility.yul\":7979:7988   */\n      add\n        /* \"#utility.yul\":7974:7988   */\n      swap1\n      pop\n        /* \"#utility.yul\":7939:8220   */\n      jump(tag_253)\n    tag_255:\n        /* \"#utility.yul\":7943:7957   */\n      pop\n        /* \"#utility.yul\":8236:8239   */\n      dup6\n        /* \"#utility.yul\":8229:8239   */\n      swap4\n      pop\n        /* \"#utility.yul\":7643:8245   */\n      pop\n      pop\n      pop\n        /* \"#utility.yul\":7521:8245   */\n      swap3\n      swap2\n      pop\n      pop\n      jump\t// out\n        /* \"#utility.yul\":8251:9098   */\n    tag_55:\n        /* \"#utility.yul\":8524:8528   */\n      0x00\n        /* \"#utility.yul\":8562:8565   */\n      0x80\n        /* \"#utility.yul\":8551:8560   */\n      dup3\n        /* \"#utility.yul\":8547:8566   */\n      add\n        /* \"#utility.yul\":8539:8566   */\n      swap1\n      pop\n        /* \"#utility.yul\":8612:8621   */\n      dup2\n        /* \"#utility.yul\":8606:8610   */\n      dup2\n        /* \"#utility.yul\":8602:8622   */\n      sub\n        /* \"#utility.yul\":8598:8599   */\n      0x00\n        /* \"#utility.yul\":8587:8596   */\n      dup4\n        /* \"#utility.yul\":8583:8600   */\n      add\n        /* \"#utility.yul\":8576:8623   */\n      mstore\n        /* \"#utility.yul\":8640:8748   */\n      tag_259\n        /* \"#utility.yul\":8743:8747   */\n      dup2\n        /* \"#utility.yul\":8734:8740   */\n      dup8\n        /* \"#utility.yul\":8640:8748   */\n      tag_152\n      jump\t// in\n    tag_259:\n        /* \"#utility.yul\":8632:8748   */\n      swap1\n      pop\n        /* \"#utility.yul\":8795:8804   */\n      dup2\n        /* \"#utility.yul\":8789:8793   */\n      dup2\n        /* \"#utility.yul\":8785:8805   */\n      sub\n        /* \"#utility.yul\":8780:8782   */\n      0x20\n        /* \"#utility.yul\":8769:8778   */\n      dup4\n        /* \"#utility.yul\":8765:8783   */\n      add\n        /* \"#utility.yul\":8758:8806   */\n      mstore\n        /* \"#utility.yul\":8823:8929   */\n      tag_260\n        /* \"#utility.yul\":8924:8928   */\n      dup2\n        /* \"#utility.yul\":8915:8921   */\n      dup7\n        /* \"#utility.yul\":8823:8929   */\n      tag_159\n      jump\t// in\n    tag_260:\n        /* \"#utility.yul\":8815:8929   */\n      swap1\n      pop\n        /* \"#utility.yul\":8939:9009   */\n      tag_261\n        /* \"#utility.yul\":9005:9007   */\n      0x40\n        /* \"#utility.yul\":8994:9003   */\n      dup4\n        /* \"#utility.yul\":8990:9008   */\n      add\n        /* \"#utility.yul\":8981:8987   */\n      dup6\n        /* \"#utility.yul\":8939:9009   */\n      tag_126\n      jump\t// in\n    tag_261:\n        /* \"#utility.yul\":9019:9091   */\n      tag_262\n        /* \"#utility.yul\":9087:9089   */\n      0x60\n        /* \"#utility.yul\":9076:9085   */\n      dup4\n        /* \"#utility.yul\":9072:9090   */\n      add\n        /* \"#utility.yul\":9063:9069   */\n      dup5\n        /* \"#utility.yul\":9019:9091   */\n      tag_138\n      jump\t// in\n    tag_262:\n        /* \"#utility.yul\":8251:9098   */\n      swap6\n      swap5\n      pop\n      pop\n      pop\n      pop\n      pop\n      jump\t// out\n        /* \"#utility.yul\":9104:9284   */\n    tag_160:\n        /* \"#utility.yul\":9152:9229   */\n      0x4e487b7100000000000000000000000000000000000000000000000000000000\n        /* \"#utility.yul\":9149:9150   */\n      0x00\n        /* \"#utility.yul\":9142:9230   */\n      mstore\n        /* \"#utility.yul\":9249:9253   */\n      0x11\n        /* \"#utility.yul\":9246:9247   */\n      0x04\n        /* \"#utility.yul\":9239:9254   */\n      mstore\n        /* \"#utility.yul\":9273:9277   */\n      0x24\n        /* \"#utility.yul\":9270:9271   */\n      0x00\n        /* \"#utility.yul\":9263:9278   */\n      revert\n        /* \"#utility.yul\":9290:9532   */\n    tag_64:\n        /* \"#utility.yul\":9329:9332   */\n      0x00\n        /* \"#utility.yul\":9348:9367   */\n      tag_265\n        /* \"#utility.yul\":9365:9366   */\n      dup3\n        /* \"#utility.yul\":9348:9367   */\n      tag_125\n      jump\t// in\n    tag_265:\n        /* \"#utility.yul\":9343:9367   */\n      swap2\n      pop\n        /* \"#utility.yul\":9381:9400   */\n      tag_266\n        /* \"#utility.yul\":9398:9399   */\n      dup4\n        /* \"#utility.yul\":9381:9400   */\n      tag_125\n      jump\t// in\n    tag_266:\n        /* \"#utility.yul\":9376:9400   */\n      swap3\n      pop\n        /* \"#utility.yul\":9474:9475   */\n      dup3\n        /* \"#utility.yul\":9466:9472   */\n      0xffff\n        /* \"#utility.yul\":9462:9476   */\n      sub\n        /* \"#utility.yul\":9459:9460   */\n      dup3\n        /* \"#utility.yul\":9456:9477   */\n      gt\n        /* \"#utility.yul\":9453:9500   */\n      iszero\n      tag_267\n      jumpi\n        /* \"#utility.yul\":9480:9498   */\n      tag_268\n      tag_160\n      jump\t// in\n    tag_268:\n        /* \"#utility.yul\":9453:9500   */\n    tag_267:\n        /* \"#utility.yul\":9524:9525   */\n      dup3\n        /* \"#utility.yul\":9521:9522   */\n      dup3\n        /* \"#utility.yul\":9517:9526   */\n      add\n        /* \"#utility.yul\":9510:9526   */\n      swap1\n      pop\n        /* \"#utility.yul\":9290:9532   */\n      swap3\n      swap2\n      pop\n      pop\n      jump\t// out\n        /* \"#utility.yul\":9538:9718   */\n    tag_161:\n        /* \"#utility.yul\":9586:9663   */\n      0x4e487b7100000000000000000000000000000000000000000000000000000000\n        /* \"#utility.yul\":9583:9584   */\n      0x00\n        /* \"#utility.yul\":9576:9664   */\n      mstore\n        /* \"#utility.yul\":9683:9687   */\n      0x22\n        /* \"#utility.yul\":9680:9681   */\n      0x04\n        /* \"#utility.yul\":9673:9688   */\n      mstore\n        /* \"#utility.yul\":9707:9711   */\n      0x24\n        /* \"#utility.yul\":9704:9705   */\n      0x00\n        /* \"#utility.yul\":9697:9712   */\n      revert\n        /* \"#utility.yul\":9724:10044   */\n    tag_67:\n        /* \"#utility.yul\":9768:9774   */\n      0x00\n        /* \"#utility.yul\":9805:9806   */\n      0x02\n        /* \"#utility.yul\":9799:9803   */\n      dup3\n        /* \"#utility.yul\":9795:9807   */\n      div\n        /* \"#utility.yul\":9785:9807   */\n      swap1\n      pop\n        /* \"#utility.yul\":9852:9853   */\n      0x01\n        /* \"#utility.yul\":9846:9850   */\n      dup3\n        /* \"#utility.yul\":9842:9854   */\n      and\n        /* \"#utility.yul\":9873:9891   */\n      dup1\n        /* \"#utility.yul\":9863:9944   */\n      tag_271\n      jumpi\n        /* \"#utility.yul\":9929:9933   */\n      0x7f\n        /* \"#utility.yul\":9921:9927   */\n      dup3\n        /* \"#utility.yul\":9917:9934   */\n      and\n        /* \"#utility.yul\":9907:9934   */\n      swap2\n      pop\n        /* \"#utility.yul\":9863:9944   */\n    tag_271:\n        /* \"#utility.yul\":9991:9993   */\n      0x20\n        /* \"#utility.yul\":9983:9989   */\n      dup3\n        /* \"#utility.yul\":9980:9994   */\n      lt\n        /* \"#utility.yul\":9960:9978   */\n      dup2\n        /* \"#utility.yul\":9957:9995   */\n      eq\n        /* \"#utility.yul\":9954:10038   */\n      iszero\n      tag_272\n      jumpi\n        /* \"#utility.yul\":10010:10028   */\n      tag_273\n      tag_161\n      jump\t// in\n    tag_273:\n        /* \"#utility.yul\":9954:10038   */\n    tag_272:\n        /* \"#utility.yul\":9775:10044   */\n      pop\n        /* \"#utility.yul\":9724:10044   */\n      swap2\n      swap1\n      pop\n      jump\t// out\n        /* \"#utility.yul\":10050:10221   */\n    tag_77:\n        /* \"#utility.yul\":10088:10091   */\n      0x00\n        /* \"#utility.yul\":10111:10134   */\n      tag_275\n        /* \"#utility.yul\":10128:10133   */\n      dup3\n        /* \"#utility.yul\":10111:10134   */\n      tag_125\n      jump\t// in\n    tag_275:\n        /* \"#utility.yul\":10102:10134   */\n      swap2\n      pop\n        /* \"#utility.yul\":10156:10162   */\n      0xffff\n        /* \"#utility.yul\":10149:10154   */\n      dup3\n        /* \"#utility.yul\":10146:10163   */\n      eq\n        /* \"#utility.yul\":10143:10186   */\n      iszero\n      tag_276\n      jumpi\n        /* \"#utility.yul\":10166:10184   */\n      tag_277\n      tag_160\n      jump\t// in\n    tag_277:\n        /* \"#utility.yul\":10143:10186   */\n    tag_276:\n        /* \"#utility.yul\":10213:10214   */\n      0x01\n        /* \"#utility.yul\":10206:10211   */\n      dup3\n        /* \"#utility.yul\":10202:10215   */\n      add\n        /* \"#utility.yul\":10195:10215   */\n      swap1\n      pop\n        /* \"#utility.yul\":10050:10221   */\n      swap2\n      swap1\n      pop\n      jump\t// out\n        /* \"#utility.yul\":10227:10575   */\n    tag_101:\n        /* \"#utility.yul\":10267:10274   */\n      0x00\n        /* \"#utility.yul\":10290:10310   */\n      tag_279\n        /* \"#utility.yul\":10308:10309   */\n      dup3\n        /* \"#utility.yul\":10290:10310   */\n      tag_127\n      jump\t// in\n    tag_279:\n        /* \"#utility.yul\":10285:10310   */\n      swap2\n      pop\n        /* \"#utility.yul\":10324:10344   */\n      tag_280\n        /* \"#utility.yul\":10342:10343   */\n      dup4\n        /* \"#utility.yul\":10324:10344   */\n      tag_127\n      jump\t// in\n    tag_280:\n        /* \"#utility.yul\":10319:10344   */\n      swap3\n      pop\n        /* \"#utility.yul\":10512:10513   */\n      dup2\n        /* \"#utility.yul\":10444:10510   */\n      0xffffffffffffffffffffffffffffffffffffffffffffffffffffffffffffffff\n        /* \"#utility.yul\":10440:10514   */\n      div\n        /* \"#utility.yul\":10437:10438   */\n      dup4\n        /* \"#utility.yul\":10434:10515   */\n      gt\n        /* \"#utility.yul\":10429:10430   */\n      dup3\n        /* \"#utility.yul\":10422:10431   */\n      iszero\n        /* \"#utility.yul\":10415:10432   */\n      iszero\n        /* \"#utility.yul\":10411:10516   */\n      and\n        /* \"#utility.yul\":10408:10539   */\n      iszero\n      tag_281\n      jumpi\n        /* \"#utility.yul\":10519:10537   */\n      tag_282\n      tag_160\n      jump\t// in\n    tag_282:\n        /* \"#utility.yul\":10408:10539   */\n    tag_281:\n        /* \"#utility.yul\":10567:10568   */\n      dup3\n        /* \"#utility.yul\":10564:10565   */\n      dup3\n        /* \"#utility.yul\":10560:10569   */\n      mul\n        /* \"#utility.yul\":10549:10569   */\n      swap1\n      pop\n        /* \"#utility.yul\":10227:10575   */\n      swap3\n      swap2\n      pop\n      pop\n      jump\t// out\n        /* \"#utility.yul\":10581:10761   */\n    tag_162:\n        /* \"#utility.yul\":10629:10706   */\n      0x4e487b7100000000000000000000000000000000000000000000000000000000\n        /* \"#utility.yul\":10626:10627   */\n      0x00\n        /* \"#utility.yul\":10619:10707   */\n      mstore\n        /* \"#utility.yul\":10726:10730   */\n      0x12\n        /* \"#utility.yul\":10723:10724   */\n      0x04\n        /* \"#utility.yul\":10716:10731   */\n      mstore\n        /* \"#utility.yul\":10750:10754   */\n      0x24\n        /* \"#utility.yul\":10747:10748   */\n      0x00\n        /* \"#utility.yul\":10740:10755   */\n      revert\n        /* \"#utility.yul\":10767:10952   */\n    tag_103:\n        /* \"#utility.yul\":10807:10808   */\n      0x00\n        /* \"#utility.yul\":10824:10844   */\n      tag_285\n        /* \"#utility.yul\":10842:10843   */\n      dup3\n        /* \"#utility.yul\":10824:10844   */\n      tag_127\n      jump\t// in\n    tag_285:\n        /* \"#utility.yul\":10819:10844   */\n      swap2\n      pop\n        /* \"#utility.yul\":10858:10878   */\n      tag_286\n        /* \"#utility.yul\":10876:10877   */\n      dup4\n        /* \"#utility.yul\":10858:10878   */\n      tag_127\n      jump\t// in\n    tag_286:\n        /* \"#utility.yul\":10853:10878   */\n      swap3\n      pop\n        /* \"#utility.yul\":10897:10898   */\n      dup3\n        /* \"#utility.yul\":10887:10922   */\n      tag_287\n      jumpi\n        /* \"#utility.yul\":10902:10920   */\n      tag_288\n      tag_162\n      jump\t// in\n    tag_288:\n        /* \"#utility.yul\":10887:10922   */\n    tag_287:\n        /* \"#utility.yul\":10944:10945   */\n      dup3\n        /* \"#utility.yul\":10941:10942   */\n      dup3\n        /* \"#utility.yul\":10937:10946   */\n      div\n        /* \"#utility.yul\":10932:10946   */\n      swap1\n      pop\n        /* \"#utility.yul\":10767:10952   */\n      swap3\n      swap2\n      pop\n      pop\n      jump\t// out\n        /* \"#utility.yul\":10958:11138   */\n    tag_111:\n        /* \"#utility.yul\":11006:11083   */\n      0x4e487b7100000000000000000000000000000000000000000000000000000000\n        /* \"#utility.yul\":11003:11004   */\n      0x00\n        /* \"#utility.yul\":10996:11084   */\n      mstore\n        /* \"#utility.yul\":11103:11107   */\n      0x41\n        /* \"#utility.yul\":11100:11101   */\n      0x04\n        /* \"#utility.yul\":11093:11108   */\n      mstore\n        /* \"#utility.yul\":11127:11131   */\n      0x24\n        /* \"#utility.yul\":11124:11125   */\n      0x00\n        /* \"#utility.yul\":11117:11132   */\n      revert\n        /* \"#utility.yul\":11144:11324   */\n    tag_118:\n        /* \"#utility.yul\":11192:11269   */\n      0x4e487b7100000000000000000000000000000000000000000000000000000000\n        /* \"#utility.yul\":11189:11190   */\n      0x00\n        /* \"#utility.yul\":11182:11270   */\n      mstore\n        /* \"#utility.yul\":11289:11293   */\n      0x32\n        /* \"#utility.yul\":11286:11287   */\n      0x04\n        /* \"#utility.yul\":11279:11294   */\n      mstore\n        /* \"#utility.yul\":11313:11317   */\n      0x24\n        /* \"#utility.yul\":11310:11311   */\n      0x00\n        /* \"#utility.yul\":11303:11318   */\n      revert\n\n    auxdata: 0xa2646970667358221220c8bf1c9bc99e8ca2899b2b7234952b2aaa62460613a6d0031fbd0c8515d04a8664736f6c63430008090033\n}\n","bytecode":{"linkReferences":{},"object":"6080604052600080556000600160006101000a81548161ffff021916908361ffff1602179055506000600160046101000a81548161ffff021916908361ffff1602179055506064600160066101000a81548161ffff021916908361ffff1602179055506000600160086101000a81548160ff0219169083151502179055503480156200008a57600080fd5b5060405162001b4e38038062001b4e8339818101604052810190620000b091906200057e565b81600560006101000a81548173ffffffffffffffffffffffffffffffffffffffff021916908373ffffffffffffffffffffffffffffffffffffffff16021790555082600160026101000a81548161ffff021916908361ffff1602179055508360029080519060200190620001269291906200028d565b50600160036000600560009054906101000a900473ffffffffffffffffffffffffffffffffffffffff1673ffffffffffffffffffffffffffffffffffffffff1673ffffffffffffffffffffffffffffffffffffffff16815260200190815260200160002060006101000a81548161ffff021916908361ffff1602179055506004600560009054906101000a900473ffffffffffffffffffffffffffffffffffffffff169080600181540180825580915050600190039060005260206000200160009091909190916101000a81548173ffffffffffffffffffffffffffffffffffffffff021916908373ffffffffffffffffffffffffffffffffffffffff1602179055506001600481819054906101000a900461ffff16809291906200024b906200063e565b91906101000a81548161ffff021916908361ffff1602179055505080600160066101000a81548161ffff021916908361ffff16021790555050505050620006d3565b8280546200029b906200069d565b90600052602060002090601f016020900481019282620002bf57600085556200030b565b82601f10620002da57805160ff19168380011785556200030b565b828001600101855582156200030b579182015b828111156200030a578251825591602001919060010190620002ed565b5b5090506200031a91906200031e565b5090565b5b80821115620003395760008160009055506001016200031f565b5090565b6000604051905090565b600080fd5b600080fd5b600080fd5b600080fd5b6000601f19601f8301169050919050565b7f4e487b7100000000000000000000000000000000000000000000000000000000600052604160045260246000fd5b620003a6826200035b565b810181811067ffffffffffffffff82111715620003c857620003c76200036c565b5b80604052505050565b6000620003dd6200033d565b9050620003eb82826200039b565b919050565b600067ffffffffffffffff8211156200040e576200040d6200036c565b5b62000419826200035b565b9050602081019050919050565b60005b838110156200044657808201518184015260208101905062000429565b8381111562000456576000848401525b50505050565b6000620004736200046d84620003f0565b620003d1565b90508281526020810184848401111562000492576200049162000356565b5b6200049f84828562000426565b509392505050565b600082601f830112620004bf57620004be62000351565b5b8151620004d18482602086016200045c565b91505092915050565b600061ffff82169050919050565b620004f381620004da565b8114620004ff57600080fd5b50565b6000815190506200051381620004e8565b92915050565b600073ffffffffffffffffffffffffffffffffffffffff82169050919050565b6000620005468262000519565b9050919050565b620005588162000539565b81146200056457600080fd5b50565b60008151905062000578816200054d565b92915050565b600080600080608085870312156200059b576200059a62000347565b5b600085015167ffffffffffffffff811115620005bc57620005bb6200034c565b5b620005ca87828801620004a7565b9450506020620005dd8782880162000502565b9350506040620005f08782880162000567565b9250506060620006038782880162000502565b91505092959194509250565b7f4e487b7100000000000000000000000000000000000000000000000000000000600052601160045260246000fd5b60006200064b82620004da565b915061ffff8214156200066357620006626200060f565b5b600182019050919050565b7f4e487b7100000000000000000000000000000000000000000000000000000000600052602260045260246000fd5b60006002820490506001821680620006b657607f821691505b60208210811415620006cd57620006cc6200066e565b5b50919050565b61146b80620006e36000396000f3fe6080604052600436106100915760003560e01c8063785ef29d11610059578063785ef29d146101495780639b3de49b14610172578063bee40f881461019b578063ce46e046146101a5578063efded147146101d057610091565b806307f104151461009657806312065fe0146100c1578063266d02a1146100ec5780634051ddac146101035780634217df1214610132575b600080fd5b3480156100a257600080fd5b506100ab6101fe565b6040516100b89190610deb565b60405180910390f35b3480156100cd57600080fd5b506100d6610212565b6040516100e39190610e1f565b60405180910390f35b3480156100f857600080fd5b5061010161021a565b005b34801561010f57600080fd5b5061011861041a565b604051610129959493929190610f2f565b60405180910390f35b34801561013e57600080fd5b50610147610517565b005b34801561015557600080fd5b50610170600480360381019061016b9190610fba565b6106e8565b005b34801561017e57600080fd5b5061019960048036038101906101949190611013565b61099e565b005b6101a3610a68565b005b3480156101b157600080fd5b506101ba610b6e565b6040516101c79190611040565b60405180910390f35b3480156101dc57600080fd5b506101e5610ba5565b6040516101f594939291906111d7565b60405180910390f35b600160049054906101000a900461ffff1681565b600047905090565b600160049054906101000a900461ffff1661ffff16600160029054906101000a900461ffff1661ffff161461024e57600080fd5b6000600360003373ffffffffffffffffffffffffffffffffffffffff1673ffffffffffffffffffffffffffffffffffffffff16815260200190815260200160002060009054906101000a900461ffff1661ffff161180156103135750600160009054906101000a900461ffff1661ffff16600360003373ffffffffffffffffffffffffffffffffffffffff1673ffffffffffffffffffffffffffffffffffffffff16815260200190815260200160002060009054906101000a900461ffff1661ffff16145b61031c57600080fd5b3373ffffffffffffffffffffffffffffffffffffffff166108fc6000549081150290604051600060405180830381858888f19350505050158015610364573d6000803e3d6000fd5b506001600360003373ffffffffffffffffffffffffffffffffffffffff1673ffffffffffffffffffffffffffffffffffffffff16815260200190815260200160002060009054906101000a900461ffff166103bf9190611259565b600360003373ffffffffffffffffffffffffffffffffffffffff1673ffffffffffffffffffffffffffffffffffffffff16815260200190815260200160002060006101000a81548161ffff021916908361ffff160217905550565b600080600060606000600160049054906101000a900461ffff16600160029054906101000a900461ffff16600160089054906101000a900460ff166002600560009054906101000a900473ffffffffffffffffffffffffffffffffffffffff16818054610486906112c0565b80601f01602080910402602001604051908101604052809291908181526020018280546104b2906112c0565b80156104ff5780601f106104d4576101008083540402835291602001916104ff565b820191906000526020600020905b8154815290600101906020018083116104e257829003601f168201915b50505050509150945094509450945094509091929394565b600160049054906101000a900461ffff1661ffff16600160029054906101000a900461ffff1661ffff16141580156105a057506000600360003373ffffffffffffffffffffffffffffffffffffffff1673ffffffffffffffffffffffffffffffffffffffff16815260200190815260200160002060009054906101000a900461ffff1661ffff16145b6105a957600080fd5b6001600360003373ffffffffffffffffffffffffffffffffffffffff1673ffffffffffffffffffffffffffffffffffffffff16815260200190815260200160002060006101000a81548161ffff021916908361ffff1602179055506004339080600181540180825580915050600190039060005260206000200160009091909190916101000a81548173ffffffffffffffffffffffffffffffffffffffff021916908373ffffffffffffffffffffffffffffffffffffffff1602179055506001600481819054906101000a900461ffff1680929190610687906112f2565b91906101000a81548161ffff021916908361ffff16021790555050600160029054906101000a900461ffff1661ffff16600160049054906101000a900461ffff1661ffff1614600160086101000a81548160ff021916908315150217905550565b600560009054906101000a900473ffffffffffffffffffffffffffffffffffffffff1673ffffffffffffffffffffffffffffffffffffffff163373ffffffffffffffffffffffffffffffffffffffff161461074257600080fd5b8073ffffffffffffffffffffffffffffffffffffffff16600560009054906101000a900473ffffffffffffffffffffffffffffffffffffffff1673ffffffffffffffffffffffffffffffffffffffff16141580156107f157506000600360008373ffffffffffffffffffffffffffffffffffffffff1673ffffffffffffffffffffffffffffffffffffffff16815260200190815260200160002060009054906101000a900461ffff1661ffff16115b6107fa57600080fd5b600160049054906101000a900461ffff1661ffff16600160029054906101000a900461ffff1661ffff161461082e57600080fd5b600160009054906101000a900461ffff1661ffff16600360008373ffffffffffffffffffffffffffffffffffffffff1673ffffffffffffffffffffffffffffffffffffffff16815260200190815260200160002060009054906101000a900461ffff1661ffff161461089f57600080fd5b8073ffffffffffffffffffffffffffffffffffffffff166108fc6000549081150290604051600060405180830381858888f193505050501580156108e7573d6000803e3d6000fd5b506001600360008373ffffffffffffffffffffffffffffffffffffffff1673ffffffffffffffffffffffffffffffffffffffff16815260200190815260200160002060009054906101000a900461ffff166109429190611259565b600360008373ffffffffffffffffffffffffffffffffffffffff1673ffffffffffffffffffffffffffffffffffffffff16815260200190815260200160002060006101000a81548161ffff021916908361ffff16021790555050565b600560009054906101000a900473ffffffffffffffffffffffffffffffffffffffff1673ffffffffffffffffffffffffffffffffffffffff163373ffffffffffffffffffffffffffffffffffffffff16146109f857600080fd5b600160049054906101000a900461ffff1661ffff16600160029054906101000a900461ffff1661ffff16148015610a425750801515600160089054906101000a900460ff16151514155b610a4b57600080fd5b80600160086101000a81548160ff02191690831515021790555050565b600160089054906101000a900460ff168015610ad557506000600360003373ffffffffffffffffffffffffffffffffffffffff1673ffffffffffffffffffffffffffffffffffffffff16815260200190815260200160002060009054906101000a900461ffff1661ffff16145b610ade57600080fd5b610ae6610212565b6000541180610af6575060008054145b610aff57600080fd5b6001600081819054906101000a900461ffff1680929190610b1f906112f2565b91906101000a81548161ffff021916908361ffff160217905550506064600160069054906101000a900461ffff1661ffff1634610b5c919061131d565b610b6691906113a6565b600081905550565b6000600160089054906101000a900460ff168015610ba05750610b8f610212565b6000541180610b9f575060008054145b5b905090565b6060806000806000600160049054906101000a900461ffff1661ffff1667ffffffffffffffff811115610bdb57610bda6113d7565b5b604051908082528060200260200182016040528015610c095781602001602082028036833780820191505090505b50905060005b600160049054906101000a900461ffff1661ffff168161ffff161015610cff576003600060048361ffff1681548110610c4b57610c4a611406565b5b9060005260206000200160009054906101000a900473ffffffffffffffffffffffffffffffffffffffff1673ffffffffffffffffffffffffffffffffffffffff1673ffffffffffffffffffffffffffffffffffffffff16815260200190815260200160002060009054906101000a900461ffff16828261ffff1681518110610cd657610cd5611406565b5b602002602001019061ffff16908161ffff16815250508080610cf7906112f2565b915050610c0f565b50600481600160009054906101000a900461ffff16600560009054906101000a900473ffffffffffffffffffffffffffffffffffffffff1683805480602002602001604051908101604052809291908181526020018280548015610db857602002820191906000526020600020905b8160009054906101000a900473ffffffffffffffffffffffffffffffffffffffff1673ffffffffffffffffffffffffffffffffffffffff1681526020019060010190808311610d6e575b5050505050935094509450945094505090919293565b600061ffff82169050919050565b610de581610dce565b82525050565b6000602082019050610e006000830184610ddc565b92915050565b6000819050919050565b610e1981610e06565b82525050565b6000602082019050610e346000830184610e10565b92915050565b60008115159050919050565b610e4f81610e3a565b82525050565b600081519050919050565b600082825260208201905092915050565b60005b83811015610e8f578082015181840152602081019050610e74565b83811115610e9e576000848401525b50505050565b6000601f19601f8301169050919050565b6000610ec082610e55565b610eca8185610e60565b9350610eda818560208601610e71565b610ee381610ea4565b840191505092915050565b600073ffffffffffffffffffffffffffffffffffffffff82169050919050565b6000610f1982610eee565b9050919050565b610f2981610f0e565b82525050565b600060a082019050610f446000830188610ddc565b610f516020830187610ddc565b610f5e6040830186610e46565b8181036060830152610f708185610eb5565b9050610f7f6080830184610f20565b9695505050505050565b600080fd5b610f9781610f0e565b8114610fa257600080fd5b50565b600081359050610fb481610f8e565b92915050565b600060208284031215610fd057610fcf610f89565b5b6000610fde84828501610fa5565b91505092915050565b610ff081610e3a565b8114610ffb57600080fd5b50565b60008135905061100d81610fe7565b92915050565b60006020828403121561102957611028610f89565b5b600061103784828501610ffe565b91505092915050565b60006020820190506110556000830184610e46565b92915050565b600081519050919050565b600082825260208201905092915050565b6000819050602082019050919050565b61109081610f0e565b82525050565b60006110a28383611087565b60208301905092915050565b6000602082019050919050565b60006110c68261105b565b6110d08185611066565b93506110db83611077565b8060005b8381101561110c5781516110f38882611096565b97506110fe836110ae565b9250506001810190506110df565b5085935050505092915050565b600081519050919050565b600082825260208201905092915050565b6000819050602082019050919050565b61114e81610dce565b82525050565b60006111608383611145565b60208301905092915050565b6000602082019050919050565b600061118482611119565b61118e8185611124565b935061119983611135565b8060005b838110156111ca5781516111b18882611154565b97506111bc8361116c565b92505060018101905061119d565b5085935050505092915050565b600060808201905081810360008301526111f181876110bb565b905081810360208301526112058186611179565b90506112146040830185610ddc565b6112216060830184610f20565b95945050505050565b7f4e487b7100000000000000000000000000000000000000000000000000000000600052601160045260246000fd5b600061126482610dce565b915061126f83610dce565b92508261ffff038211156112865761128561122a565b5b828201905092915050565b7f4e487b7100000000000000000000000000000000000000000000000000000000600052602260045260246000fd5b600060028204905060018216806112d857607f821691505b602082108114156112ec576112eb611291565b5b50919050565b60006112fd82610dce565b915061ffff8214156113125761131161122a565b5b600182019050919050565b600061132882610e06565b915061133383610e06565b9250817fffffffffffffffffffffffffffffffffffffffffffffffffffffffffffffffff048311821515161561136c5761136b61122a565b5b828202905092915050565b7f4e487b7100000000000000000000000000000000000000000000000000000000600052601260045260246000fd5b60006113b182610e06565b91506113bc83610e06565b9250826113cc576113cb611377565b5b828204905092915050565b7f4e487b7100000000000000000000000000000000000000000000000000000000600052604160045260246000fd5b7f4e487b7100000000000000000000000000000000000000000000000000000000600052603260045260246000fdfea2646970667358221220c8bf1c9bc99e8ca2899b2b7234952b2aaa62460613a6d0031fbd0c8515d04a8664736f6c63430008090033","opcodes":"PUSH1 0x80 PUSH1 0x40 MSTORE PUSH1 0x0 DUP1 SSTORE PUSH1 0x0 PUSH1 0x1 PUSH1 0x0 PUSH2 0x100 EXP DUP2 SLOAD DUP2 PUSH2 0xFFFF MUL NOT AND SWAP1 DUP4 PUSH2 0xFFFF AND MUL OR SWAP1 SSTORE POP PUSH1 0x0 PUSH1 0x1 PUSH1 0x4 PUSH2 0x100 EXP DUP2 SLOAD DUP2 PUSH2 0xFFFF MUL NOT AND SWAP1 DUP4 PUSH2 0xFFFF AND MUL OR SWAP1 SSTORE POP PUSH1 0x64 PUSH1 0x1 PUSH1 0x6 PUSH2 0x100 EXP DUP2 SLOAD DUP2 PUSH2 0xFFFF MUL NOT AND SWAP1 DUP4 PUSH2 0xFFFF AND MUL OR SWAP1 SSTORE POP PUSH1 0x0 PUSH1 0x1 PUSH1 0x8 PUSH2 0x100 EXP DUP2 SLOAD DUP2 PUSH1 0xFF MUL NOT AND SWAP1 DUP4 ISZERO ISZERO MUL OR SWAP1 SSTORE POP CALLVALUE DUP1 ISZERO PUSH3 0x8A JUMPI PUSH1 0x0 DUP1 REVERT JUMPDEST POP PUSH1 0x40 MLOAD PUSH3 0x1B4E CODESIZE SUB DUP1 PUSH3 0x1B4E DUP4 CODECOPY DUP2 DUP2 ADD PUSH1 0x40 MSTORE DUP2 ADD SWAP1 PUSH3 0xB0 SWAP2 SWAP1 PUSH3 0x57E JUMP JUMPDEST DUP2 PUSH1 0x5 PUSH1 0x0 PUSH2 0x100 EXP DUP2 SLOAD DUP2 PUSH20 0xFFFFFFFFFFFFFFFFFFFFFFFFFFFFFFFFFFFFFFFF MUL NOT AND SWAP1 DUP4 PUSH20 0xFFFFFFFFFFFFFFFFFFFFFFFFFFFFFFFFFFFFFFFF AND MUL OR SWAP1 SSTORE POP DUP3 PUSH1 0x1 PUSH1 0x2 PUSH2 0x100 EXP DUP2 SLOAD DUP2 PUSH2 0xFFFF MUL NOT AND SWAP1 DUP4 PUSH2 0xFFFF AND MUL OR SWAP1 SSTORE POP DUP4 PUSH1 0x2 SWAP1 DUP1 MLOAD SWAP1 PUSH1 0x20 ADD SWAP1 PUSH3 0x126 SWAP3 SWAP2 SWAP1 PUSH3 0x28D JUMP JUMPDEST POP PUSH1 0x1 PUSH1 0x3 PUSH1 0x0 PUSH1 0x5 PUSH1 0x0 SWAP1 SLOAD SWAP1 PUSH2 0x100 EXP SWAP1 DIV PUSH20 0xFFFFFFFFFFFFFFFFFFFFFFFFFFFFFFFFFFFFFFFF AND PUSH20 0xFFFFFFFFFFFFFFFFFFFFFFFFFFFFFFFFFFFFFFFF AND PUSH20 0xFFFFFFFFFFFFFFFFFFFFFFFFFFFFFFFFFFFFFFFF AND DUP2 MSTORE PUSH1 0x20 ADD SWAP1 DUP2 MSTORE PUSH1 0x20 ADD PUSH1 0x0 KECCAK256 PUSH1 0x0 PUSH2 0x100 EXP DUP2 SLOAD DUP2 PUSH2 0xFFFF MUL NOT AND SWAP1 DUP4 PUSH2 0xFFFF AND MUL OR SWAP1 SSTORE POP PUSH1 0x4 PUSH1 0x5 PUSH1 0x0 SWAP1 SLOAD SWAP1 PUSH2 0x100 EXP SWAP1 DIV PUSH20 0xFFFFFFFFFFFFFFFFFFFFFFFFFFFFFFFFFFFFFFFF AND SWAP1 DUP1 PUSH1 0x1 DUP2 SLOAD ADD DUP1 DUP3 SSTORE DUP1 SWAP2 POP POP PUSH1 0x1 SWAP1 SUB SWAP1 PUSH1 0x0 MSTORE PUSH1 0x20 PUSH1 0x0 KECCAK256 ADD PUSH1 0x0 SWAP1 SWAP2 SWAP1 SWAP2 SWAP1 SWAP2 PUSH2 0x100 EXP DUP2 SLOAD DUP2 PUSH20 0xFFFFFFFFFFFFFFFFFFFFFFFFFFFFFFFFFFFFFFFF MUL NOT AND SWAP1 DUP4 PUSH20 0xFFFFFFFFFFFFFFFFFFFFFFFFFFFFFFFFFFFFFFFF AND MUL OR SWAP1 SSTORE POP PUSH1 0x1 PUSH1 0x4 DUP2 DUP2 SWAP1 SLOAD SWAP1 PUSH2 0x100 EXP SWAP1 DIV PUSH2 0xFFFF AND DUP1 SWAP3 SWAP2 SWAP1 PUSH3 0x24B SWAP1 PUSH3 0x63E JUMP JUMPDEST SWAP2 SWAP1 PUSH2 0x100 EXP DUP2 SLOAD DUP2 PUSH2 0xFFFF MUL NOT AND SWAP1 DUP4 PUSH2 0xFFFF AND MUL OR SWAP1 SSTORE POP POP DUP1 PUSH1 0x1 PUSH1 0x6 PUSH2 0x100 EXP DUP2 SLOAD DUP2 PUSH2 0xFFFF MUL NOT AND SWAP1 DUP4 PUSH2 0xFFFF AND MUL OR SWAP1 SSTORE POP POP POP POP POP PUSH3 0x6D3 JUMP JUMPDEST DUP3 DUP1 SLOAD PUSH3 0x29B SWAP1 PUSH3 0x69D JUMP JUMPDEST SWAP1 PUSH1 0x0 MSTORE PUSH1 0x20 PUSH1 0x0 KECCAK256 SWAP1 PUSH1 0x1F ADD PUSH1 0x20 SWAP1 DIV DUP2 ADD SWAP3 DUP3 PUSH3 0x2BF JUMPI PUSH1 0x0 DUP6 SSTORE PUSH3 0x30B JUMP JUMPDEST DUP3 PUSH1 0x1F LT PUSH3 0x2DA JUMPI DUP1 MLOAD PUSH1 0xFF NOT AND DUP4 DUP1 ADD OR DUP6 SSTORE PUSH3 0x30B JUMP JUMPDEST DUP3 DUP1 ADD PUSH1 0x1 ADD DUP6 SSTORE DUP3 ISZERO PUSH3 0x30B JUMPI SWAP2 DUP3 ADD JUMPDEST DUP3 DUP2 GT ISZERO PUSH3 0x30A JUMPI DUP3 MLOAD DUP3 SSTORE SWAP2 PUSH1 0x20 ADD SWAP2 SWAP1 PUSH1 0x1 ADD SWAP1 PUSH3 0x2ED JUMP JUMPDEST JUMPDEST POP SWAP1 POP PUSH3 0x31A SWAP2 SWAP1 PUSH3 0x31E JUMP JUMPDEST POP SWAP1 JUMP JUMPDEST JUMPDEST DUP1 DUP3 GT ISZERO PUSH3 0x339 JUMPI PUSH1 0x0 DUP2 PUSH1 0x0 SWAP1 SSTORE POP PUSH1 0x1 ADD PUSH3 0x31F JUMP JUMPDEST POP SWAP1 JUMP JUMPDEST PUSH1 0x0 PUSH1 0x40 MLOAD SWAP1 POP SWAP1 JUMP JUMPDEST PUSH1 0x0 DUP1 REVERT JUMPDEST PUSH1 0x0 DUP1 REVERT JUMPDEST PUSH1 0x0 DUP1 REVERT JUMPDEST PUSH1 0x0 DUP1 REVERT JUMPDEST PUSH1 0x0 PUSH1 0x1F NOT PUSH1 0x1F DUP4 ADD AND SWAP1 POP SWAP2 SWAP1 POP JUMP JUMPDEST PUSH32 0x4E487B7100000000000000000000000000000000000000000000000000000000 PUSH1 0x0 MSTORE PUSH1 0x41 PUSH1 0x4 MSTORE PUSH1 0x24 PUSH1 0x0 REVERT JUMPDEST PUSH3 0x3A6 DUP3 PUSH3 0x35B JUMP JUMPDEST DUP2 ADD DUP2 DUP2 LT PUSH8 0xFFFFFFFFFFFFFFFF DUP3 GT OR ISZERO PUSH3 0x3C8 JUMPI PUSH3 0x3C7 PUSH3 0x36C JUMP JUMPDEST JUMPDEST DUP1 PUSH1 0x40 MSTORE POP POP POP JUMP JUMPDEST PUSH1 0x0 PUSH3 0x3DD PUSH3 0x33D JUMP JUMPDEST SWAP1 POP PUSH3 0x3EB DUP3 DUP3 PUSH3 0x39B JUMP JUMPDEST SWAP2 SWAP1 POP JUMP JUMPDEST PUSH1 0x0 PUSH8 0xFFFFFFFFFFFFFFFF DUP3 GT ISZERO PUSH3 0x40E JUMPI PUSH3 0x40D PUSH3 0x36C JUMP JUMPDEST JUMPDEST PUSH3 0x419 DUP3 PUSH3 0x35B JUMP JUMPDEST SWAP1 POP PUSH1 0x20 DUP2 ADD SWAP1 POP SWAP2 SWAP1 POP JUMP JUMPDEST PUSH1 0x0 JUMPDEST DUP4 DUP2 LT ISZERO PUSH3 0x446 JUMPI DUP1 DUP3 ADD MLOAD DUP2 DUP5 ADD MSTORE PUSH1 0x20 DUP2 ADD SWAP1 POP PUSH3 0x429 JUMP JUMPDEST DUP4 DUP2 GT ISZERO PUSH3 0x456 JUMPI PUSH1 0x0 DUP5 DUP5 ADD MSTORE JUMPDEST POP POP POP POP JUMP JUMPDEST PUSH1 0x0 PUSH3 0x473 PUSH3 0x46D DUP5 PUSH3 0x3F0 JUMP JUMPDEST PUSH3 0x3D1 JUMP JUMPDEST SWAP1 POP DUP3 DUP2 MSTORE PUSH1 0x20 DUP2 ADD DUP5 DUP5 DUP5 ADD GT ISZERO PUSH3 0x492 JUMPI PUSH3 0x491 PUSH3 0x356 JUMP JUMPDEST JUMPDEST PUSH3 0x49F DUP5 DUP3 DUP6 PUSH3 0x426 JUMP JUMPDEST POP SWAP4 SWAP3 POP POP POP JUMP JUMPDEST PUSH1 0x0 DUP3 PUSH1 0x1F DUP4 ADD SLT PUSH3 0x4BF JUMPI PUSH3 0x4BE PUSH3 0x351 JUMP JUMPDEST JUMPDEST DUP2 MLOAD PUSH3 0x4D1 DUP5 DUP3 PUSH1 0x20 DUP7 ADD PUSH3 0x45C JUMP JUMPDEST SWAP2 POP POP SWAP3 SWAP2 POP POP JUMP JUMPDEST PUSH1 0x0 PUSH2 0xFFFF DUP3 AND SWAP1 POP SWAP2 SWAP1 POP JUMP JUMPDEST PUSH3 0x4F3 DUP2 PUSH3 0x4DA JUMP JUMPDEST DUP2 EQ PUSH3 0x4FF JUMPI PUSH1 0x0 DUP1 REVERT JUMPDEST POP JUMP JUMPDEST PUSH1 0x0 DUP2 MLOAD SWAP1 POP PUSH3 0x513 DUP2 PUSH3 0x4E8 JUMP JUMPDEST SWAP3 SWAP2 POP POP JUMP JUMPDEST PUSH1 0x0 PUSH20 0xFFFFFFFFFFFFFFFFFFFFFFFFFFFFFFFFFFFFFFFF DUP3 AND SWAP1 POP SWAP2 SWAP1 POP JUMP JUMPDEST PUSH1 0x0 PUSH3 0x546 DUP3 PUSH3 0x519 JUMP JUMPDEST SWAP1 POP SWAP2 SWAP1 POP JUMP JUMPDEST PUSH3 0x558 DUP2 PUSH3 0x539 JUMP JUMPDEST DUP2 EQ PUSH3 0x564 JUMPI PUSH1 0x0 DUP1 REVERT JUMPDEST POP JUMP JUMPDEST PUSH1 0x0 DUP2 MLOAD SWAP1 POP PUSH3 0x578 DUP2 PUSH3 0x54D JUMP JUMPDEST SWAP3 SWAP2 POP POP JUMP JUMPDEST PUSH1 0x0 DUP1 PUSH1 0x0 DUP1 PUSH1 0x80 DUP6 DUP8 SUB SLT ISZERO PUSH3 0x59B JUMPI PUSH3 0x59A PUSH3 0x347 JUMP JUMPDEST JUMPDEST PUSH1 0x0 DUP6 ADD MLOAD PUSH8 0xFFFFFFFFFFFFFFFF DUP2 GT ISZERO PUSH3 0x5BC JUMPI PUSH3 0x5BB PUSH3 0x34C JUMP JUMPDEST JUMPDEST PUSH3 0x5CA DUP8 DUP3 DUP9 ADD PUSH3 0x4A7 JUMP JUMPDEST SWAP5 POP POP PUSH1 0x20 PUSH3 0x5DD DUP8 DUP3 DUP9 ADD PUSH3 0x502 JUMP JUMPDEST SWAP4 POP POP PUSH1 0x40 PUSH3 0x5F0 DUP8 DUP3 DUP9 ADD PUSH3 0x567 JUMP JUMPDEST SWAP3 POP POP PUSH1 0x60 PUSH3 0x603 DUP8 DUP3 DUP9 ADD PUSH3 0x502 JUMP JUMPDEST SWAP2 POP POP SWAP3 SWAP6 SWAP2 SWAP5 POP SWAP3 POP JUMP JUMPDEST PUSH32 0x4E487B7100000000000000000000000000000000000000000000000000000000 PUSH1 0x0 MSTORE PUSH1 0x11 PUSH1 0x4 MSTORE PUSH1 0x24 PUSH1 0x0 REVERT JUMPDEST PUSH1 0x0 PUSH3 0x64B DUP3 PUSH3 0x4DA JUMP JUMPDEST SWAP2 POP PUSH2 0xFFFF DUP3 EQ ISZERO PUSH3 0x663 JUMPI PUSH3 0x662 PUSH3 0x60F JUMP JUMPDEST JUMPDEST PUSH1 0x1 DUP3 ADD SWAP1 POP SWAP2 SWAP1 POP JUMP JUMPDEST PUSH32 0x4E487B7100000000000000000000000000000000000000000000000000000000 PUSH1 0x0 MSTORE PUSH1 0x22 PUSH1 0x4 MSTORE PUSH1 0x24 PUSH1 0x0 REVERT JUMPDEST PUSH1 0x0 PUSH1 0x2 DUP3 DIV SWAP1 POP PUSH1 0x1 DUP3 AND DUP1 PUSH3 0x6B6 JUMPI PUSH1 0x7F DUP3 AND SWAP2 POP JUMPDEST PUSH1 0x20 DUP3 LT DUP2 EQ ISZERO PUSH3 0x6CD JUMPI PUSH3 0x6CC PUSH3 0x66E JUMP JUMPDEST JUMPDEST POP SWAP2 SWAP1 POP JUMP JUMPDEST PUSH2 0x146B DUP1 PUSH3 0x6E3 PUSH1 0x0 CODECOPY PUSH1 0x0 RETURN INVALID PUSH1 0x80 PUSH1 0x40 MSTORE PUSH1 0x4 CALLDATASIZE LT PUSH2 0x91 JUMPI PUSH1 0x0 CALLDATALOAD PUSH1 0xE0 SHR DUP1 PUSH4 0x785EF29D GT PUSH2 0x59 JUMPI DUP1 PUSH4 0x785EF29D EQ PUSH2 0x149 JUMPI DUP1 PUSH4 0x9B3DE49B EQ PUSH2 0x172 JUMPI DUP1 PUSH4 0xBEE40F88 EQ PUSH2 0x19B JUMPI DUP1 PUSH4 0xCE46E046 EQ PUSH2 0x1A5 JUMPI DUP1 PUSH4 0xEFDED147 EQ PUSH2 0x1D0 JUMPI PUSH2 0x91 JUMP JUMPDEST DUP1 PUSH4 0x7F10415 EQ PUSH2 0x96 JUMPI DUP1 PUSH4 0x12065FE0 EQ PUSH2 0xC1 JUMPI DUP1 PUSH4 0x266D02A1 EQ PUSH2 0xEC JUMPI DUP1 PUSH4 0x4051DDAC EQ PUSH2 0x103 JUMPI DUP1 PUSH4 0x4217DF12 EQ PUSH2 0x132 JUMPI JUMPDEST PUSH1 0x0 DUP1 REVERT JUMPDEST CALLVALUE DUP1 ISZERO PUSH2 0xA2 JUMPI PUSH1 0x0 DUP1 REVERT JUMPDEST POP PUSH2 0xAB PUSH2 0x1FE JUMP JUMPDEST PUSH1 0x40 MLOAD PUSH2 0xB8 SWAP2 SWAP1 PUSH2 0xDEB JUMP JUMPDEST PUSH1 0x40 MLOAD DUP1 SWAP2 SUB SWAP1 RETURN JUMPDEST CALLVALUE DUP1 ISZERO PUSH2 0xCD JUMPI PUSH1 0x0 DUP1 REVERT JUMPDEST POP PUSH2 0xD6 PUSH2 0x212 JUMP JUMPDEST PUSH1 0x40 MLOAD PUSH2 0xE3 SWAP2 SWAP1 PUSH2 0xE1F JUMP JUMPDEST PUSH1 0x40 MLOAD DUP1 SWAP2 SUB SWAP1 RETURN JUMPDEST CALLVALUE DUP1 ISZERO PUSH2 0xF8 JUMPI PUSH1 0x0 DUP1 REVERT JUMPDEST POP PUSH2 0x101 PUSH2 0x21A JUMP JUMPDEST STOP JUMPDEST CALLVALUE DUP1 ISZERO PUSH2 0x10F JUMPI PUSH1 0x0 DUP1 REVERT JUMPDEST POP PUSH2 0x118 PUSH2 0x41A JUMP JUMPDEST PUSH1 0x40 MLOAD PUSH2 0x129 SWAP6 SWAP5 SWAP4 SWAP3 SWAP2 SWAP1 PUSH2 0xF2F JUMP JUMPDEST PUSH1 0x40 MLOAD DUP1 SWAP2 SUB SWAP1 RETURN JUMPDEST CALLVALUE DUP1 ISZERO PUSH2 0x13E JUMPI PUSH1 0x0 DUP1 REVERT JUMPDEST POP PUSH2 0x147 PUSH2 0x517 JUMP JUMPDEST STOP JUMPDEST CALLVALUE DUP1 ISZERO PUSH2 0x155 JUMPI PUSH1 0x0 DUP1 REVERT JUMPDEST POP PUSH2 0x170 PUSH1 0x4 DUP1 CALLDATASIZE SUB DUP2 ADD SWAP1 PUSH2 0x16B SWAP2 SWAP1 PUSH2 0xFBA JUMP JUMPDEST PUSH2 0x6E8 JUMP JUMPDEST STOP JUMPDEST CALLVALUE DUP1 ISZERO PUSH2 0x17E JUMPI PUSH1 0x0 DUP1 REVERT JUMPDEST POP PUSH2 0x199 PUSH1 0x4 DUP1 CALLDATASIZE SUB DUP2 ADD SWAP1 PUSH2 0x194 SWAP2 SWAP1 PUSH2 0x1013 JUMP JUMPDEST PUSH2 0x99E JUMP JUMPDEST STOP JUMPDEST PUSH2 0x1A3 PUSH2 0xA68 JUMP JUMPDEST STOP JUMPDEST CALLVALUE DUP1 ISZERO PUSH2 0x1B1 JUMPI PUSH1 0x0 DUP1 REVERT JUMPDEST POP PUSH2 0x1BA PUSH2 0xB6E JUMP JUMPDEST PUSH1 0x40 MLOAD PUSH2 0x1C7 SWAP2 SWAP1 PUSH2 0x1040 JUMP JUMPDEST PUSH1 0x40 MLOAD DUP1 SWAP2 SUB SWAP1 RETURN JUMPDEST CALLVALUE DUP1 ISZERO PUSH2 0x1DC JUMPI PUSH1 0x0 DUP1 REVERT JUMPDEST POP PUSH2 0x1E5 PUSH2 0xBA5 JUMP JUMPDEST PUSH1 0x40 MLOAD PUSH2 0x1F5 SWAP5 SWAP4 SWAP3 SWAP2 SWAP1 PUSH2 0x11D7 JUMP JUMPDEST PUSH1 0x40 MLOAD DUP1 SWAP2 SUB SWAP1 RETURN JUMPDEST PUSH1 0x1 PUSH1 0x4 SWAP1 SLOAD SWAP1 PUSH2 0x100 EXP SWAP1 DIV PUSH2 0xFFFF AND DUP2 JUMP JUMPDEST PUSH1 0x0 SELFBALANCE SWAP1 POP SWAP1 JUMP JUMPDEST PUSH1 0x1 PUSH1 0x4 SWAP1 SLOAD SWAP1 PUSH2 0x100 EXP SWAP1 DIV PUSH2 0xFFFF AND PUSH2 0xFFFF AND PUSH1 0x1 PUSH1 0x2 SWAP1 SLOAD SWAP1 PUSH2 0x100 EXP SWAP1 DIV PUSH2 0xFFFF AND PUSH2 0xFFFF AND EQ PUSH2 0x24E JUMPI PUSH1 0x0 DUP1 REVERT JUMPDEST PUSH1 0x0 PUSH1 0x3 PUSH1 0x0 CALLER PUSH20 0xFFFFFFFFFFFFFFFFFFFFFFFFFFFFFFFFFFFFFFFF AND PUSH20 0xFFFFFFFFFFFFFFFFFFFFFFFFFFFFFFFFFFFFFFFF AND DUP2 MSTORE PUSH1 0x20 ADD SWAP1 DUP2 MSTORE PUSH1 0x20 ADD PUSH1 0x0 KECCAK256 PUSH1 0x0 SWAP1 SLOAD SWAP1 PUSH2 0x100 EXP SWAP1 DIV PUSH2 0xFFFF AND PUSH2 0xFFFF AND GT DUP1 ISZERO PUSH2 0x313 JUMPI POP PUSH1 0x1 PUSH1 0x0 SWAP1 SLOAD SWAP1 PUSH2 0x100 EXP SWAP1 DIV PUSH2 0xFFFF AND PUSH2 0xFFFF AND PUSH1 0x3 PUSH1 0x0 CALLER PUSH20 0xFFFFFFFFFFFFFFFFFFFFFFFFFFFFFFFFFFFFFFFF AND PUSH20 0xFFFFFFFFFFFFFFFFFFFFFFFFFFFFFFFFFFFFFFFF AND DUP2 MSTORE PUSH1 0x20 ADD SWAP1 DUP2 MSTORE PUSH1 0x20 ADD PUSH1 0x0 KECCAK256 PUSH1 0x0 SWAP1 SLOAD SWAP1 PUSH2 0x100 EXP SWAP1 DIV PUSH2 0xFFFF AND PUSH2 0xFFFF AND EQ JUMPDEST PUSH2 0x31C JUMPI PUSH1 0x0 DUP1 REVERT JUMPDEST CALLER PUSH20 0xFFFFFFFFFFFFFFFFFFFFFFFFFFFFFFFFFFFFFFFF AND PUSH2 0x8FC PUSH1 0x0 SLOAD SWAP1 DUP2 ISZERO MUL SWAP1 PUSH1 0x40 MLOAD PUSH1 0x0 PUSH1 0x40 MLOAD DUP1 DUP4 SUB DUP2 DUP6 DUP9 DUP9 CALL SWAP4 POP POP POP POP ISZERO DUP1 ISZERO PUSH2 0x364 JUMPI RETURNDATASIZE PUSH1 0x0 DUP1 RETURNDATACOPY RETURNDATASIZE PUSH1 0x0 REVERT JUMPDEST POP PUSH1 0x1 PUSH1 0x3 PUSH1 0x0 CALLER PUSH20 0xFFFFFFFFFFFFFFFFFFFFFFFFFFFFFFFFFFFFFFFF AND PUSH20 0xFFFFFFFFFFFFFFFFFFFFFFFFFFFFFFFFFFFFFFFF AND DUP2 MSTORE PUSH1 0x20 ADD SWAP1 DUP2 MSTORE PUSH1 0x20 ADD PUSH1 0x0 KECCAK256 PUSH1 0x0 SWAP1 SLOAD SWAP1 PUSH2 0x100 EXP SWAP1 DIV PUSH2 0xFFFF AND PUSH2 0x3BF SWAP2 SWAP1 PUSH2 0x1259 JUMP JUMPDEST PUSH1 0x3 PUSH1 0x0 CALLER PUSH20 0xFFFFFFFFFFFFFFFFFFFFFFFFFFFFFFFFFFFFFFFF AND PUSH20 0xFFFFFFFFFFFFFFFFFFFFFFFFFFFFFFFFFFFFFFFF AND DUP2 MSTORE PUSH1 0x20 ADD SWAP1 DUP2 MSTORE PUSH1 0x20 ADD PUSH1 0x0 KECCAK256 PUSH1 0x0 PUSH2 0x100 EXP DUP2 SLOAD DUP2 PUSH2 0xFFFF MUL NOT AND SWAP1 DUP4 PUSH2 0xFFFF AND MUL OR SWAP1 SSTORE POP JUMP JUMPDEST PUSH1 0x0 DUP1 PUSH1 0x0 PUSH1 0x60 PUSH1 0x0 PUSH1 0x1 PUSH1 0x4 SWAP1 SLOAD SWAP1 PUSH2 0x100 EXP SWAP1 DIV PUSH2 0xFFFF AND PUSH1 0x1 PUSH1 0x2 SWAP1 SLOAD SWAP1 PUSH2 0x100 EXP SWAP1 DIV PUSH2 0xFFFF AND PUSH1 0x1 PUSH1 0x8 SWAP1 SLOAD SWAP1 PUSH2 0x100 EXP SWAP1 DIV PUSH1 0xFF AND PUSH1 0x2 PUSH1 0x5 PUSH1 0x0 SWAP1 SLOAD SWAP1 PUSH2 0x100 EXP SWAP1 DIV PUSH20 0xFFFFFFFFFFFFFFFFFFFFFFFFFFFFFFFFFFFFFFFF AND DUP2 DUP1 SLOAD PUSH2 0x486 SWAP1 PUSH2 0x12C0 JUMP JUMPDEST DUP1 PUSH1 0x1F ADD PUSH1 0x20 DUP1 SWAP2 DIV MUL PUSH1 0x20 ADD PUSH1 0x40 MLOAD SWAP1 DUP2 ADD PUSH1 0x40 MSTORE DUP1 SWAP3 SWAP2 SWAP1 DUP2 DUP2 MSTORE PUSH1 0x20 ADD DUP3 DUP1 SLOAD PUSH2 0x4B2 SWAP1 PUSH2 0x12C0 JUMP JUMPDEST DUP1 ISZERO PUSH2 0x4FF JUMPI DUP1 PUSH1 0x1F LT PUSH2 0x4D4 JUMPI PUSH2 0x100 DUP1 DUP4 SLOAD DIV MUL DUP4 MSTORE SWAP2 PUSH1 0x20 ADD SWAP2 PUSH2 0x4FF JUMP JUMPDEST DUP3 ADD SWAP2 SWAP1 PUSH1 0x0 MSTORE PUSH1 0x20 PUSH1 0x0 KECCAK256 SWAP1 JUMPDEST DUP2 SLOAD DUP2 MSTORE SWAP1 PUSH1 0x1 ADD SWAP1 PUSH1 0x20 ADD DUP1 DUP4 GT PUSH2 0x4E2 JUMPI DUP3 SWAP1 SUB PUSH1 0x1F AND DUP3 ADD SWAP2 JUMPDEST POP POP POP POP POP SWAP2 POP SWAP5 POP SWAP5 POP SWAP5 POP SWAP5 POP SWAP5 POP SWAP1 SWAP2 SWAP3 SWAP4 SWAP5 JUMP JUMPDEST PUSH1 0x1 PUSH1 0x4 SWAP1 SLOAD SWAP1 PUSH2 0x100 EXP SWAP1 DIV PUSH2 0xFFFF AND PUSH2 0xFFFF AND PUSH1 0x1 PUSH1 0x2 SWAP1 SLOAD SWAP1 PUSH2 0x100 EXP SWAP1 DIV PUSH2 0xFFFF AND PUSH2 0xFFFF AND EQ ISZERO DUP1 ISZERO PUSH2 0x5A0 JUMPI POP PUSH1 0x0 PUSH1 0x3 PUSH1 0x0 CALLER PUSH20 0xFFFFFFFFFFFFFFFFFFFFFFFFFFFFFFFFFFFFFFFF AND PUSH20 0xFFFFFFFFFFFFFFFFFFFFFFFFFFFFFFFFFFFFFFFF AND DUP2 MSTORE PUSH1 0x20 ADD SWAP1 DUP2 MSTORE PUSH1 0x20 ADD PUSH1 0x0 KECCAK256 PUSH1 0x0 SWAP1 SLOAD SWAP1 PUSH2 0x100 EXP SWAP1 DIV PUSH2 0xFFFF AND PUSH2 0xFFFF AND EQ JUMPDEST PUSH2 0x5A9 JUMPI PUSH1 0x0 DUP1 REVERT JUMPDEST PUSH1 0x1 PUSH1 0x3 PUSH1 0x0 CALLER PUSH20 0xFFFFFFFFFFFFFFFFFFFFFFFFFFFFFFFFFFFFFFFF AND PUSH20 0xFFFFFFFFFFFFFFFFFFFFFFFFFFFFFFFFFFFFFFFF AND DUP2 MSTORE PUSH1 0x20 ADD SWAP1 DUP2 MSTORE PUSH1 0x20 ADD PUSH1 0x0 KECCAK256 PUSH1 0x0 PUSH2 0x100 EXP DUP2 SLOAD DUP2 PUSH2 0xFFFF MUL NOT AND SWAP1 DUP4 PUSH2 0xFFFF AND MUL OR SWAP1 SSTORE POP PUSH1 0x4 CALLER SWAP1 DUP1 PUSH1 0x1 DUP2 SLOAD ADD DUP1 DUP3 SSTORE DUP1 SWAP2 POP POP PUSH1 0x1 SWAP1 SUB SWAP1 PUSH1 0x0 MSTORE PUSH1 0x20 PUSH1 0x0 KECCAK256 ADD PUSH1 0x0 SWAP1 SWAP2 SWAP1 SWAP2 SWAP1 SWAP2 PUSH2 0x100 EXP DUP2 SLOAD DUP2 PUSH20 0xFFFFFFFFFFFFFFFFFFFFFFFFFFFFFFFFFFFFFFFF MUL NOT AND SWAP1 DUP4 PUSH20 0xFFFFFFFFFFFFFFFFFFFFFFFFFFFFFFFFFFFFFFFF AND MUL OR SWAP1 SSTORE POP PUSH1 0x1 PUSH1 0x4 DUP2 DUP2 SWAP1 SLOAD SWAP1 PUSH2 0x100 EXP SWAP1 DIV PUSH2 0xFFFF AND DUP1 SWAP3 SWAP2 SWAP1 PUSH2 0x687 SWAP1 PUSH2 0x12F2 JUMP JUMPDEST SWAP2 SWAP1 PUSH2 0x100 EXP DUP2 SLOAD DUP2 PUSH2 0xFFFF MUL NOT AND SWAP1 DUP4 PUSH2 0xFFFF AND MUL OR SWAP1 SSTORE POP POP PUSH1 0x1 PUSH1 0x2 SWAP1 SLOAD SWAP1 PUSH2 0x100 EXP SWAP1 DIV PUSH2 0xFFFF AND PUSH2 0xFFFF AND PUSH1 0x1 PUSH1 0x4 SWAP1 SLOAD SWAP1 PUSH2 0x100 EXP SWAP1 DIV PUSH2 0xFFFF AND PUSH2 0xFFFF AND EQ PUSH1 0x1 PUSH1 0x8 PUSH2 0x100 EXP DUP2 SLOAD DUP2 PUSH1 0xFF MUL NOT AND SWAP1 DUP4 ISZERO ISZERO MUL OR SWAP1 SSTORE POP JUMP JUMPDEST PUSH1 0x5 PUSH1 0x0 SWAP1 SLOAD SWAP1 PUSH2 0x100 EXP SWAP1 DIV PUSH20 0xFFFFFFFFFFFFFFFFFFFFFFFFFFFFFFFFFFFFFFFF AND PUSH20 0xFFFFFFFFFFFFFFFFFFFFFFFFFFFFFFFFFFFFFFFF AND CALLER PUSH20 0xFFFFFFFFFFFFFFFFFFFFFFFFFFFFFFFFFFFFFFFF AND EQ PUSH2 0x742 JUMPI PUSH1 0x0 DUP1 REVERT JUMPDEST DUP1 PUSH20 0xFFFFFFFFFFFFFFFFFFFFFFFFFFFFFFFFFFFFFFFF AND PUSH1 0x5 PUSH1 0x0 SWAP1 SLOAD SWAP1 PUSH2 0x100 EXP SWAP1 DIV PUSH20 0xFFFFFFFFFFFFFFFFFFFFFFFFFFFFFFFFFFFFFFFF AND PUSH20 0xFFFFFFFFFFFFFFFFFFFFFFFFFFFFFFFFFFFFFFFF AND EQ ISZERO DUP1 ISZERO PUSH2 0x7F1 JUMPI POP PUSH1 0x0 PUSH1 0x3 PUSH1 0x0 DUP4 PUSH20 0xFFFFFFFFFFFFFFFFFFFFFFFFFFFFFFFFFFFFFFFF AND PUSH20 0xFFFFFFFFFFFFFFFFFFFFFFFFFFFFFFFFFFFFFFFF AND DUP2 MSTORE PUSH1 0x20 ADD SWAP1 DUP2 MSTORE PUSH1 0x20 ADD PUSH1 0x0 KECCAK256 PUSH1 0x0 SWAP1 SLOAD SWAP1 PUSH2 0x100 EXP SWAP1 DIV PUSH2 0xFFFF AND PUSH2 0xFFFF AND GT JUMPDEST PUSH2 0x7FA JUMPI PUSH1 0x0 DUP1 REVERT JUMPDEST PUSH1 0x1 PUSH1 0x4 SWAP1 SLOAD SWAP1 PUSH2 0x100 EXP SWAP1 DIV PUSH2 0xFFFF AND PUSH2 0xFFFF AND PUSH1 0x1 PUSH1 0x2 SWAP1 SLOAD SWAP1 PUSH2 0x100 EXP SWAP1 DIV PUSH2 0xFFFF AND PUSH2 0xFFFF AND EQ PUSH2 0x82E JUMPI PUSH1 0x0 DUP1 REVERT JUMPDEST PUSH1 0x1 PUSH1 0x0 SWAP1 SLOAD SWAP1 PUSH2 0x100 EXP SWAP1 DIV PUSH2 0xFFFF AND PUSH2 0xFFFF AND PUSH1 0x3 PUSH1 0x0 DUP4 PUSH20 0xFFFFFFFFFFFFFFFFFFFFFFFFFFFFFFFFFFFFFFFF AND PUSH20 0xFFFFFFFFFFFFFFFFFFFFFFFFFFFFFFFFFFFFFFFF AND DUP2 MSTORE PUSH1 0x20 ADD SWAP1 DUP2 MSTORE PUSH1 0x20 ADD PUSH1 0x0 KECCAK256 PUSH1 0x0 SWAP1 SLOAD SWAP1 PUSH2 0x100 EXP SWAP1 DIV PUSH2 0xFFFF AND PUSH2 0xFFFF AND EQ PUSH2 0x89F JUMPI PUSH1 0x0 DUP1 REVERT JUMPDEST DUP1 PUSH20 0xFFFFFFFFFFFFFFFFFFFFFFFFFFFFFFFFFFFFFFFF AND PUSH2 0x8FC PUSH1 0x0 SLOAD SWAP1 DUP2 ISZERO MUL SWAP1 PUSH1 0x40 MLOAD PUSH1 0x0 PUSH1 0x40 MLOAD DUP1 DUP4 SUB DUP2 DUP6 DUP9 DUP9 CALL SWAP4 POP POP POP POP ISZERO DUP1 ISZERO PUSH2 0x8E7 JUMPI RETURNDATASIZE PUSH1 0x0 DUP1 RETURNDATACOPY RETURNDATASIZE PUSH1 0x0 REVERT JUMPDEST POP PUSH1 0x1 PUSH1 0x3 PUSH1 0x0 DUP4 PUSH20 0xFFFFFFFFFFFFFFFFFFFFFFFFFFFFFFFFFFFFFFFF AND PUSH20 0xFFFFFFFFFFFFFFFFFFFFFFFFFFFFFFFFFFFFFFFF AND DUP2 MSTORE PUSH1 0x20 ADD SWAP1 DUP2 MSTORE PUSH1 0x20 ADD PUSH1 0x0 KECCAK256 PUSH1 0x0 SWAP1 SLOAD SWAP1 PUSH2 0x100 EXP SWAP1 DIV PUSH2 0xFFFF AND PUSH2 0x942 SWAP2 SWAP1 PUSH2 0x1259 JUMP JUMPDEST PUSH1 0x3 PUSH1 0x0 DUP4 PUSH20 0xFFFFFFFFFFFFFFFFFFFFFFFFFFFFFFFFFFFFFFFF AND PUSH20 0xFFFFFFFFFFFFFFFFFFFFFFFFFFFFFFFFFFFFFFFF AND DUP2 MSTORE PUSH1 0x20 ADD SWAP1 DUP2 MSTORE PUSH1 0x20 ADD PUSH1 0x0 KECCAK256 PUSH1 0x0 PUSH2 0x100 EXP DUP2 SLOAD DUP2 PUSH2 0xFFFF MUL NOT AND SWAP1 DUP4 PUSH2 0xFFFF AND MUL OR SWAP1 SSTORE POP POP JUMP JUMPDEST PUSH1 0x5 PUSH1 0x0 SWAP1 SLOAD SWAP1 PUSH2 0x100 EXP SWAP1 DIV PUSH20 0xFFFFFFFFFFFFFFFFFFFFFFFFFFFFFFFFFFFFFFFF AND PUSH20 0xFFFFFFFFFFFFFFFFFFFFFFFFFFFFFFFFFFFFFFFF AND CALLER PUSH20 0xFFFFFFFFFFFFFFFFFFFFFFFFFFFFFFFFFFFFFFFF AND EQ PUSH2 0x9F8 JUMPI PUSH1 0x0 DUP1 REVERT JUMPDEST PUSH1 0x1 PUSH1 0x4 SWAP1 SLOAD SWAP1 PUSH2 0x100 EXP SWAP1 DIV PUSH2 0xFFFF AND PUSH2 0xFFFF AND PUSH1 0x1 PUSH1 0x2 SWAP1 SLOAD SWAP1 PUSH2 0x100 EXP SWAP1 DIV PUSH2 0xFFFF AND PUSH2 0xFFFF AND EQ DUP1 ISZERO PUSH2 0xA42 JUMPI POP DUP1 ISZERO ISZERO PUSH1 0x1 PUSH1 0x8 SWAP1 SLOAD SWAP1 PUSH2 0x100 EXP SWAP1 DIV PUSH1 0xFF AND ISZERO ISZERO EQ ISZERO JUMPDEST PUSH2 0xA4B JUMPI PUSH1 0x0 DUP1 REVERT JUMPDEST DUP1 PUSH1 0x1 PUSH1 0x8 PUSH2 0x100 EXP DUP2 SLOAD DUP2 PUSH1 0xFF MUL NOT AND SWAP1 DUP4 ISZERO ISZERO MUL OR SWAP1 SSTORE POP POP JUMP JUMPDEST PUSH1 0x1 PUSH1 0x8 SWAP1 SLOAD SWAP1 PUSH2 0x100 EXP SWAP1 DIV PUSH1 0xFF AND DUP1 ISZERO PUSH2 0xAD5 JUMPI POP PUSH1 0x0 PUSH1 0x3 PUSH1 0x0 CALLER PUSH20 0xFFFFFFFFFFFFFFFFFFFFFFFFFFFFFFFFFFFFFFFF AND PUSH20 0xFFFFFFFFFFFFFFFFFFFFFFFFFFFFFFFFFFFFFFFF AND DUP2 MSTORE PUSH1 0x20 ADD SWAP1 DUP2 MSTORE PUSH1 0x20 ADD PUSH1 0x0 KECCAK256 PUSH1 0x0 SWAP1 SLOAD SWAP1 PUSH2 0x100 EXP SWAP1 DIV PUSH2 0xFFFF AND PUSH2 0xFFFF AND EQ JUMPDEST PUSH2 0xADE JUMPI PUSH1 0x0 DUP1 REVERT JUMPDEST PUSH2 0xAE6 PUSH2 0x212 JUMP JUMPDEST PUSH1 0x0 SLOAD GT DUP1 PUSH2 0xAF6 JUMPI POP PUSH1 0x0 DUP1 SLOAD EQ JUMPDEST PUSH2 0xAFF JUMPI PUSH1 0x0 DUP1 REVERT JUMPDEST PUSH1 0x1 PUSH1 0x0 DUP2 DUP2 SWAP1 SLOAD SWAP1 PUSH2 0x100 EXP SWAP1 DIV PUSH2 0xFFFF AND DUP1 SWAP3 SWAP2 SWAP1 PUSH2 0xB1F SWAP1 PUSH2 0x12F2 JUMP JUMPDEST SWAP2 SWAP1 PUSH2 0x100 EXP DUP2 SLOAD DUP2 PUSH2 0xFFFF MUL NOT AND SWAP1 DUP4 PUSH2 0xFFFF AND MUL OR SWAP1 SSTORE POP POP PUSH1 0x64 PUSH1 0x1 PUSH1 0x6 SWAP1 SLOAD SWAP1 PUSH2 0x100 EXP SWAP1 DIV PUSH2 0xFFFF AND PUSH2 0xFFFF AND CALLVALUE PUSH2 0xB5C SWAP2 SWAP1 PUSH2 0x131D JUMP JUMPDEST PUSH2 0xB66 SWAP2 SWAP1 PUSH2 0x13A6 JUMP JUMPDEST PUSH1 0x0 DUP2 SWAP1 SSTORE POP JUMP JUMPDEST PUSH1 0x0 PUSH1 0x1 PUSH1 0x8 SWAP1 SLOAD SWAP1 PUSH2 0x100 EXP SWAP1 DIV PUSH1 0xFF AND DUP1 ISZERO PUSH2 0xBA0 JUMPI POP PUSH2 0xB8F PUSH2 0x212 JUMP JUMPDEST PUSH1 0x0 SLOAD GT DUP1 PUSH2 0xB9F JUMPI POP PUSH1 0x0 DUP1 SLOAD EQ JUMPDEST JUMPDEST SWAP1 POP SWAP1 JUMP JUMPDEST PUSH1 0x60 DUP1 PUSH1 0x0 DUP1 PUSH1 0x0 PUSH1 0x1 PUSH1 0x4 SWAP1 SLOAD SWAP1 PUSH2 0x100 EXP SWAP1 DIV PUSH2 0xFFFF AND PUSH2 0xFFFF AND PUSH8 0xFFFFFFFFFFFFFFFF DUP2 GT ISZERO PUSH2 0xBDB JUMPI PUSH2 0xBDA PUSH2 0x13D7 JUMP JUMPDEST JUMPDEST PUSH1 0x40 MLOAD SWAP1 DUP1 DUP3 MSTORE DUP1 PUSH1 0x20 MUL PUSH1 0x20 ADD DUP3 ADD PUSH1 0x40 MSTORE DUP1 ISZERO PUSH2 0xC09 JUMPI DUP2 PUSH1 0x20 ADD PUSH1 0x20 DUP3 MUL DUP1 CALLDATASIZE DUP4 CALLDATACOPY DUP1 DUP3 ADD SWAP2 POP POP SWAP1 POP JUMPDEST POP SWAP1 POP PUSH1 0x0 JUMPDEST PUSH1 0x1 PUSH1 0x4 SWAP1 SLOAD SWAP1 PUSH2 0x100 EXP SWAP1 DIV PUSH2 0xFFFF AND PUSH2 0xFFFF AND DUP2 PUSH2 0xFFFF AND LT ISZERO PUSH2 0xCFF JUMPI PUSH1 0x3 PUSH1 0x0 PUSH1 0x4 DUP4 PUSH2 0xFFFF AND DUP2 SLOAD DUP2 LT PUSH2 0xC4B JUMPI PUSH2 0xC4A PUSH2 0x1406 JUMP JUMPDEST JUMPDEST SWAP1 PUSH1 0x0 MSTORE PUSH1 0x20 PUSH1 0x0 KECCAK256 ADD PUSH1 0x0 SWAP1 SLOAD SWAP1 PUSH2 0x100 EXP SWAP1 DIV PUSH20 0xFFFFFFFFFFFFFFFFFFFFFFFFFFFFFFFFFFFFFFFF AND PUSH20 0xFFFFFFFFFFFFFFFFFFFFFFFFFFFFFFFFFFFFFFFF AND PUSH20 0xFFFFFFFFFFFFFFFFFFFFFFFFFFFFFFFFFFFFFFFF AND DUP2 MSTORE PUSH1 0x20 ADD SWAP1 DUP2 MSTORE PUSH1 0x20 ADD PUSH1 0x0 KECCAK256 PUSH1 0x0 SWAP1 SLOAD SWAP1 PUSH2 0x100 EXP SWAP1 DIV PUSH2 0xFFFF AND DUP3 DUP3 PUSH2 0xFFFF AND DUP2 MLOAD DUP2 LT PUSH2 0xCD6 JUMPI PUSH2 0xCD5 PUSH2 0x1406 JUMP JUMPDEST JUMPDEST PUSH1 0x20 MUL PUSH1 0x20 ADD ADD SWAP1 PUSH2 0xFFFF AND SWAP1 DUP2 PUSH2 0xFFFF AND DUP2 MSTORE POP POP DUP1 DUP1 PUSH2 0xCF7 SWAP1 PUSH2 0x12F2 JUMP JUMPDEST SWAP2 POP POP PUSH2 0xC0F JUMP JUMPDEST POP PUSH1 0x4 DUP2 PUSH1 0x1 PUSH1 0x0 SWAP1 SLOAD SWAP1 PUSH2 0x100 EXP SWAP1 DIV PUSH2 0xFFFF AND PUSH1 0x5 PUSH1 0x0 SWAP1 SLOAD SWAP1 PUSH2 0x100 EXP SWAP1 DIV PUSH20 0xFFFFFFFFFFFFFFFFFFFFFFFFFFFFFFFFFFFFFFFF AND DUP4 DUP1 SLOAD DUP1 PUSH1 0x20 MUL PUSH1 0x20 ADD PUSH1 0x40 MLOAD SWAP1 DUP2 ADD PUSH1 0x40 MSTORE DUP1 SWAP3 SWAP2 SWAP1 DUP2 DUP2 MSTORE PUSH1 0x20 ADD DUP3 DUP1 SLOAD DUP1 ISZERO PUSH2 0xDB8 JUMPI PUSH1 0x20 MUL DUP3 ADD SWAP2 SWAP1 PUSH1 0x0 MSTORE PUSH1 0x20 PUSH1 0x0 KECCAK256 SWAP1 JUMPDEST DUP2 PUSH1 0x0 SWAP1 SLOAD SWAP1 PUSH2 0x100 EXP SWAP1 DIV PUSH20 0xFFFFFFFFFFFFFFFFFFFFFFFFFFFFFFFFFFFFFFFF AND PUSH20 0xFFFFFFFFFFFFFFFFFFFFFFFFFFFFFFFFFFFFFFFF AND DUP2 MSTORE PUSH1 0x20 ADD SWAP1 PUSH1 0x1 ADD SWAP1 DUP1 DUP4 GT PUSH2 0xD6E JUMPI JUMPDEST POP POP POP POP POP SWAP4 POP SWAP5 POP SWAP5 POP SWAP5 POP SWAP5 POP POP SWAP1 SWAP2 SWAP3 SWAP4 JUMP JUMPDEST PUSH1 0x0 PUSH2 0xFFFF DUP3 AND SWAP1 POP SWAP2 SWAP1 POP JUMP JUMPDEST PUSH2 0xDE5 DUP2 PUSH2 0xDCE JUMP JUMPDEST DUP3 MSTORE POP POP JUMP JUMPDEST PUSH1 0x0 PUSH1 0x20 DUP3 ADD SWAP1 POP PUSH2 0xE00 PUSH1 0x0 DUP4 ADD DUP5 PUSH2 0xDDC JUMP JUMPDEST SWAP3 SWAP2 POP POP JUMP JUMPDEST PUSH1 0x0 DUP2 SWAP1 POP SWAP2 SWAP1 POP JUMP JUMPDEST PUSH2 0xE19 DUP2 PUSH2 0xE06 JUMP JUMPDEST DUP3 MSTORE POP POP JUMP JUMPDEST PUSH1 0x0 PUSH1 0x20 DUP3 ADD SWAP1 POP PUSH2 0xE34 PUSH1 0x0 DUP4 ADD DUP5 PUSH2 0xE10 JUMP JUMPDEST SWAP3 SWAP2 POP POP JUMP JUMPDEST PUSH1 0x0 DUP2 ISZERO ISZERO SWAP1 POP SWAP2 SWAP1 POP JUMP JUMPDEST PUSH2 0xE4F DUP2 PUSH2 0xE3A JUMP JUMPDEST DUP3 MSTORE POP POP JUMP JUMPDEST PUSH1 0x0 DUP2 MLOAD SWAP1 POP SWAP2 SWAP1 POP JUMP JUMPDEST PUSH1 0x0 DUP3 DUP3 MSTORE PUSH1 0x20 DUP3 ADD SWAP1 POP SWAP3 SWAP2 POP POP JUMP JUMPDEST PUSH1 0x0 JUMPDEST DUP4 DUP2 LT ISZERO PUSH2 0xE8F JUMPI DUP1 DUP3 ADD MLOAD DUP2 DUP5 ADD MSTORE PUSH1 0x20 DUP2 ADD SWAP1 POP PUSH2 0xE74 JUMP JUMPDEST DUP4 DUP2 GT ISZERO PUSH2 0xE9E JUMPI PUSH1 0x0 DUP5 DUP5 ADD MSTORE JUMPDEST POP POP POP POP JUMP JUMPDEST PUSH1 0x0 PUSH1 0x1F NOT PUSH1 0x1F DUP4 ADD AND SWAP1 POP SWAP2 SWAP1 POP JUMP JUMPDEST PUSH1 0x0 PUSH2 0xEC0 DUP3 PUSH2 0xE55 JUMP JUMPDEST PUSH2 0xECA DUP2 DUP6 PUSH2 0xE60 JUMP JUMPDEST SWAP4 POP PUSH2 0xEDA DUP2 DUP6 PUSH1 0x20 DUP7 ADD PUSH2 0xE71 JUMP JUMPDEST PUSH2 0xEE3 DUP2 PUSH2 0xEA4 JUMP JUMPDEST DUP5 ADD SWAP2 POP POP SWAP3 SWAP2 POP POP JUMP JUMPDEST PUSH1 0x0 PUSH20 0xFFFFFFFFFFFFFFFFFFFFFFFFFFFFFFFFFFFFFFFF DUP3 AND SWAP1 POP SWAP2 SWAP1 POP JUMP JUMPDEST PUSH1 0x0 PUSH2 0xF19 DUP3 PUSH2 0xEEE JUMP JUMPDEST SWAP1 POP SWAP2 SWAP1 POP JUMP JUMPDEST PUSH2 0xF29 DUP2 PUSH2 0xF0E JUMP JUMPDEST DUP3 MSTORE POP POP JUMP JUMPDEST PUSH1 0x0 PUSH1 0xA0 DUP3 ADD SWAP1 POP PUSH2 0xF44 PUSH1 0x0 DUP4 ADD DUP9 PUSH2 0xDDC JUMP JUMPDEST PUSH2 0xF51 PUSH1 0x20 DUP4 ADD DUP8 PUSH2 0xDDC JUMP JUMPDEST PUSH2 0xF5E PUSH1 0x40 DUP4 ADD DUP7 PUSH2 0xE46 JUMP JUMPDEST DUP2 DUP2 SUB PUSH1 0x60 DUP4 ADD MSTORE PUSH2 0xF70 DUP2 DUP6 PUSH2 0xEB5 JUMP JUMPDEST SWAP1 POP PUSH2 0xF7F PUSH1 0x80 DUP4 ADD DUP5 PUSH2 0xF20 JUMP JUMPDEST SWAP7 SWAP6 POP POP POP POP POP POP JUMP JUMPDEST PUSH1 0x0 DUP1 REVERT JUMPDEST PUSH2 0xF97 DUP2 PUSH2 0xF0E JUMP JUMPDEST DUP2 EQ PUSH2 0xFA2 JUMPI PUSH1 0x0 DUP1 REVERT JUMPDEST POP JUMP JUMPDEST PUSH1 0x0 DUP2 CALLDATALOAD SWAP1 POP PUSH2 0xFB4 DUP2 PUSH2 0xF8E JUMP JUMPDEST SWAP3 SWAP2 POP POP JUMP JUMPDEST PUSH1 0x0 PUSH1 0x20 DUP3 DUP5 SUB SLT ISZERO PUSH2 0xFD0 JUMPI PUSH2 0xFCF PUSH2 0xF89 JUMP JUMPDEST JUMPDEST PUSH1 0x0 PUSH2 0xFDE DUP5 DUP3 DUP6 ADD PUSH2 0xFA5 JUMP JUMPDEST SWAP2 POP POP SWAP3 SWAP2 POP POP JUMP JUMPDEST PUSH2 0xFF0 DUP2 PUSH2 0xE3A JUMP JUMPDEST DUP2 EQ PUSH2 0xFFB JUMPI PUSH1 0x0 DUP1 REVERT JUMPDEST POP JUMP JUMPDEST PUSH1 0x0 DUP2 CALLDATALOAD SWAP1 POP PUSH2 0x100D DUP2 PUSH2 0xFE7 JUMP JUMPDEST SWAP3 SWAP2 POP POP JUMP JUMPDEST PUSH1 0x0 PUSH1 0x20 DUP3 DUP5 SUB SLT ISZERO PUSH2 0x1029 JUMPI PUSH2 0x1028 PUSH2 0xF89 JUMP JUMPDEST JUMPDEST PUSH1 0x0 PUSH2 0x1037 DUP5 DUP3 DUP6 ADD PUSH2 0xFFE JUMP JUMPDEST SWAP2 POP POP SWAP3 SWAP2 POP POP JUMP JUMPDEST PUSH1 0x0 PUSH1 0x20 DUP3 ADD SWAP1 POP PUSH2 0x1055 PUSH1 0x0 DUP4 ADD DUP5 PUSH2 0xE46 JUMP JUMPDEST SWAP3 SWAP2 POP POP JUMP JUMPDEST PUSH1 0x0 DUP2 MLOAD SWAP1 POP SWAP2 SWAP1 POP JUMP JUMPDEST PUSH1 0x0 DUP3 DUP3 MSTORE PUSH1 0x20 DUP3 ADD SWAP1 POP SWAP3 SWAP2 POP POP JUMP JUMPDEST PUSH1 0x0 DUP2 SWAP1 POP PUSH1 0x20 DUP3 ADD SWAP1 POP SWAP2 SWAP1 POP JUMP JUMPDEST PUSH2 0x1090 DUP2 PUSH2 0xF0E JUMP JUMPDEST DUP3 MSTORE POP POP JUMP JUMPDEST PUSH1 0x0 PUSH2 0x10A2 DUP4 DUP4 PUSH2 0x1087 JUMP JUMPDEST PUSH1 0x20 DUP4 ADD SWAP1 POP SWAP3 SWAP2 POP POP JUMP JUMPDEST PUSH1 0x0 PUSH1 0x20 DUP3 ADD SWAP1 POP SWAP2 SWAP1 POP JUMP JUMPDEST PUSH1 0x0 PUSH2 0x10C6 DUP3 PUSH2 0x105B JUMP JUMPDEST PUSH2 0x10D0 DUP2 DUP6 PUSH2 0x1066 JUMP JUMPDEST SWAP4 POP PUSH2 0x10DB DUP4 PUSH2 0x1077 JUMP JUMPDEST DUP1 PUSH1 0x0 JUMPDEST DUP4 DUP2 LT ISZERO PUSH2 0x110C JUMPI DUP2 MLOAD PUSH2 0x10F3 DUP9 DUP3 PUSH2 0x1096 JUMP JUMPDEST SWAP8 POP PUSH2 0x10FE DUP4 PUSH2 0x10AE JUMP JUMPDEST SWAP3 POP POP PUSH1 0x1 DUP2 ADD SWAP1 POP PUSH2 0x10DF JUMP JUMPDEST POP DUP6 SWAP4 POP POP POP POP SWAP3 SWAP2 POP POP JUMP JUMPDEST PUSH1 0x0 DUP2 MLOAD SWAP1 POP SWAP2 SWAP1 POP JUMP JUMPDEST PUSH1 0x0 DUP3 DUP3 MSTORE PUSH1 0x20 DUP3 ADD SWAP1 POP SWAP3 SWAP2 POP POP JUMP JUMPDEST PUSH1 0x0 DUP2 SWAP1 POP PUSH1 0x20 DUP3 ADD SWAP1 POP SWAP2 SWAP1 POP JUMP JUMPDEST PUSH2 0x114E DUP2 PUSH2 0xDCE JUMP JUMPDEST DUP3 MSTORE POP POP JUMP JUMPDEST PUSH1 0x0 PUSH2 0x1160 DUP4 DUP4 PUSH2 0x1145 JUMP JUMPDEST PUSH1 0x20 DUP4 ADD SWAP1 POP SWAP3 SWAP2 POP POP JUMP JUMPDEST PUSH1 0x0 PUSH1 0x20 DUP3 ADD SWAP1 POP SWAP2 SWAP1 POP JUMP JUMPDEST PUSH1 0x0 PUSH2 0x1184 DUP3 PUSH2 0x1119 JUMP JUMPDEST PUSH2 0x118E DUP2 DUP6 PUSH2 0x1124 JUMP JUMPDEST SWAP4 POP PUSH2 0x1199 DUP4 PUSH2 0x1135 JUMP JUMPDEST DUP1 PUSH1 0x0 JUMPDEST DUP4 DUP2 LT ISZERO PUSH2 0x11CA JUMPI DUP2 MLOAD PUSH2 0x11B1 DUP9 DUP3 PUSH2 0x1154 JUMP JUMPDEST SWAP8 POP PUSH2 0x11BC DUP4 PUSH2 0x116C JUMP JUMPDEST SWAP3 POP POP PUSH1 0x1 DUP2 ADD SWAP1 POP PUSH2 0x119D JUMP JUMPDEST POP DUP6 SWAP4 POP POP POP POP SWAP3 SWAP2 POP POP JUMP JUMPDEST PUSH1 0x0 PUSH1 0x80 DUP3 ADD SWAP1 POP DUP2 DUP2 SUB PUSH1 0x0 DUP4 ADD MSTORE PUSH2 0x11F1 DUP2 DUP8 PUSH2 0x10BB JUMP JUMPDEST SWAP1 POP DUP2 DUP2 SUB PUSH1 0x20 DUP4 ADD MSTORE PUSH2 0x1205 DUP2 DUP7 PUSH2 0x1179 JUMP JUMPDEST SWAP1 POP PUSH2 0x1214 PUSH1 0x40 DUP4 ADD DUP6 PUSH2 0xDDC JUMP JUMPDEST PUSH2 0x1221 PUSH1 0x60 DUP4 ADD DUP5 PUSH2 0xF20 JUMP JUMPDEST SWAP6 SWAP5 POP POP POP POP POP JUMP JUMPDEST PUSH32 0x4E487B7100000000000000000000000000000000000000000000000000000000 PUSH1 0x0 MSTORE PUSH1 0x11 PUSH1 0x4 MSTORE PUSH1 0x24 PUSH1 0x0 REVERT JUMPDEST PUSH1 0x0 PUSH2 0x1264 DUP3 PUSH2 0xDCE JUMP JUMPDEST SWAP2 POP PUSH2 0x126F DUP4 PUSH2 0xDCE JUMP JUMPDEST SWAP3 POP DUP3 PUSH2 0xFFFF SUB DUP3 GT ISZERO PUSH2 0x1286 JUMPI PUSH2 0x1285 PUSH2 0x122A JUMP JUMPDEST JUMPDEST DUP3 DUP3 ADD SWAP1 POP SWAP3 SWAP2 POP POP JUMP JUMPDEST PUSH32 0x4E487B7100000000000000000000000000000000000000000000000000000000 PUSH1 0x0 MSTORE PUSH1 0x22 PUSH1 0x4 MSTORE PUSH1 0x24 PUSH1 0x0 REVERT JUMPDEST PUSH1 0x0 PUSH1 0x2 DUP3 DIV SWAP1 POP PUSH1 0x1 DUP3 AND DUP1 PUSH2 0x12D8 JUMPI PUSH1 0x7F DUP3 AND SWAP2 POP JUMPDEST PUSH1 0x20 DUP3 LT DUP2 EQ ISZERO PUSH2 0x12EC JUMPI PUSH2 0x12EB PUSH2 0x1291 JUMP JUMPDEST JUMPDEST POP SWAP2 SWAP1 POP JUMP JUMPDEST PUSH1 0x0 PUSH2 0x12FD DUP3 PUSH2 0xDCE JUMP JUMPDEST SWAP2 POP PUSH2 0xFFFF DUP3 EQ ISZERO PUSH2 0x1312 JUMPI PUSH2 0x1311 PUSH2 0x122A JUMP JUMPDEST JUMPDEST PUSH1 0x1 DUP3 ADD SWAP1 POP SWAP2 SWAP1 POP JUMP JUMPDEST PUSH1 0x0 PUSH2 0x1328 DUP3 PUSH2 0xE06 JUMP JUMPDEST SWAP2 POP PUSH2 0x1333 DUP4 PUSH2 0xE06 JUMP JUMPDEST SWAP3 POP DUP2 PUSH32 0xFFFFFFFFFFFFFFFFFFFFFFFFFFFFFFFFFFFFFFFFFFFFFFFFFFFFFFFFFFFFFFFF DIV DUP4 GT DUP3 ISZERO ISZERO AND ISZERO PUSH2 0x136C JUMPI PUSH2 0x136B PUSH2 0x122A JUMP JUMPDEST JUMPDEST DUP3 DUP3 MUL SWAP1 POP SWAP3 SWAP2 POP POP JUMP JUMPDEST PUSH32 0x4E487B7100000000000000000000000000000000000000000000000000000000 PUSH1 0x0 MSTORE PUSH1 0x12 PUSH1 0x4 MSTORE PUSH1 0x24 PUSH1 0x0 REVERT JUMPDEST PUSH1 0x0 PUSH2 0x13B1 DUP3 PUSH2 0xE06 JUMP JUMPDEST SWAP2 POP PUSH2 0x13BC DUP4 PUSH2 0xE06 JUMP JUMPDEST SWAP3 POP DUP3 PUSH2 0x13CC JUMPI PUSH2 0x13CB PUSH2 0x1377 JUMP JUMPDEST JUMPDEST DUP3 DUP3 DIV SWAP1 POP SWAP3 SWAP2 POP POP JUMP JUMPDEST PUSH32 0x4E487B7100000000000000000000000000000000000000000000000000000000 PUSH1 0x0 MSTORE PUSH1 0x41 PUSH1 0x4 MSTORE PUSH1 0x24 PUSH1 0x0 REVERT JUMPDEST PUSH32 0x4E487B7100000000000000000000000000000000000000000000000000000000 PUSH1 0x0 MSTORE PUSH1 0x32 PUSH1 0x4 MSTORE PUSH1 0x24 PUSH1 0x0 REVERT INVALID LOG2 PUSH5 0x6970667358 0x22 SLT KECCAK256 0xC8 0xBF SHR SWAP12 0xC9 SWAP15 DUP13 LOG2 DUP10 SWAP12 0x2B PUSH19 0x34952B2AAA62460613A6D0031FBD0C8515D04A DUP7 PUSH5 0x736F6C6343 STOP ADDMOD MULMOD STOP CALLER "},"gasEstimates":{"creation":{"codeDepositCost":"1045400","executionCost":"infinite","totalCost":"infinite"},"external":{"changeStatus(bool)":"33560","getBalance()":"362","getMyWage()":"infinite","getSummary()":"infinite","getTeamMembers()":"infinite","isPayable()":"6891","membersEntered()":"2522","payForServices()":"infinite","registerAsMember()":"135204","sendWage(address)":"infinite"}},"methodIdentifiers":{"changeStatus(bool)":"9b3de49b","getBalance()":"12065fe0","getMyWage()":"266d02a1","getSummary()":"4051ddac","getTeamMembers()":"efded147","isPayable()":"ce46e046","membersEntered()":"07f10415","payForServices()":"bee40f88","registerAsMember()":"4217df12","sendWage(address)":"785ef29d"}},"storageLayout":{"storage":[{"astId":103,"contract":"Teamwork.sol:Teamwork","label":"currentPay","offset":0,"slot":"0","type":"t_uint256"},{"astId":106,"contract":"Teamwork.sol:Teamwork","label":"paymentNumber","offset":0,"slot":"1","type":"t_uint16"},{"astId":108,"contract":"Teamwork.sol:Teamwork","label":"totalMembers","offset":2,"slot":"1","type":"t_uint16"},{"astId":111,"contract":"Teamwork.sol:Teamwork","label":"membersEntered","offset":4,"slot":"1","type":"t_uint16"},{"astId":114,"contract":"Teamwork.sol:Teamwork","label":"percentDivided","offset":6,"slot":"1","type":"t_uint16"},{"astId":117,"contract":"Teamwork.sol:Teamwork","label":"teamStatus","offset":8,"slot":"1","type":"t_bool"},{"astId":119,"contract":"Teamwork.sol:Teamwork","label":"teamName","offset":0,"slot":"2","type":"t_string_storage"},{"astId":123,"contract":"Teamwork.sol:Teamwork","label":"teamMembers","offset":0,"slot":"3","type":"t_mapping(t_address,t_uint16)"},{"astId":126,"contract":"Teamwork.sol:Teamwork","label":"members","offset":0,"slot":"4","type":"t_array(t_address)dyn_storage"},{"astId":128,"contract":"Teamwork.sol:Teamwork","label":"manager","offset":0,"slot":"5","type":"t_address"}],"types":{"t_address":{"encoding":"inplace","label":"address","numberOfBytes":"20"},"t_array(t_address)dyn_storage":{"base":"t_address","encoding":"dynamic_array","label":"address[]","numberOfBytes":"32"},"t_bool":{"encoding":"inplace","label":"bool","numberOfBytes":"1"},"t_mapping(t_address,t_uint16)":{"encoding":"mapping","key":"t_address","label":"mapping(address => uint16)","numberOfBytes":"32","value":"t_uint16"},"t_string_storage":{"encoding":"bytes","label":"string","numberOfBytes":"32"},"t_uint16":{"encoding":"inplace","label":"uint16","numberOfBytes":"2"},"t_uint256":{"encoding":"inplace","label":"uint256","numberOfBytes":"32"}}},"userdoc":{"kind":"user","methods":{},"version":1}}